:100000000C9415030C943D030C943D030C943D0398
:100010000C943D030C943D030C943D030C943D0360
:100020000C943D030C943D030C943D030C943D0350
:100030000C943D030C943D030C943D030C943D0340
:100040000C94CE130C943D030C943E140C94181491
:100050000C943D030C943D030C943D030C943D0320
:100060000C9470140C943D0300000000003E5B4FA4
:100070005B3E3E6B4F6B3E1C3E7C3E1C183C7E3C08
:10008000181C577D571C1C5E7F5E1C00183C180016
:10009000FFE7C3E7FF0018241800FFE7DBE7FF30A6
:1000A000483A060E2629792926407F050507407F14
:1000B00005253F5A3CE73C5A7F3E1C1C08081C1C87
:1000C0003E7F14227F22145F5F005F5F06097F017D
:1000D0007F006689956A606060606094A2FFA29468
:1000E00008047E040810207E201008082A1C080836
:1000F0001C2A08081E101010100C1E0C1E0C303884
:100100003E3830060E3E0E06000000000000005F84
:1001100000000007000700147F147F14242A7F2AA0
:100120001223130864623649562050000807030062
:10013000001C2241000041221C002A1C7F1C2A08AE
:10014000083E080800807030000808080808000011
:1001500060600020100804023E5149453E00427F85
:10016000400072494949462141494D331814127FD4
:100170001027454545393C4A494931412111090774
:100180003649494936464949291E000014000000F5
:1001900040340000000814224114141414140041C7
:1001A00022140802015909063E415D594E7C121184
:1001B000127C7F494949363E414141227F414141BC
:1001C0003E7F494949417F090909013E4141517337
:1001D0007F0808087F00417F41002040413F017FA8
:1001E000081422417F404040407F021C027F7F0470
:1001F00008107F3E4141413E7F090909063E4151B9
:10020000215E7F09192946264949493203017F01A8
:10021000033F4040403F1F2040201F3F4038403FA9
:10022000631408146303047804036159494D4300BF
:100230007F4141410204081020004141417F0402F6
:10024000010204404040404000030708002054548D
:1002500078407F284444383844444428384444286B
:100260007F385454541800087E090218A4A49C78BE
:100270007F0804047800447D40002040403D007F1A
:100280001028440000417F40007C047804787C08FA
:100290000404783844444438FC18242418182424CE
:1002A00018FC7C08040408485454542404043F44B3
:1002B000243C4040207C1C2040201C3C4030403CE2
:1002C00044281028444C9090907C4464544C440042
:1002D00008364100000077000000413608000201A6
:1002E0000204023C2623263C1EA1A161123A404092
:1002F000207A38545455592155557941225454780F
:1003000042215554784020545579400C1E527212A7
:100310003955555559395454545939555454580030
:1003200000457C410002457D420001457C407D1234
:1003300011127DF0282528F07C5455450020545496
:100340007C547C0A097F4932494949323A44444441
:100350003A324A4848303A4141217A3A424020787C
:10036000009DA0A07D3D4242423D3D4040403D3C7D
:1003700024FF2424487E4943662B2FFC2F2BFF09A2
:1003800029F620C0887E0903205454794100004496
:100390007D413048484A32384040227A007A0A0A81
:1003A000727D0D19317D2629292F282629292926F4
:1003B00030484D4020380808080808080808382F39
:1003C00010C8ACBA2F102834FA00007B00000814C3
:1003D0002A142222142A14085500550055AA55AA99
:1003E00055AAFF55FF55FF000000FF00101010FF39
:1003F00000141414FF001010FF00FF1010F010F094
:10040000141414FC001414F700FF0000FF00FF1484
:1004100014F404FC141417101F10101F101F1414D0
:10042000141F00101010F0000000001F101010101A
:100430001F10101010F010000000FF10101010100E
:1004400010101010FF10000000FF140000FF00FF4C
:1004500000001F10170000FC04F4141417101714E8
:1004600014F404F40000FF00F7141414141414140A
:10047000F700F7141414171410101F101F1414147D
:10048000F4141010F010F000001F101F0000001FE7
:1004900014000000FC140000F010F01010FF10FF1A
:1004A000141414FF141010101F00000000F010FFAF
:1004B000FFFFFFFFF0F0F0F0F0FFFFFF0000000093
:1004C00000FFFF0F0F0F0F0F3844443844FC4A4A17
:1004D0004A347E02020606027E027E0263554941CC
:1004E000633844443C04407E201E2006027E020203
:1004F00099A5E7A5991C2A492A1C4C7201724C3017
:100500004A4D4D303048784830BC625A463D3E49ED
:100510004949007E0101017E2A2A2A2A2A44445F91
:10052000444440514A444040444A51400000FF0185
:1005300003E080FF000008086B6B08361236243693
:10054000060F090F060000181800000010100030F8
:1005500040FF0101001F01011E00191D1712003C80
:100560003C3C3C0000000000EF03038002CF03008E
:10057000C130ED0464031281E803850078CB0539AE
:100580002C003402F70120EA020000C00123C1015F
:1005900010C5023E28C701863601483701003A01DE
:1005A00055B1020018B603088227F20100260101A6
:1005B000E00F0F312B0C0E084EF1370710030E0918
:1005C00000E10F000E1403110731C148080F0C3170
:1005D000360F118029800000000000240027002A27
:1005E00000000000080002010000030407000000F2
:1005F00000000000000102040810204080010204F5
:100600000810200102040810200000000025002826
:10061000002B000404040404040404020202020285
:1006200002030303030303008B1511241FBECFEF46
:10063000D8E0DEBFCDBF11E0A0E0B1E0ECE5F3E42F
:1006400002C005900D92A438B107D9F724E0A4E8C0
:10065000B1E001C01D92A235B207E1F713E0C5E198
:10066000D3E004C02197FE010E94B51EC431D1071A
:10067000C9F70E9458160C94AC210C94000090E02D
:10068000FC01EF51FA4F2491FC01EB50FA4F3491E9
:10069000FC01ED5EF94FE491EE23C9F0222339F01D
:1006A000233001F1A8F4213019F1223029F1F0E0D2
:1006B000EE0FFF1FE75FF94FA591B4918FB7F89444
:1006C000EC91611126C030953E233C938FBF089575
:1006D0002730A9F02830C9F0243049F780918000F4
:1006E0008F7D03C0809180008F7780938000DFCF63
:1006F00084B58F7784BDDBCF84B58F7DFBCF8091B0
:10070000B0008F778093B000D2CF8091B0008F7D02
:10071000F9CF3E2BDACFCF93DF9390E0FC01EB5083
:10072000FA4F24918D5E994FFC0184918823D1F07A
:1007300090E0880F991FFC01E952FA4FA591B491FE
:10074000FC01E75FF94FC591D49161110EC09FB7CD
:10075000F8948C91E22FE0958E238C932881E223EC
:10076000E8839FBFDF91CF9108958FB7F894EC9104
:10077000E22BEC938FBFF6CF3FB7F89480916B03D9
:1007800090916C03A0916D03B0916E0326B5A89B68
:1007900005C02F3F19F00196A11DB11D3FBFBA2F13
:1007A000A92F982F8827BC01CD01620F711D811DD3
:1007B000911D42E0660F771F881F991F4A95D1F758
:1007C00008958F929F92AF92BF92CF92DF92EF9255
:1007D000FF924B015C010E94BC036B017C010E94F3
:1007E000BC036C197D098E099F09683E7340810521
:1007F0009105A8F321E0821A9108A108B10888EEBA
:10080000C80E83E0D81EE11CF11C81149104A104E0
:10081000B10429F7FF90EF90DF90CF90BF90AF9099
:100820009F908F900895AF92BF92CF92DF92EF92F8
:10083000FF920F931F93CF93DF936C017B018B018A
:10084000040F151FEB015E01AE18BF08C017D107DA
:1008500059F06991D601ED91FC910190F081E02D64
:10086000C6010995892B79F7C501DF91CF911F91B9
:100870000F91FF90EF90DF90CF90BF90AF900895D1
:10088000FC01538D448D252F30E0842F90E0821B96
:10089000930B541710F0CF96089501970895FC011B
:1008A000918D828D981761F0A28DAE0FBF2FB11D73
:1008B0005D968C91928D9F5F9F73928F90E00895CB
:1008C0008FEF9FEF0895FC01918D828D981731F085
:1008D000828DE80FF11D858D90E008958FEF9FEFD9
:1008E0000895FC01918D228D892F90E0805C9F4FAF
:1008F000821B91098F739927089581E793E00E94E5
:10090000710421E0892B09F420E0822F089580E012
:1009100090E0892B29F00E947D0481110C94000045
:100920000895FC01A48DA80FB92FB11DA35ABF4F84
:100930002C91848D90E001968F739927848FA689DE
:10094000B7892C93A089B1898C91837080648C9332
:10095000938D848D981306C00288F389E02D8081E1
:100960008F7D80830895EF92FF920F931F93CF9313
:10097000DF93EC0181E0888F9B8D8C8D98131AC0DA
:10098000E889F989808185FF15C09FB7F894EE89C1
:10099000FF896083E889F98980818370806480831E
:1009A0009FBF81E090E0DF91CF911F910F91FF9069
:1009B000EF900895F62E0B8D10E00F5F1F4F0F7311
:1009C0001127E02E8C8D8E110CC00FB607FCFACFCC
:1009D000E889F989808185FFF5CFCE010E949104D5
:1009E000F1CFEB8DEC0FFD2FF11DE35AFF4FF0829D
:1009F0009FB7F8940B8FEA89FB8980818062CFCF03
:100A0000CF93DF93EC01888D8823B9F0AA89BB8945
:100A1000E889F9898C9185FD03C0808186FD0DC030
:100A20000FB607FCF7CF8C9185FFF2CF808185FF51
:100A3000EDCFCE010E949104E9CFDF91CF910895CF
:100A40002091AB01260F3327331F21323105ECF4FF
:100A50002091CF01FC0190E080E0243069F082E039
:100A60000895A091AB012191AC0145575E4FA40FB1
:100A7000B52FB11D2C930196861798F38091AB0189
:100A8000680F6093AB0180E0089581E008950895B8
:100A90008FEF9FEF08958FEF9FEF0895809184016E
:100AA00090E09195819591090895CF93DF93CB01C3
:100AB000EA01642F0E942005CE01DF91CF910895B5
:100AC000CF93DF931F92CDB7DEB7698361E0CE018C
:100AD00001960E94200581E090E00F90DF91CF9178
:100AE0000895FC01A5A1B6A18C9192A589238C93B0
:100AF000A5A1B6A18C9191A5892B8C9308950F93F4
:100B00001F93CF93DF93EC018B018DA981110DC051
:100B10001EBD0DB407FEFDCF0EBD0DB407FEFDCF0B
:100B2000DF91CF911F910F9108958130E9F480E119
:100B3000E9A1FAA1908117FF14C02DA1922B9083F7
:100B4000EBA1FCA190812FA1922B9083EBA1FCA1A2
:100B5000908128A592239083000F111F815041F7A7
:100B6000DFCF2EA19223EBCFEF8DF8A11083CE0122
:100B70000E947105EF8DF8A10083CE01DF91CF9126
:100B80001F910F910C947105FC0185A9811105C07D
:100B90006EBD0DB407FEFDCF08958130E1F488E00D
:100BA000A1A1B2A19C9167FF13C025A1922B9C9398
:100BB000A3A1B4A19C9127A1922B9C93660FA3A102
:100BC000B4A19C9120A592239C93815049F708954C
:100BD00026A19223ECCFA78DB0A16C93CF010C94EA
:100BE0007105CF93DF93EC01ED8DFE8D80819CA983
:100BF00089238083CE010E94C405ED8DFE8D808106
:100C00009BA9892B8083DF91CF910895AF92BF92EA
:100C1000CF92DF92EF92FF920F931F93CF93DF93C8
:100C2000EC015B016A01215031097901E60EF71EE2
:100C300001501109040F151F8091080190910901BD
:100C40008617970739F480910601909107018E1558
:100C50009F05A1F06AE2CE010E94F105B501CE0127
:100C60000E947F05B701CE010E947F05B092090165
:100C7000A0920801F0920701E09206018091040120
:100C8000909105018C159D0539F480910201909198
:100C9000030180179107A1F06BE2CE010E94F105DC
:100CA000B601CE010E947F05B801CE010E947F05EA
:100CB000D0920501C0920401109303010093020138
:100CC0006CE2CE01DF91CF911F910F91FF90EF90D9
:100CD000DF90CF90BF90AF900C94F105FC0185A9F7
:100CE000811104C091A182A19CBD8DBD08951F9367
:100CF000CF93DF93EC01162FE881F9810284F3850D
:100D0000E02D0995112371F06DADCE010E94F10522
:100D1000E881F9810688F789E02DCE01DF91CF9136
:100D20001F9109946EADF1CFAF92BF92CF92DF9237
:100D3000EF92FF920F931F93CF93DF93EC0177FD18
:100D400038C088859985681779079CF557FD31C0AB
:100D50008A859B854817590764F569017A015B010B
:100D6000E881F9810284F385E02DCE010995E881BF
:100D7000F98102A4F3A5E02D01E010E021E030E0CC
:100D8000A701B501CE010995B601CE010E947F05EC
:100D9000E881F9810688F789E02DCE01DF91CF91B6
:100DA0001F910F91FF90EF90DF90CF90BF90AF9089
:100DB0000994DF91CF911F910F91FF90EF90DF90F9
:100DC000CF90BF90AF9008958F929F92AF92BF92B5
:100DD000CF92DF92EF92FF920F931F93CF93DF9307
:100DE000EC0149015701E881F98102A4F3A5E02D46
:100DF00009959401D8010E94561E6B017C01C11413
:100E0000D104E104F10409F490C08DA9811115C049
:100E100081E0C81AD108E108F1088FEFC816D8069A
:100E2000E806F80609F481C0BEBC0DB407FEFDCF8C
:100E3000AEBC0DB407FEFDCFEBCF813009F045C04D
:100E400081E0C81AD108E108F1088FEFC816D8066A
:100E5000E806F80609F469C09B2D88E0E9A1FAA12B
:100E6000208197FF2CC03DA1232B2083EBA1FCA167
:100E700020813FA1232B2083EBA1FCA1208138A559
:100E800023232083990F815049F79A2D88E0E9A107
:100E9000FAA1208197FF16C03DA1232B2083EBA14F
:100EA000FCA120813FA1232B2083EBA1FCA1208169
:100EB00038A523232083990F815049F7C1CF3EA144
:100EC0002323D3CF3EA12323E9CFBA1016C0CC0CE5
:100ED000DD1CEE1CFF1CEF8DF8A1B08281E0C81A6A
:100EE000D108E108F1088FEFC816D806E806F80621
:100EF000E1F0CE010E947105F1CF81E0C81AD1085E
:100F0000E108F1088FEFC816D806E806F80669F080
:100F1000EF8DF8A1B082CE010E947105EF8DF8A18E
:100F2000A082CE010E947105E8CFDF91CF911F9181
:100F30000F91FF90EF90DF90CF90BF90AF909F9078
:100F40008F9008958F929F92AF92BF92CF92DF922F
:100F5000EF92FF920F931F93CF93DF934C01EB011E
:100F60006A01590137FF07C0C9010196C80FD91F8F
:100F7000B194A194B108F401A085B185CA17DB072B
:100F80000CF058C017FF07C0C8010196C80ED91E43
:100F9000119501951109F40182859385C816D9062A
:100FA0000CF048C0FE01EA0DFB1DAF014150510994
:100FB00057FD40C0B601600F711F9B0121503109E0
:100FC00037FD38C0D7FF03C05F01D0E0C0E0D7FED7
:100FD00003C08B01D12CC12C4A175B071CF05D01AB
:100FE000AC1ABD0A281739071CF08C010C191D0911
:100FF000D401ED91FC910284F385E02DC4010995A3
:101000009501A601BE01C4010E94E406D401ED9140
:10101000FC910688F789E02DC401DF91CF911F91E3
:101020000F91FF90EF90DF90CF90BF90AF909F9087
:101030008F900994DF91CF911F910F91FF90EF90C6
:10104000DF90CF90BF90AF909F908F900895EF92D8
:10105000FF920F931F932115310529F001151105FA
:1010600011F00E94A2071F910F91FF90EF90089539
:10107000EF92FF920F931F93241735078CF078019E
:10108000FA01AB01BC0189010E1B1F0B0F5F1F4F43
:10109000421B530B24E030E08FE094E00E942708CD
:1010A0001F910F91FF90EF9008958F929F92AF92B2
:1010B000BF92CF92DF92EF92FF920F931F93CF9345
:1010C000DF935C014B016A01E90177FD52C0DC014D
:1010D00018968D919C91681779070CF04AC020975B
:1010E00009F447C037FF07C0C9010196C80ED91ED1
:1010F000D195C195D109F50182859385C816D90688
:10110000C4F5A6014C0F5D1F9A012150310937FD2E
:1011100030C0D7FE03C0EA01D12CC12C28173907F3
:101120001CF0EC01CC19DD09D501ED91FC91028494
:10113000F385E02DC501099578018E0121E030E0AD
:10114000A601B401C5010E94E406D501ED91FC9110
:101150000688F789E02DC501DF91CF911F910F918E
:10116000FF90EF90DF90CF90BF90AF909F908F90C7
:101170000994DF91CF911F910F91FF90EF90DF9035
:10118000CF90BF90AF909F908F9008958F929F9235
:10119000AF92BF92CF92DF92EF92FF920F931F9385
:1011A000CF93DF935C016B014A01E90157FD52C007
:1011B000DC011A968D919C91481759070CF04AC092
:1011C000209709F447C037FF07C0C9010196C80E30
:1011D000D91ED195C195D109F50180859185C81693
:1011E000D906C4F5A6014C0F5D1F9A0121503109A3
:1011F00037FD30C0D7FE03C0EA01D12CC12C28171F
:1012000039071CF0EC01CC19DD09D501ED91FC91F9
:101210000284F385E02DC5010995780101E010E015
:101220009E01A401B601C5010E94E406D501ED911D
:10123000FC910688F789E02DC501DF91CF911F91C0
:101240000F91FF90EF90DF90CF90BF90AF909F9065
:101250008F900994DF91CF911F910F91FF90EF90A4
:10126000DF90CF90BF90AF909F908F900895EF92B6
:10127000FF920F931F93CF93DF9377FD32C0DC0172
:101280001896ED91FC916E177F075CF521153105DD
:1012900041F137FF07C0F90131964E0F5F1F3195BD
:1012A00021953109DC011A96ED91FC914E175F07EB
:1012B000C4F4EA01C20FD31FDE011197B7FD11C0BC
:1012C00057FF03C09E0150E040E0AE17BF071CF07F
:1012D0009F01241B350B7801890121E030E00E9439
:1012E000E406DF91CF911F910F91FF90EF90089549
:1012F000EF92FF920F931F93CF93DF9357FD31C06F
:10130000DC011A96ED91FC914E175F0754F52115FB
:10131000310539F137FF07C0F90131966E0F7F1F94
:10132000319521953109DC011896ED91FC916E17EC
:101330007F07BCF4EB01C20FD31FDE011197B7FD8D
:1013400010C077FF03C09E0170E060E0AE17BF07DA
:101350001CF09F01261B370B780101E010E00E9472
:10136000E406DF91CF911F910F91FF90EF900895C8
:101370008F929F92AF92BF92CF92DF92EF92FF92A5
:101380000F931F93CF93DF9347012115310509F484
:101390004BC00115110509F447C037FF07C0F9011B
:1013A00031966E0F7F1F319521953109DC0118961A
:1013B000AD90BC906A157B05BCF517FF07C0F8011E
:1013C00031964E0F5F1F119501951109DC011A9698
:1013D000ED91FC914E175F073CF56B01C20ED31ED9
:1013E000E6012197D7FD20C07A01E00EF11ED7015A
:1013F0001197B7FD19C077FF03C0960170E060E058
:1014000057FF03C0870150E040E0CA15DB051CF020
:101410009501261B370BAE17BF071CF08F01041B6D
:10142000150B74010E94E406DF91CF911F910F917B
:10143000FF90EF90DF90CF90BF90AF909F908F90F4
:101440000895EF92FF920F931F93CF93DF93EC01D8
:1014500077FD22C08885998568177907ECF457FDD8
:101460001BC08A859B8548175907B4F47901E88128
:10147000F98102A4F3A5E02D01E010E021E030E0C5
:10148000CE010995B701CE01DF91CF911F910F9148
:10149000FF90EF900C947F05DF91CF911F910F91FA
:1014A000FF90EF900895CF93DF93EC010E946E06BA
:1014B0008FA987FD06C0EB8DFC8D80819AA98923B9
:1014C0008083DF91CF9108950895AF92BF92CF921C
:1014D000DF92EF92FF920F931F93CF93DF93EC0174
:1014E000E62E8A01A22E0E946E068FA987FD06C0F5
:1014F000EB8DFC8D80819AA989238083ED8DFE8DF3
:1015000080819CA9892380836E2DCE010E94C40511
:10151000ED8DFE8D80819BA9892B8083D12CC12CE0
:10152000B12CCA14DB04E4F48DA97801823079F47B
:1015300088A9882361F0F801619171917F01CE0142
:101540000E947F05FFEFCF1ADF0A8701EACFFFEF86
:10155000EF1AFF0AF8016491CE010E94C405F2CF90
:101560008FA987FD06C0EB8DFC8D808199A9892B01
:101570008083DF91CF911F910F91FF90EF90DF90CB
:10158000CF90BF90AF900895611106C060E220E057
:1015900050E040E00C94650A61E2F9CF0F931F938D
:1015A000CF93DF931F92CDB7DEB78C016370DC0160
:1015B00056966C935697623009F468C0633009F40C
:1015C0006AC0613009F456C088E4898380EF90E0F6
:1015D00019969C938E93189780E491E01B969C93A8
:1015E0008E931A97C8010E946E06D801D7968C91E7
:1015F000D79787FD09C05B96ED91FC915C97808140
:10160000D2969C9189238083D8015D96ED91FC91BF
:101610005E978081D4969C918923808366E3C8017C
:101620000E94C405D8015D96ED91FC915E97808182
:10163000D3969C91D397892B8083D5968C918230B9
:1016400061F16981C8010E94C405D801D7968C91C7
:10165000D79787FD09C05B96ED91FC915C978081DF
:10166000D1969C91892B80830F90DF91CF911F9110
:101670000F91089588E2898380E491E0F8019187D1
:10168000808780EF90E093878287ACCF88E889835A
:1016900080EF90E09DCF88EEEECFF80180A98823FF
:1016A00081F269817A81C8010E947F05CECFFC0159
:1016B00087A987FD06C0A38DB48D9C9181A9892B34
:1016C0008C9308950895FC016370668B84819581E5
:1016D00026813781613039F0633029F09187808726
:1016E00033872287089531872087938782870895DB
:1016F0002F923F924F925F926F927F928F929F9222
:10170000AF92BF92CF92DF92EF92FF920F931F930F
:10171000CF93DF93CDB7DEB76A970FB6F894DEBFED
:101720000FBECDBF9A8F898F7A8369834A01D22EEB
:1017300018870F833701BC2CDC0159962D913C9101
:101740005A972115310509F015C118968D919C9174
:101750001997681779070CF0D7C11A968D919C914B
:10176000481759070CF0D0C14C2C512CB6E0CB9E39
:10177000600D711D11247C876B87161617060CF0FF
:10178000C3C1EA2DF0E0FA87E98793E0EE0FFF1F6F
:101790009A95E1F7F88BEF87CF01840F951F181604
:1017A00019060CF0B1C1A98DBA8D58968C91811192
:1017B00004C0BFEABD1508F4D394A98DBA8DED918C
:1017C000FC9111970284F385E02DCD010995B5E0D8
:1017D000DB9EC0011124E981FA81FC83EB83312C6B
:1017E000212C9C0128593F4F388F2F8B4A2D50E0D8
:1017F0005E8B4D8BEF89F88DE20DF31D44919E8237
:101800008D82D12CC12C69817A81620D731D7A8BF6
:10181000698B842F90E09C8B8B8BE98DFA8DA08156
:10182000B18140FF82C0F1E0BF126FC0AF126DC046
:101830001C96ED91FC912F813885A4014C0D5D1D06
:1018400069897A89898D9A8D0995EB89FC89F59545
:10185000E7954E2F5FEFC51AD50A6D817E818D8980
:101860009E89680F791F7E836D8398E0C916D10425
:1018700081F6AFEF2A1A3A0AEB81FC81E40DF51DDF
:10188000FC83EB83F5E02F16310409F0B3CF2F81F1
:10189000388526153705B9F0A98DBA8DED91FC91E3
:1018A000B1E0BB1257C0AB1255C069817A816B5F42
:1018B0007F4F0088F189E02D830128E030E0A4010A
:1018C000898D9A8D0995A98DBA8DED91FC9111970D
:1018D0000688F789E02DCD016A960FB6F894DEBF31
:1018E0000FBECDBFDF91CF911F910F91FF90EF9071
:1018F000DF90CF90BF90AF909F908F907F906F9030
:101900005F904F903F902F9009941E96ED91FC911F
:10191000EF80F88409851A8592014D815E816B8183
:101920007C81898D9A8D099590CF2F8138852615D8
:10193000370509F48ACF31E0B31207C0A31205C0FE
:101940001C96ED91FC91930178CF1E96ED91FC9140
:101950007301E0CF6B857C85641975090684F78572
:10196000E02D73010F8518899201A401898D9A8D4C
:101970000995A9CFF90134969491329745915491E4
:10198000D91AB7E0DB9E400D511D1124F9012591B4
:1019900034913C8B2B8BFA0125903490FA013296CE
:1019A000749031963491398B32966490319644908C
:1019B00041E04C1518F04A1508F07FC0662D062C42
:1019C000000C770B7C836B83842D042C000C990B0B
:1019D0009E838D83A98DBA8DED91FC911197028420
:1019E000F385E02DCD010995512CD12CC12CEA2D88
:1019F000F0E0FA87E9872B2D30E03C872B87A401A4
:101A0000440D511D47FC5A95588F4F8B69817A813F
:101A1000660D711D67FC7A957E876D877989C7167B
:101A200008F051CF2C2D30E04D815E81420F531FC5
:101A3000A985BA854A9FC0014B9F900D5A9F900D72
:101A40001124FC01E80DF91DF88BEF87852D612C21
:101A50004F89588D420F531F5E8B4D8B671408F0D2
:101A600050C044244394480E877041F4C10101964C
:101A7000EB89FC89E20DF31DD4901C01D7FE19C03F
:101A8000A98DBA8DED91FC91662D70E0B1E0BB128D
:101A900019C0AB1217C02D853E85620F731F0484D9
:101AA000F585E02D2F8138854D895E89898D9A8D48
:101AB0000995DD0C6394842DD1CF1E821D821C827A
:101AC0001B8288CF4B815C81640F751FAB85BC8501
:101AD0006A9FC0016B9F900D7A9F900D11246981C0
:101AE0007A81680F791F0684F785E02DEF80F884EE
:101AF00009851A859D014F855889898D9A8D09958B
:101B0000D8CF570CC3948ACF6A960FB6F894DEBF2D
:101B10000FBECDBFDF91CF911F910F91FF90EF903E
:101B2000DF90CF90BF90AF909F908F907F906F90FD
:101B30005F904F903F902F9008958F929F92AF9219
:101B4000CF92EF92FF920F931F93CF93DF93EC010D
:101B5000262F898D9A8D009709F051C06A30D1F4F3
:101B60001D861C868D8948E0849F900111248E85F6
:101B70009F85820F931F9F878E8781E090E0DF9182
:101B8000CF911F910F91FF90EF90CF90AF909F90CA
:101B90008F9008956D3089F3CC88AD888F89882324
:101BA000C1F08C859D8536E0C39E800D911D11246A
:101BB000488559854817590764F44E855F851D8609
:101BC0001C8638E0A39EC0011124840F951F9F87B7
:101BD0008E87EA88FB88088919894E855F856C8520
:101BE0007D85CE010E94780B2C898C859D8546E0F1
:101BF000249F800D911D11249D878C87BECF6A3054
:101C000069F41D861C86FC013896E4912D898E8529
:101C10009F85E29F800D911D1124ADCF6D3009F499
:101C2000ACCFFC0134963491631708F4A6CF3296FA
:101C3000E491E61708F4A1CFFC01329685909490C8
:101C4000462F431B342F47E0349F800C911C1124F6
:101C5000F401329634913196E4913323A9F1EE23C5
:101C600099F1CC88F4013596E491AD884F894423ED
:101C700001F10E2E000CFF0BE30FF11DCE9EA00113
:101C8000CF9E500D11246C857D85460F571F6885AA
:101C90007985641775076CF44E855F851D861C86F3
:101CA000FC013896E491AE9E400D511D11245F87D2
:101CB0004E87EA88FB88088919894E855F856C857F
:101CC0007D85CE010E94780BF4013496E4912C8935
:101CD0008C859D85E29F800D911D11248DCF6F9283
:101CE0007F928F929F92AF92BF92CF92DF92EF92AC
:101CF000FF920F931F93CF93DF93EC016B015A0177
:101D000039014801E881F9810284F385E02D0995C4
:101D1000E881F9810288F389E02D87019301A5010B
:101D2000B601CE010995A501480D591D4150510933
:101D3000E881F9810288F389E02D9301B601CE0193
:101D40000995E881F9810088F189E02D9401A501C8
:101D5000B601CE010995C60CD71CB60161507109B8
:101D6000E881F9810088F189E02D9401A501CE0177
:101D70000995E881F9810688F789E02DCE01DF9188
:101D8000CF911F910F91FF90EF90DF90CF90BF9078
:101D9000AF909F908F907F906F9009946F927F92F9
:101DA0008F929F92AF92BF92CF92DF92EF92FF926B
:101DB0000F931F93CF93DF935C01EB016A014901FD
:101DC00038018701DC01ED91FC916217730719F569
:101DD000641675062CF0962D872D3A01C92ED82E43
:101DE0009601261937092F5F3F4F048CF58DE02DA2
:101DF000A301BE01C5010995DF91CF911F910F91FC
:101E0000FF90EF90DF90CF90BF90AF909F908F901A
:101E10007F906F9008954615570591F42617370760
:101E200024F0892D4B01C22FD82F9E012819390982
:101E30002F5F3F4F068CF78DE02DA601B401DACF5E
:101E40000284F385E02D0995D501ED91FC9104887C
:101E5000F589E02D83019401A601BE01C501099514
:101E6000D501ED91FC910688F789E02DC501DF9140
:101E7000CF911F910F91FF90EF90DF90CF90BF9087
:101E8000AF909F908F907F906F900994EF92FF9208
:101E90000F931F93DC011A960D911C911B971896B6
:101EA0002D913C911997ED91FC9100A0F1A1E02DAD
:101EB0007B0150E040E070E060E009951F910F91D8
:101EC000FF90EF9008954F925F926F927F928F9262
:101ED0009F92AF92BF92CF92DF92EF92FF920F93B9
:101EE0001F93CF93DF936C012B015A0139014801F5
:101EF000DC01ED91FC910284F385E02D0995E2016E
:101F0000640C751CD601ED91FC91C615D7055CF4E7
:101F10000088F189E02D87019401A501BE01C60169
:101F200009952196EFCF0688F789E02DC601DF914C
:101F3000CF911F910F91FF90EF90DF90CF90BF90C6
:101F4000AF909F908F907F906F905F904F9009948B
:101F50008F929F92AF92BF92CF92DF92EF92FF92B9
:101F60000F931F93CF93DF93EC015B014A0169014B
:101F7000E881F9810284F385E02D099595012C0D06
:101F80003D1D21503109E881F9810488F589E02D52
:101F900078018401A401B501CE010995E881F98198
:101FA0000688F789E02DCE01DF91CF911F910F9127
:101FB000FF90EF90DF90CF90BF90AF909F908F9069
:101FC00009948F929F92AF92BF92CF92DF92EF923D
:101FD000FF920F931F93CF93DF93EC015B014A01B4
:101FE00069017801E881F9810284F385E02D099582
:101FF000C80CD91C860101501109E881F9810488B7
:10200000F589E02D9501A401B501CE010995E8817E
:10201000F9810688F789E02DCE01DF91CF911F91DC
:102020000F91FF90EF90DF90CF90BF90AF909F9077
:102030008F900994EF92FF920F931F93DC01ED9123
:10204000FC9100A0F1A1E02D09951F910F91FF9047
:10205000EF9008950F931F93DC01ED91FC91068C96
:10206000F78DE02D09951F910F9108950F931F9300
:10207000DC01ED91FC91048CF58DE02D09951F910B
:102080000F910895DC01ED91FC910084F185E02D24
:1020900009942F923F924F925F926F927F928F920C
:1020A0009F92AF92BF92CF92DF92EF92FF920F93E7
:1020B0001F93CF93DF9300D000D000D0CDB7DEB711
:1020C0003C016A013E832D83FC82EB825801A41AF5
:1020D000B50AB7FE03C0B194A194B1088D809E806B
:1020E000861A970A97FE03C09194819491088A14E6
:1020F0009B045CF0902F812F0D811E819D838E8328
:102100009C2D8D2D6B01692F782F0C151D055CF012
:102110009D818E817E836D83692F782F902F812FF3
:102120008601C92ED82E1601201A310A2B012D81C5
:102130003E81421A530A57FE03C0519441945108FC
:10214000710137FE03C03FEFE31AF30AF594E794F9
:102150008D819E81861797075CF5A1E0B0E0BA8378
:10216000A983C016D1064CF1D301ED91FC910484F2
:10217000F585E02D2B813C81A8016D817E818A143B
:102180009B041CF04D815E81B801C3010995E418E0
:10219000F508F7FE0AC02D813E8189819A81280FBA
:1021A000391F3E832D83E20CF31C0F5F1F4FD9CFE5
:1021B0002FEF3FEF3A832983D4CF26960FB6F894BA
:1021C000DEBF0FBECDBFDF91CF911F910F91FF906A
:1021D000EF90DF90CF90BF90AF909F908F907F90C7
:1021E0006F905F904F903F902F900895089590E0EA
:1021F00080E00895EF92FF920F931F93CF93DF93A8
:10220000EC010091E1021091E20220916F03309104
:102210007003F12CE12C4CE050E070E060E08FE0C6
:1022200094E00E942708ECE7F2E01192119282E01C
:10223000EC39F807D1F71092A102D093A002C09315
:102240009F02DF91CF911F910F91FF90EF90089522
:10225000FC0101900020E9F73197AF01481B590BB1
:10226000BC018FE094E00C941304EF92FF920F9363
:102270001F93CF93DF93EC0120916F033091700394
:1022800020543109F12CE12C0CE010E050E040E04A
:1022900070E060E08FE094E00E942708EFE0F4E057
:1022A00081E0848B858B80EE9FEF938B828B918B6B
:1022B000808B82E090E09587848797878687CE0120
:1022C000DF91CF911F910F91FF90EF900C94281107
:1022D0000E94BB1ECF92DF92EF92FF920F931F934B
:1022E000CF93DF93EC016A017B01C114D104E104B7
:1022F000F10431F4C12C42E1D42E4AE7E42EF12C52
:102300008FA987FD07C061E00E948B0361E08FA960
:102310000E943F0361E088AD0E948B0361E088ADBD
:102320000E943F038DA98111A3C040E052E16AE7FA
:1023300070E0C416D506E606F70640F47695679574
:10234000579547958F5F8630A1F787E0982F906A61
:10235000969599A3809581708AA31BA21CA21DA2A9
:102360001EA21FB7F8948091F501811127C0EDE1FD
:10237000F6E08491EFEFF5E09491E82FF0E0EE0FB6
:10238000FF1FE952FA4FA591B491EC91E92321F492
:1023900061E08AE00E943F0361E08AE00E948B03D3
:1023A0008CB580618CBD8CB580648CBD61E08DE0A6
:1023B0000E948B0361E08BE00E948B038091F5010A
:1023C0008F5F8093F5011FBF8EA987FD21C061E05B
:1023D0000E948B0361E08EA90E943F0364E670E0D7
:1023E00080E090E00E94E10360E08EA90E943F033C
:1023F00064E670E080E090E00E94E10361E08EA975
:102400000E943F0368EC70E080E090E00E94E103EE
:102410008EA987FF0DC020E050E040E061E0CE01D2
:102420000E94650A66E970E080E090E00E94E103A6
:1024300008E615E0C8010196F8016491662309F4E5
:1024400063C00E5F1F4FFC01F490EF2CE894E7F897
:102450002E2DA801CE010E94650A0E0D111DF7FE5A
:10246000E9CF66E970E080E090E00E94E103E2CF0E
:1024700003E116E0F12C8130B9F461E08AA50E94F5
:102480008B0360E08AA50E943F0361E08CA50E9457
:102490008B0360E08CA50E943F038BA587FD94CF42
:1024A00060E00E948B0390CFF8018491E82FF0E068
:1024B000EE0FFF1FE75FF94F859194912F8D38A1A3
:1024C0002817390741F461E08F2D0E948B0360E0EB
:1024D0008F2D0E943F03F3940F5F1F4FF4E1FF1213
:1024E000E3CF61E08EA50E948B0361E08EA50E9480
:1024F0003F038FA587FD68CF61E00E948B0361E0F9
:102500008FA50E943F0360CF80EF90E09987888776
:1025100080E491E09B878A87DF91CF911F910F9193
:10252000FF90EF90DF90CF9008951F93CF93DF93AC
:1025300085ED8093BC008091870190918801A091E6
:102540008901B0918A010796A11DB11D23E0B695BE
:10255000A795979587952A95D1F72091BC0024FDE2
:1025600003C01092CF0152C0409187015091880161
:102570006091890170918A01452B462B472B69F3A5
:102580000097A105B10541F02AE22A95F1F700C0B4
:102590000197A109B109E1CF80918601C1E0C09303
:1025A0008501882399F1D091B8001091BA008091EB
:1025B000BC008A7B8093BC0060E082E10E943F0304
:1025C00060E083E10E943F031092CF01C093D101EC
:1025D0001092D00161E082E10E943F0361E083E15B
:1025E0000E943F038091B9008E7F8093B900809153
:1025F000B9008D7F8093B90088E48093B80085E4AA
:102600008093BC001093BA00D093B800DF91CF91B3
:102610001F9108950F931F93CF93DF93CDB7DEB72C
:10262000A0970FB6F894DEBF0FBECDBF1F928DE707
:102630008F931F921F9287E08F9380ED8F938CE48E
:1026400091E09F938F931F9280E28F938E010F5F93
:102650001F4F1F930F930E94C71EC8010E94351180
:1026600081E080939E020FB6F894DEBF0FBECDBF0F
:10267000A0960FB6F894DEBF0FBECDBFDF91CF910D
:102680001F910F910895CF92DF92EF92FF920F93D7
:102690001F93CF93DF93CDB7DEB72C970FB6F89487
:1026A000DEBF0FBECDBF2091000130910101281780
:1026B000390709F451C090930101809300019E01F4
:1026C0002F5F3F4F690197FF56C062E671E0C90175
:1026D0000E94C01E60916F03709170036054710975
:1026E000F12CE12C0CE010E020E430E050E040E080
:1026F0008FE094E00E94A20781E0809323048093FE
:1027000024048FEF97E09093220480932104909308
:10271000200480931F04F60101900020E9F731970F
:10272000EC19FD0980916F0390917003029746E0C8
:102730004E9F90014F9F300D1124821B930B90935D
:102740001C0480931B0482E090E090931E0480930D
:102750001D04C6010E9428112C960FB6F894DEBF06
:102760000FBECDBFDF91CF911F910F91FF90EF90E2
:10277000DF90CF9008959F938F9389E691E09F9388
:102780008F931F928CE08F933F932F930E94C71ECD
:102790000FB6F894DEBF0FBECDBF9CCF1F920F9235
:1027A0000FB60F9211242F933F938F939F93AF9364
:1027B000BF938091670390916803A0916903B091E2
:1027C0006A033091660323E0230F2D3758F50196F5
:1027D000A11DB11D20936603809367039093680346
:1027E000A0936903B0936A0380916B0390916C038B
:1027F000A0916D03B0916E030196A11DB11D809350
:102800006B0390936C03A0936D03B0936E03BF9121
:10281000AF919F918F913F912F910F900FBE0F908D
:102820001F90189526E8230F0296A11DB11DD2CF47
:102830001F920F920FB60F9211242F933F934F9335
:102840005F936F937F938F939F93AF93BF93EF9318
:10285000FF9381E793E00E949104FF91EF91BF9174
:10286000AF919F918F917F916F915F914F913F9128
:102870002F910F900FBE0F901F9018951F920F92DF
:102880000FB60F9211242F938F939F93EF93FF9383
:10289000E0918103F09182038081E0918703F091C0
:1028A000880382FD1BC0908180918A038F5F8F73A4
:1028B00020918B03821741F0E0918A03F0E0EF58FA
:1028C000FC4F958F80938A03FF91EF919F918F9199
:1028D0002F910F900FBE0F901F9018958081F4CF0D
:1028E0001F920F920FB60F9211242F933F934F9385
:1028F0005F936F937F938F939F93AF93BF93EF9368
:10290000FF938091B900887F803609F44AC0F0F5C2
:10291000883209F4A5C018F5803109F499C0B8F4DB
:10292000882309F4F5C0883009F492C0FF91EF9133
:10293000BF91AF919F918F917F916F915F914F91D7
:102940003F912F910F900FBE0F901F9018958831D7
:1029500009F486C0803251F78093CE0114C08034D0
:1029600009F49BC040F48033B9F38833F9F68093BF
:10297000CE0185ECAEC0803509F483C0883509F4FA
:1029800094C0883499F60E949512D0CF883909F402
:102990008AC038F5883729F050F4883611F080372E
:1029A00029F683E08093CF011092CD0155C088387D
:1029B00009F479C0803919F0803809F0B7CF8091D7
:1029C000CD01803208F06FC0E091CD0181E08E0F23
:1029D0008093CD018091BB00F0E0E355FE4F8083F2
:1029E0003BC0803B39F0D0F4803A09F477C0883A94
:1029F00009F09CCF84E08093CF011092AC0110923B
:102A0000AB01F0E0E0E009958091AB0181110FC0CE
:102A100081E08093AB0110928B0109C0803C09F4E6
:102A2000A8CF883C09F4A5CF883B09F07FCFE0917F
:102A3000AC0181E08E0F8093AC01F0E0E557FE4FD2
:102A400080818093BB009091AC018091AB0129C043
:102A50008091F4018093BB0085EC8093BC0066CF2D
:102A60009091F3018091F201981758F5E091F301EC
:102A700081E08E0F8093F301F0E0EE52FE4F8081F3
:102A8000E9CFE091F30181E08E0F8093F301809113
:102A9000BB00F0E0EE52FE4F80839091F3018091F5
:102AA000F2019817C8F285E8D8CFE091F30181E0F0
:102AB0008E0F8093F3018091BB00F0E0EE52FE4F49
:102AC00080838091D10181115ECF81E08093D0011C
:102AD00084EA8093BC001092CF0128CF85EC8093CC
:102AE000BC001092CF018091CD01803230F4E09192
:102AF000CD01F0E0E355FE4F10826091CD0170E012
:102B00008DEA91E0F0E0E0E009951092CD010ECF62
:102B10001092CE0138CFE1E7F3E01382128288EE03
:102B200093E0A0E0B0E084839583A683B7838EE032
:102B300091E09183808385EC90E09587848784EC95
:102B400090E09787868780EC90E0918B808B81EC7A
:102B500090E0938B828B82EC90E0958B848B86EC5B
:102B600090E0978B868B118E128E138E148EAFE0B1
:102B7000B4E013961C921E92129720EF30E0159647
:102B80003C932E93149780E491E017969C938E9338
:102B9000169719963C932E9318971B969C938E9399
:102BA0001A9756961C9256971D961C921E921C9729
:102BB0001F961C921E921E9781E055968C935597F6
:102BC00054968C9354972FEF3FEF53963C932E934C
:102BD000529751963C932E93509757968C935797B4
:102BE00058961C9258975A961C921E925997D596B1
:102BF0001C92D59788E0D6968C93D6978AE0D79684
:102C00008C93D79789E0D8968C93D897DA961C92B4
:102C10001E92D997DC961C921E92DB97DD961C9231
:102C2000DD97DE961C92DE9710924E0410924F04B0
:102C300010925004109251048EE094E090969C9370
:102C40008E935F97ECE1F6E0E491F0E0EE0FFF1F6A
:102C5000E75FF94F859194915E969C938E935D9773
:102C6000EEEFF5E08491D3968C93D397EDE1F6E007
:102C7000E491F0E0EE0FFF1FE75FF94F25913491EB
:102C80005C963C932E935B97EFEFF5E0E491D19641
:102C9000EC93D197E095D296EC93D297E82FE095FC
:102CA000D496EC93D49780E291E08D939C93089511
:102CB000CF93DF93CDB7DEB72E970FB6F894DEBF74
:102CC0000FBECDBF789484B5826084BD84B5816029
:102CD00084BD85B5826085BD85B5816085BD8091E7
:102CE0006E00816080936E0010928100809181005F
:102CF0008260809381008091810081608093810057
:102D0000809180008160809380008091B100846018
:102D10008093B1008091B00081608093B000809179
:102D20007A00846080937A0080917A008260809338
:102D30007A0080917A00816080937A0080917A0095
:102D4000806880937A001092C100E0918103F09135
:102D5000820382E08083E0917D03F0917E03108204
:102D6000E0917F03F09180038FE1808310928903CB
:102D7000E0918503F091860386E08083E0918303F0
:102D8000F0918403808180618083E0918303F091DE
:102D90008403808188608083E0918303F0918403C1
:102DA000808180688083E0918303F0918403808137
:102DB0008F7D808340E050E0BA018FE094E00E9474
:102DC0006A1163E08FE094E00E94CE0A70E060E058
:102DD0008FE094E00E94460F509117044091180430
:102DE00050936F03409370038091190490911A04DB
:102DF00090937702809376020C979093E2028093EF
:102E0000E102252F342F37FF02C0215F3F4F54E0EE
:102E1000359527955A95E1F730937B0220937A02F6
:102E200022503109309379022093780266E070E0F5
:102E30000E94231E70939D0260939C026134710571
:102E400034F080E490E090939D0280939C02009186
:102E50009C0210919D02C8010230110514F482E019
:102E600090E001976C01F12CE12C812C912C540104
:102E70001A8219824EEF742E29813A812017310768
:102E80009CF5C501B401A70196010E94371E822F4F
:102E90002F3F3105410551052CF1672D621B262F6F
:102EA0008FEFE981FA81EE0FFF1FEA50FE4F90E0AD
:102EB000982F88278827987F78E0279F90011124F2
:102EC000207E3770822B932B9183808389819A8116
:102ED00001969A8389839EEF890E91E0991EA11C29
:102EE000B11CCACF2FEFDDCF8FE691E00E943511E4
:102EF0008FEF9FEF0E9443131D8281E793E00E94B2
:102F000071049A838983892B09F446C081E793E091
:102F10000E944F048E3F60F0809365038E3F31F432
:102F200080E18093640310926303E7CF80E2F9CFDE
:102F300020916403222309F3E091630391E09E0F43
:102F400090936303F0E0ED5BFC4F80832913D5CFB2
:102F500080916503E3E4F3E0A3EEB2E08F3F71F408
:102F6000A3E0B3E0819190E08D939D9323E633E05D
:102F70002E173F07B9F762E06D830BC0819190E097
:102F80008D939D9343E553E04E175F07B9F751E0EA
:102F90005D8310926403B1CF7D81713009F087C1E8
:102FA00080919E02811102C00E940A1380919F02AB
:102FB0009091A002019721F081E090E00E94FA1028
:102FC000B3EE2B2EB2E03B2E1CE7812E12E0912EA9
:102FD0003E822D82512C412CED81FE818191919177
:102FE000FE83ED83880F991F039666E070E00E94D0
:102FF000231E77FD64C020919C0230919D0238878A
:103000002F836217730714F478876F83F401C080ED
:10301000D1802F8138852C153D0509F485C080911C
:103020007A0290917B0220917802309179025C01C2
:10303000A21AB30AB7FE03C04FEFA41AB40AB5949C
:10304000A794849DA001859D500D949D500D112441
:10305000A40EB51E6F817885C6016C157D0594F1AF
:10306000880F991FFC01EA50FE4F3F01F301E190E8
:10307000F1903F01FFEFCF1ADF0A209178023091E3
:10308000790246EF51E046195709CA01880F991F86
:10309000480F591F8091760290917702480F591F6F
:1030A0004F5F5F4F05E010E0B5018FE094E00E94B4
:1030B00027082F8138852C153D05C1F630C01886AC
:1030C0001F82A4CF4F815885841B950B8F3F91059C
:1030D00031F02CF0B6016F5F710978876F83C601FC
:1030E000EF81F8858E1B9F0BF6E0F89F8001F99F1A
:1030F000100D11246AEFA6016403F001659FF00D25
:1031000011248091760290917702AF01480F591FE8
:10311000F12CE12CB5018FE094E00E9427082F816B
:103120003885F401318320833FEF431A530A42E08C
:10313000840E911C50E14516510409F04DCF6FEFFC
:103140007FEF7E836D8383E090E0F10121913191E7
:103150001F01821793072CF4C90129813A813E830C
:103160002D8349815A814F5F5F4F5A834983403194
:10317000510559F76D817E816F3F760709F486C04E
:103180008B010F5F1F4FB801012E000C880B990BAC
:103190000E94F11C6B017C018D819E8101978E3014
:1031A000910508F061C0880F991FFC01ED51FD4F9A
:1031B00060817181072E000C880B990B0E94F11C15
:1031C0004B015C01000F111FF801ED51FD4F6081B3
:1031D0007181072E000C880B990B0E94F11C6983EA
:1031E0007A838B839C83ED81FE81EE0FFF1FED516F
:1031F000FD4F60817181072E000C880B990B0E9496
:10320000F11C9B01AC010E94D61B9B01AC01C501C6
:10321000B4010E94D51B29813A814B815C810E94B7
:10322000D61B2B013C0120E030E0A9010E94421C8A
:1032300087FF1AC029813A814B815C81C501B401A5
:103240000E94D51B20E030E040E05FE30E94A61D15
:10325000A30192010E94471C9B01AC01C701B6016A
:103260000E94D61B6B017C0120E030E04AEF52E463
:10327000C701B6010E94A61D20E030E040E05FE3F8
:103280000E94D61B0E94B91C7E836D838D819E8116
:103290000E94431380E090E0892B09F42DCE0E9418
:1032A0007D04882309F428CE0E94000025CEFD81EC
:1032B000F23081F780919E02811102C00E940A13B0
:1032C00080919F029091A002029721F082E090E00D
:1032D0000E94FA102090E1023090E20237FE03C013
:1032E0002FEF221A320A35942794C10102973CE04D
:1032F000230E311C42EA52E058874F8360916F03DE
:10330000709170036B5371407E836D8377FF04C0AF
:103310006F5F7F4F7E836D83ED81FE81F595E7952D
:10332000FE87ED871E821D829C01990F440B550B71
:1033300029873A874B875C876D817E817595679574
:103340006F31710509F015C140914103509142035D
:1033500040585109052E000C660B770B9A01AB0102
:10336000220F331F441F551F21387FEF37074707B0
:10337000570724F421E83FEF4FEF5FEF2038310586
:103380004105510524F02FE730E040E050E0698529
:103390007A858B859C850E94131E2FE730E040E0E4
:1033A00050E00E94371ED22EE22EF32E8091A10211
:1033B000882309F4E7C1EF81F8858081082E000C8D
:1033C000990BE816F90609F094C12D813E812F5F13
:1033D0003F4F3E832D834F8158854F5F5F4F588706
:1033E0004F836D857E856B5F7F4F7E876D872F3323
:1033F000310509F0A1CF71E07093A10283E0C82EDE
:1034000083E0D82E23E433E0F60160E070E0CB01E6
:10341000419151914A01550FAA08BB08680D791DC9
:103420008A1D9B1D2E173F0799F720E230E040E0F0
:1034300050E00E94371E8901F12CE12C612C712C87
:10344000812C912C212C312CA12CB12C80E0F90164
:103450003497FE83ED83F6010280F381E02DF88737
:10346000EF832D813E81E217F3070CF499C1882385
:1034700009F43FC0E017F107E4F1F6018080918084
:10348000B80168197909072E000C880B990B0E9466
:10349000F11C2B013C016F81788568197909072E91
:1034A000000C880B990B0E94F11C9B01AC01C3011D
:1034B000B2010E94471C2B013C01B7010F2C000CEC
:1034C000880B990B0E94F11C9B01AC01C301B20156
:1034D0000E94D61B3B014C0129813A81232B11F418
:1034E0001B015C0149815A814F5F5F4F5A834983B9
:1034F00080E05FEFE51AF50A62E0C60ED11C7FE1BD
:10350000E716F10409F0A7CF89819A8102970CF49C
:1035100049C19301A401B101C5010E94A11D87FF0A
:1035200041C169817A8161507109072E000C880BB5
:10353000990B0E94F11C20E030E04AE755E40E941C
:10354000A61D6B017C019101A501B301C4010E947C
:10355000D51B9B01AC01C701B6010E94471C20E0AE
:1035600030E040E05FE30E94D61B0E94B91CCB0113
:103570008FCEFB01EE0FFF1FED5FFC4F40815181AD
:10358000405851093D8130FFE5CECB01019616161A
:10359000170614F061E070E0660F771FFB01EF5F24
:1035A000FC4F8080918060E8861A9108092C000CFD
:1035B000AA08BB08FC01EE0FFF1FED5FFC4F019056
:1035C000F081E02DE058F1098F31910514F08EE182
:1035D00090E0880F991FDC01AB5FBC4F4D905C9071
:1035E00070E8471A5108052C000C66087708750129
:1035F0006401CC0CDD1CEE1CFF1C9A01ABEFBFEF8D
:103600000E94561E6C0D7D1D8E1D9F1D8F010F2E5D
:10361000000C220B330B68017901A2E0CC0CDD1CFD
:10362000EE1CFF1CAA95D1F7C60ED71EE81EF91E88
:10363000C418D508E608F708CA01052E000CAA0B25
:10364000BB0B62E0880F991FAA1FBB1F6A95D1F7B9
:10365000081919092A093B09800F911FA21FB31FDE
:10366000880F991FAA1FBB1F8C0D9D1DAE1DBF1D6E
:103670006C017D01CC0CDD1CEE1CFF1C23E030E056
:10368000DA010E946D1E9B01AC01281939094A0913
:103690005B0949015A019F01ADEFBFEF0E94561E21
:1036A000680D791D8A1D9B1D640D751D861D971D56
:1036B0006C0D7D1D8E1D9F1D20E130E040E050E02F
:1036C0000E94371E21386FEF36074607560724F44D
:1036D00021E83FEF4FEF5FEFBA01A90140385105F4
:1036E000610571050CF436CE4FE750E060E070E004
:1036F00031CE232F2095221F2227221F392F331F3F
:103700003327331F321761F1F7FC19C08E159F055F
:103710007CF4AC014F5F5F4F00EE17E09701B10101
:103720008D859E850E943808EF81F885D0824DCE28
:10373000A7014F5F5F4F10E000E09C01F0CFE8165B
:10374000F9063CF49C012150310900EE17E0A70175
:10375000E6CF97012150310910E000E0AC01DFCF46
:103760009C0197FF02C020E030E0AC01181619065A
:1037700014F450E040E010E000E0B1018D859E853A
:103780000E9438089701F7FE02C020E030E0A70150
:103790001E141F0414F450E040E000EE17E0BFCF09
:1037A00081E0A7CE8FEF9FEF73CD5058BB27AA279C
:1037B0000E94ED1B0C94671D0E94591D38F00E9459
:1037C000601D20F039F49F3F19F426F40C94561D27
:1037D0000EF4E095E7FB0C94501DE92F0E94781D34
:1037E00058F3BA17620773078407950720F079F436
:1037F000A6F50C949A1D0EF4E0950B2EBA2FA02D71
:103800000B01B90190010C01CA01A0011124FF278D
:10381000591B99F0593F50F4503E68F11A16F04088
:10382000A22F232F342F4427585FF3CF4695379587
:103830002795A795F0405395C9F77EF41F16BA0B4C
:10384000620B730B840BBAF09150A1F0FF0FBB1FFA
:10385000661F771F881FC2F70EC0BA0F621F731F43
:10386000841F48F4879577956795B795F7959E3FA0
:1038700008F0B0CF9395880F08F09927EE0F979531
:10388000879508950E942C1D08F481E008950E94F8
:103890005B1C0C94671D0E94601D58F00E94591D0E
:1038A00040F029F45F3F29F00C94501D51110C9405
:1038B0009B1D0C94561D0E94781D68F39923B1F34B
:1038C000552391F3951B550BBB27AA276217730746
:1038D000840738F09F5F5F4F220F331F441FAA1FDA
:1038E000A9F335D00E2E3AF0E0E832D09150504096
:1038F000E695001CCAF72BD0FE2F29D0660F771F44
:10390000881FBB1F261737074807AB07B0E809F029
:10391000BB0B802DBF01FF2793585F4F3AF09E3FAE
:10392000510578F00C94501D0C949B1D5F3FE4F3FF
:10393000983ED4F3869577956795B795F7959F5FF1
:10394000C9F7880F911D9695879597F90895E1E03D
:10395000660F771F881FBB1F621773078407BA079C
:1039600020F0621B730B840BBA0BEE1F88F7E095F7
:1039700008950E94C01C6894B1110C949B1D089579
:103980000E94801D88F09F5798F0B92F9927B75152
:10399000B0F0E1F0660F771F881F991F1AF0BA95F3
:1039A000C9F714C0B13091F00E949A1DB1E008959A
:1039B0000C949A1D672F782F8827B85F39F0B93F8C
:1039C000CCF3869577956795B395D9F73EF49095A6
:1039D0008095709561957F4F8F4F9F4F0895E89424
:1039E00009C097FB3EF490958095709561957F4F47
:1039F0008F4F9F4F9923A9F0F92F96E9BB279395F5
:103A0000F695879577956795B795F111F8CFFAF404
:103A1000BB0F11F460FF1BC06F5F7F4F8F4F9F4F35
:103A200016C0882311F096E911C0772321F09EE893
:103A3000872F762F05C0662371F096E8862F70E0F9
:103A400060E02AF09A95660F771F881FDAF7880FD3
:103A50009695879597F90895990F0008550FAA0B29
:103A6000E0E8FEEF16161706E807F907C0F0121691
:103A70001306E407F50798F0621B730B840B950B94
:103A800039F40A2661F0232B242B252B21F40895E9
:103A90000A2609F4A140A6958FEF811D811D089586
:103AA00097F99F6780E870E060E008959FEF80ECF1
:103AB000089500240A941616170618060906089594
:103AC00000240A9412161306140605060895092EFA
:103AD0000394000C11F4882352F0BB0F40F4BF2B69
:103AE00011F460FF04C06F5F7F4F8F4F9F4F0895A9
:103AF00057FD9058440F551F59F05F3F71F047959F
:103B0000880F97FB991F61F09F3F79F08795089583
:103B1000121613061406551FF2CF4695F1DF08C0A2
:103B2000161617061806991FF1CF869571056105BF
:103B300008940895E894BB2766277727CB0197F967
:103B400008950E942C1D08F48FEF08950E94B91D5E
:103B50000C94671D0E94591D38F00E94601D20F0D2
:103B6000952311F00C94501D0C94561D11240C94A7
:103B70009B1D0E94781D70F3959FC1F3950F50E037
:103B8000551F629FF001729FBB27F00DB11D639F0F
:103B9000AA27F00DB11DAA1F649F6627B00DA11DB5
:103BA000661F829F2227B00DA11D621F739FB00D5B
:103BB000A11D621F839FA00D611D221F749F3327CB
:103BC000A00D611D231F849F600D211D822F762F64
:103BD0006A2F11249F5750409AF0F1F088234AF041
:103BE000EE0FFF1FBB1F661F771F881F91505040AD
:103BF000A9F79E3F510580F00C94501D0C949B1D1D
:103C00005F3FE4F3983ED4F3869577956795B79533
:103C1000F795E7959F5FC1F7FE2B880F911D96954D
:103C2000879597F90895DB018F939F930E94741EE7
:103C3000BF91AF91A29F800D911DA39F900DB29F48
:103C4000900D1124089597FB072E16F4009407D0C9
:103C500077FD09D00E947F1E07FC05D03EF49095A9
:103C600081959F4F0895709561957F4F0895052E1A
:103C700097FB1EF400940E944E1E57FD07D00E9431
:103C8000931E07FC03D04EF40C944E1E50954095A5
:103C9000309521953F4F4F4F5F4F089590958095F8
:103CA000709561957F4F8F4F9F4F08950E945E1EC4
:103CB000332312F48A1B9B0B0C946F1EA29FB0013E
:103CC000B39FC001A39F700D811D1124911DB29F50
:103CD000700D811D1124911D08950E945E1EB7FF75
:103CE0000895821B930B08950E945E1EA59F900D60
:103CF000B49F900DA49F800D911D11240895AA1BBF
:103D0000BB1B51E107C0AA1FBB1FA617B70710F0C6
:103D1000A61BB70B881F991F5A95A9F780959095F8
:103D2000BC01CD010895A1E21A2EAA1BBB1BFD0107
:103D30000DC0AA1FBB1FEE1FFF1FA217B307E4078A
:103D4000F50720F0A21BB30BE40BF50B661F771FE2
:103D5000881F991F1A9469F76095709580959095C2
:103D60009B01AC01BD01CF010895EE0FFF1F05902F
:103D7000F491E02D099481E090E0F8940C94AC214A
:103D8000FB01DC0101900D920020E1F70895AEE007
:103D9000B0E0EDECFEE10C9483210D891E898F8942
:103DA000988D26E02C831A83098397FF02C080E058
:103DB00090E801979E838D83AE01455E5F4F698DCC
:103DC0007A8DCE0101960E94F71E4D815E8157FDCE
:103DD0000AC02F813885421753070CF49A01020F4D
:103DE000131FF80110822E96E4E00C949F21ABE0A3
:103DF000B0E0EDEFFEE10C9475217C013B018A01FE
:103E0000FC0117821682838181FFC8C1CE01019611
:103E10005C01F7019381F30193FD859193FF8191FB
:103E20003F01882309F453C1853239F493FD85910C
:103E300093FF81913F01853229F4B70190E00E9400
:103E4000E720E7CF912C212C312CFFE1F31538F03E
:103E50008B3211F190F4803209F1833229F137FC71
:103E60003CC020ED280F2A3050F536FE20C08AE0F5
:103E7000989E200D1124922E06C08D3291F0803331
:103E800071F7689430F8F30193FD859193FF819168
:103E90003F018111DACF21C0689431F8689432F87B
:103EA000F2CF689433F8EFCF689434F8ECCFEAE0BF
:103EB0002E9E200D1124222E689435F8E4CF8E32E8
:103EC00029F436FC04C1689436F8DDCF8C3619F439
:103ED000689437F8D8CF8836B1F2982F9F7D9554E3
:103EE0009330E0F08336A1F18337C1F1833509F0D7
:103EF00063C02801F2E04F0E511CF801C080D18050
:103F0000692D70E036FC02C06FEF7FEFC6010E94A2
:103F1000D1204C01689437F882010AC00C5F1F4F12
:103F2000FFE3F98388248394912C6501E89437F8A2
:103F300033FE2DC0522C8114910471F5552009F4E3
:103F400068CFB70180E290E00E94E7205A94F6CF54
:103F5000F801808189830E5F1F4FE4CF2801F2E0D2
:103F60004F0E511CF801C080D180692D70E036FCE5
:103F700002C06FEF7FEFC6010E94DC204C0182017E
:103F8000D5CFB70180E290E00E94E7202A94281460
:103F9000190409F0B0F7CECFF60137FC859137FE52
:103FA00081916F01B70190E00E94E72051105A946F
:103FB000F1E08F1A9108BFCF843619F0893609F0E5
:103FC00077C0F80137FE6BC0608171818281938177
:103FD0000C5F1F4FF32DFF763F2E97FF09C0909582
:103FE0008095709561957F4F8F4F9F4F689437F8FC
:103FF0002AE030E0A5010E941721C82ECA188C2C97
:10400000432C36FE0CC0E89440F8C91440F434FE4A
:1040100005C032FC03C0F32DFE7E4F2E892C44FEDA
:1040200095C0FE01EC0DF11D8081803309F087C041
:10403000242D297E422E842D8870582E43FC95C055
:1040400040FE8FC09C2C821418F42C0C922C9818D3
:1040500044FE91C0B70180E390E00E94E72042FE59
:1040600009C088E790E041FE02C088E590E0B70112
:104070000E94E720C91408F48AC0CA94D12C9FEF8B
:10408000C91AD90ACA0CDB1CF60182916F01B7016B
:1040900090E00E94E720AC14BD04B1F74FCF6081DF
:1040A0007181072E000C880B990B0E5F1F4F92CF6A
:1040B000D32CE894D4F82AE030E0853739F1232D69
:1040C000297FD22E8F3601F148F48835A9F0F70107
:1040D000868197812B96E2E10C949121803749F0FB
:1040E0008837A9F7D4FE02C06894D2F820E130E006
:1040F0000DC06894D4F8F6CF34FE03C0822F8660DA
:10410000D82E20E132E002C028E030E0F801D7FEEE
:104110000FC060817181828193810C5F1F4FA50167
:104120000E941721C82ECA183D2CE89437F867CF93
:104130006081718190E080E00E5F1F4FF0CF42FC04
:1041400002C0839478CF8394839475CF842D86782E
:1041500009F471CFF6CFB70180E290E00E94E7202A
:1041600083948214C0F3512C73CF522C58188214AC
:1041700008F46ECFF8CF842D867809F47BCF8BE2DC
:1041800041FE80E247FC8DE2B70190E071CFB701BC
:1041900080E390E00E94E7209A946CCF8FEF9FEF2E
:1041A00099CFFC010590615070400110D8F78095BF
:1041B00090958E0F9F1F0895FC01615070400190F3
:1041C0000110D8F7809590958E0F9F1F08950F933B
:1041D0001F93CF93DF93182F092FEB018B8181FD64
:1041E00009C01FEF0FEF812F902FDF91CF911F910B
:1041F0000F91089582FF14C02E813F818C819D8193
:10420000281739073CF4E881F981CF010196998399
:10421000888310838E819F8101969F838E83E3CF55
:10422000E885F985812F0995892BA1F3DACFFA0169
:10423000AA27283051F1203181F1E8946F936E7FE5
:104240006E5F7F4F8F4F9F4FAF4FB1E03ED0B4E0D6
:104250003CD0670F781F891F9A1FA11D680F791F17
:104260008A1F911DA11D6A0F711D811D911DA11D28
:1042700020D009F468943F912AE0269F1124301938
:10428000305D3193DEF6CF010895462F4770405DD3
:104290004193B3E00FD0C9F7F6CF462F4F70405D82
:1042A0004A3318F0495D31FD4052419302D0A9F7DD
:1042B000EACFB4E0A6959795879577956795BA95D7
:1042C000C9F700976105710508959B01AC010A2E9D
:1042D00006945795479537952795BA95C9F7620F74
:1042E000731F841F951FA01D08952F923F924F9218
:1042F0005F926F927F928F929F92AF92BF92CF9276
:10430000DF92EF92FF920F931F93CF93DF93CDB77E
:10431000DEB7CA1BDB0B0FB6F894DEBF0FBECDBFF6
:1043200009942A88398848885F846E847D848C84C7
:104330009B84AA84B984C884DF80EE80FD800C81D0
:104340001B81AA81B981CE0FD11D0FB6F894DEBFB3
:0C4350000FBECDBFED010895F894FFCF23
:10435C00FEFFFFFFFFFFFFFFFFFF00000000B304A5
:10436C0013044004000571044F04630400000000B2
:10437C009D0D1304F710F6109406530A210AB80980
:10438C00370978094910570BCE0AC40A5508C608D4
:10439C002708460FCE0E6F0E6A110606302D256CBF
:1043AC007520487A202028256420487A2F62617273
:1043BC0029002D2D2D20487A00256420487A00579D
:1043CC00616974696E6720666F7220646174612E16
:0443DC002E2E000081
:00000001FF
