:100000000C942A000C943F000C943F000C943F0089
:100010000C943F000C943F000C943F000C943F0064
:100020000C943F000C943F000C943F000C943F0054
:100030000C943F000C943F000C943F000C943F0044
:100040000C943F000C943F000C943F000C943F0034
:100050000C943F0011241FBECFE5D8E0DEBFCDBF1A
:1000600010E0A0E6B0E0ECEFF2E002C005900D92E7
:10007000A03AB107D9F70E943C010C947C010C9482
:10008000000082E08BB910BC8CE089B988E08AB9A5
:1000900086E880BD08955D9BFECF8CB908951F93BF
:1000A000CF93DF9300D000D000D0CDB7DEB7382F8C
:1000B000292F10E0EAE0F0E0832F922FBF010E9489
:1000C0006801DE011196A10FB11D1F5F805D8C9349
:1000D000832F922F362F272F0A9770F711110AC0FE
:1000E0000F900F900F900F900F900F90DF91CF9186
:1000F0001F9108951150FE013196E10FF11D80818D
:100100000E944B00EBCFCF93DF93EC0189918111DB
:1001100003C0DF91CF9108950E944B00F7CF80E696
:1001200087B983E886B90895369A3699FECF85B1A6
:100130000895CF93DF9300D000D0CDB7DEB79C01F8
:1001400069837A839C838B83A981BA8180E040E0B4
:1001500090E4891788F5890F4F5F6B817C816F5F11
:100160007F4F7C836B8311964F3769F4F2E0DF2E6B
:100170003D2C36941C821B82C12C8D2C912CC310DB
:100180001EC0DD0CF5CF481718F7EB81FC8190817C
:10019000B901680F711DFB015081EB81FC81508317
:1001A000FB0190839C9169817A81680F711DFB012D
:1001B00050815C939083CCCF891B9695CACF8B815D
:1001C0009C81B4010E946801DB015096AF73BB278C
:1001D000A05ABF4F7C906F737727DB01A05ABF4FA7
:1001E0008C91582F51954C2D932D940F5901A90E98
:1001F000B11CF501808109811A81090F111DF801D7
:100200006080B901640F711DA981BA81A40FB11D6D
:100210004C90FB015080F72DF80270011124962DAF
:100220005902E018F1081124EE0CEF2CEE1CFF0827
:10023000952D9E19F50190838502C0011124F301CB
:10024000FE02800D911D1124880F892F881F990BA4
:10025000942D981BF80190835E0CFB015082480E90
:100260004C924D0D47FFC0CFC394EB81FC81E05C05
:10027000FF4FFC83EB8383CFCDB7DEB7DA950FB6A4
:10028000F894DEBF0FBECDBF0E9441000E948F00D8
:100290008E010F571F4FCE0101967C015E0191E048
:1002A000A90EB91E680147010E9494008058F80108
:1002B00081938F01F70111927F01F9E2FA95F1F72D
:1002C00000C0A016B10681F7B401C6010E949900D2
:1002D000AA1BBB1B51E107C0AA1FBB1FA617B7076C
:1002E00010F0A61BB70B881F991F5A95A9F7809588
:0C02F0009095BC01CD010895F894FFCF5B
:1002FC00000C1925313C47515A626A70757A7D7E23
:10030C007F7E7D7A75706A625A51473C3125190C93
:10031C0000F4E7DBCFC4B9AFA69E96908B868382A0
:10032C00818283868B90969EA6AFB9C4CFDBE7F40F
:00000001FF
