:100000000C942A000C9447000C9447000C94470071
:100010000C9447000C9447000C9447000C94470044
:100020000C9447000C9447000C9447000C94470034
:100030000C9447000C9447000C9447000C94470024
:100040000C9447000C9447000C9447000C94470014
:100050000C94470011241FBECFE5D8E0DEBFCDBF12
:1000600010E0A0E6B0E0EAECF6E002C005900D92E8
:10007000A03AB107D9F720E0A0EAB0E001C01D9294
:10008000A03BB207E1F70E9428020C9463030C9492
:1000900000005D9BFECF8CB90895606667B923E0D0
:1000A000369A3699FECF2A95D9F720E128BFFC0170
:1000B0009C01205C3F4F40E108B604FEFDCF48BFE5
:1000C000369A3699FECF85B18058082E000C990BD0
:1000D00081939193E217F30779F708952F923F9256
:1000E0004F925F926F927F928F929F92AF92BF9248
:1000F000CF92DF92EF92FF920F931F93CF93DF93F4
:10010000CDB7DEB72E970FB6F894DEBF0FBECDBFCA
:100110001C015B01642FF22E0B871C870E944D008F
:100120003C822B82F501A101405C5F4F9501C1012A
:1001300000E010E0DC016D917D91CD01060F171FED
:10014000D9011D921D929D014817590799F76F2CEF
:10015000712C2F2D30E0D8010E945C03605F7F4F2F
:100160008F4F9F4F6B017C0145E0F594E794D79446
:10017000C7944A95D1F7810140E150E06FE7462EE0
:10018000512CDA01AE73BB27A05ABF4F8C9192015C
:10019000281B310987FD3395B901759567957A83D9
:1001A0006983D8012D913D918D01D3010E944503B2
:1001B000DC01CB018C199D09AE09BF092FE730E0A6
:1001C00080389105A105B10544F481382FEF9207DD
:1001D000A207B2070CF479C09C01A981BA810E94E0
:1001E000450327E095958795779567952A95D1F7EB
:1001F000D8017E936E934E5F5F4F4035510509F6EF
:1002000080E010E090E1891708F088C0890F1F5F37
:100210002B813C812E5F3F4F3C832B8332961F31D5
:1002200009F056C0A5E04A2E512C51E05983550FD4
:10023000612C712C462DE9816E1608F472C0F1E034
:100240004F1A510899F702E0200E311C12E0A10E5E
:10025000B11CAB85BC85AD01405E5F4FF5012191BE
:1002600031915F01F101819191911F0197FF03C0CD
:1002700091958195910937FF03C0319521953109F9
:10028000820F931F23E0969587952A95E1F78D932A
:100290009D934A175B0711F72E960FB6F894DEBFB1
:1002A0000FBECDBFDF91CF911F910F91FF90EF90C7
:1002B000DF90CF90BF90AF909F908F907F906F9086
:1002C0005F904F903F902F90089521E83FEF85CFAA
:1002D000181708F097CFA82FB0E07D01EE0CFF1C97
:1002E00091012E0D3F1DD9014D915C91AB81BC81D7
:1002F0006D917C91D9016D937C93AB81BC814D93C1
:100300005C93D701AA0DBB1D2D913C9111974081A3
:1003100051814D935C933183208374CF891B9695D3
:1003200072CFC301042C02C0880F991F0A94E2F710
:10033000FC017096EF73FF27E05AFF4F2081FC010C
:10034000EF73FF27E05AFF4F8081E82FFF27E195E9
:100350000CF4F095FC83EB83022F220F110B1E830C
:100360000D838981840F90E0880F991FF101E80FB8
:10037000F91FFE87ED870190F081E02D4501880E81
:10038000991ED4010D911C912D813E81DF010E94A7
:1003900045036B017C012B813C81D8010E94450300
:1003A000C61AD70AE80AF90A67E0F594E794D794E1
:1003B000C7946A95D1F72D813E810E9445036F83D2
:1003C000788789879A879F01AB81BC810E9445030A
:1003D0000F81188529853A85600F711F821F931F31
:1003E000E7E09595879577956795EA95D1F7E42F9E
:1003F000F0E0DF01AA0FBB1F81010A0F1B1FF801EC
:10040000208131812C193D09ED85FE8531832083C2
:10041000FD01EA0DFB1D20813181261B370BD40124
:100420002D933C93D8012D913C9111972C0D3D1D9E
:100430002D933C9320813181260F371F31832083F8
:10044000450F403208F48DCFBFEF6B1A7B0AF2CE16
:10045000CDB7DEB7C15ED1090FB6F894DEBF0FBECF
:10046000CDBF87B38C7F87BBC09AC19882E08BB920
:1004700010BC81E089B988E08AB986E880BD80E651
:1004800087B983E886B989EF90E09BBD8ABD1DBC22
:100490001CBC1FBC89E08EBD80E188BFAA24AA9441
:1004A00091E06E0121EAC20ED11C26017E0181E895
:1004B000E80EF11C86B3A82FA2703A2E81FBBB2454
:1004C000B0F8A3E08A2E81FF02C0F7E08F2E86B33A
:1004D0008170982E913071F4811148C0E4E19E2E14
:1004E000E7EAF1E63197F1F700C000009A94C1F70E
:1004F000992DE0CF81113AC06B2DCE018F5B9F4FBC
:100500000E944D00CE018F5B9F4F5C01FC0100E01B
:1005100010E081919191080F191FEE15FF05C9F7A1
:1005200075E0159507957A95E1F78FEF0E944900E0
:10053000D5018D919D915D01801B910B80589F4F3E
:100540008D3F91057CF08CEF0E944900AE14BF04F2
:1005500079F7EFE1FEE43197F1F700C00000AA243B
:10056000AA94C6CF97FFF0CF80E0EECFAB1409F48A
:1005700047C031107AC080E2D6011D928A95E9F712
:1005800060E1A62E870123E040E0BE016F5F7F4F50
:10059000CE018F5B9F4F0E946E00C7018201A701B1
:1005A000405E5F4FF201DC012D913D91CD016191E3
:1005B00071916217730730F4BF0162507109DB015A
:1005C0002D933C934817590771F7AA94D9F6E0EA9E
:1005D000F0E040E0D8012D913D918D0181E090E067
:1005E000411180E0880F991F2F5F3F4F820F931FAB
:1005F0008D3F910508F08CEF81934F5F403151F7AB
:100600008E010F531F4F282D4B2DBE016F5F7F4F63
:10061000CE018F5B9F4F0E946E008EEF0E944900BB
:10062000C801380100EA10E0DC0190964D01F301A9
:10063000819191913F01D8012D918D01422F50E080
:1006400028171906D8F4841B950B311003C081308C
:100650009105B1F08D3F9105B0F40E9449008614D8
:10066000970429F79924939443CF80E1E0EAF0E0DE
:1006700011928A95E9F7AA24A394C2CF80E0EDCF26
:1006800080E090E0EACF8CEFE8CF0E944D03332367
:1006900012F48A1B9B0B0C945E03A29FB001B39FC4
:1006A000C001A39F700D811D1124911DB29F700D7B
:1006B000811D1124911D08950E944D03B7FF0895D7
:0A06C000821B930B0895F894FFCFFE
:1006CA00000C1925313C47515A626A70757A7D7E51
:1006DA007F7E7D7A75706A625A51473C3125190CC2
:1006EA0000F4E7DBCFC4B9AFA69E96908B868382CF
:1006FA00818283868B90969EA6AFB9C4CFDBE7F43E
:00000001FF
