:100000000C942A000C943F000C943F000C943F0089
:100010000C943F000C943F000C943F000C943F0064
:100020000C943F000C943F000C943F000C943F0054
:100030000C943F000C943F000C943F000C943F0044
:100040000C943F000C943F000C943F000C943F0034
:100050000C943F0011241FBECFE5D8E0DEBFCDBF1A
:1000600010E0A0E6B0E0EAEDF0E002C005900D92ED
:10007000A837B107D9F70E945B000C946B000C9471
:10008000000082E08BB910BC8CE089B988E08AB9A5
:1000900086E880BD08955D9BFECF8CB90895CF930F
:1000A000DF93EC018991811103C0DF91CF91089515
:1000B0000E944B00F7CF0E94410080E690E00E9432
:1000C0004F002FE38DE093E0215080409040E1F716
:0A00D00000C00000F2CFF894FFCF4B
:1000DA0048454C4C4F2046524F4D2041544D4547C0
:0800EA00413332410D0A000010
:00000001FF
