:100000000C9441000C9456000C9456000C9456002D
:100010000C9456000C9456000C9456000C94560008
:100020000C9456000C9456000C9456000C945600F8
:100030000C9456000C9456000C9456000C945600E8
:100040000C9456000C9456000C9456000C945600D8
:100050000C9456007F7F7F7F7F00000000007F416F
:1000600041221C7F091929463F4038403F3E41410B
:10007000413E7F404040407F494949417F08080850
:100080007F0011241FBECFE5D8E0DEBFCDBF10E05A
:10009000A0E6B0E0E8E4F4E002C005900D92AC3DCB
:1000A000B107D9F70E94E3010C9422020C940000DE
:1000B00087B38C6B87BB80E58DB908958FB9779B2B
:1000C000FECF0895C398C4980E945E00C49A089514
:1000D000C39AC4980E945E00C49A0895C29A8FE0A1
:1000E00097E20197F1F700C00000C2988FE295E710
:1000F0000197F1F700C00000C29A9FEF2DEE82E059
:10010000915020408040E1F700C0000081E10E9452
:1001100062009FEF2DEE82E0915020408040E1F799
:1001200000C000008AE30E94620085E50E9468002A
:1001300086E30E94620088E20E94680089E20C94D3
:100140006200CF92DF92EF92FF920F931F93CF93B3
:10015000DF93D82EC92E162F072FF42EE52EE90196
:100160008AE20E9462008C2D0E9468008D2D0E9400
:1001700068008E2D0E9468008F2D0E9468008BE21F
:100180000E946200802F0E946800812F0E946800F8
:100190008D2F0E9468008C2F0E9468008CE2DF91F6
:1001A000CF911F910F91FF90EF90DF90CF900C9423
:1001B0006200CF92DF92EF92FF92CF93DF93EC0138
:1001C0002FEE30E04FE351E060E070E080E090E03F
:1001D0000E94A100C39AC498C12C8CE2D82EEE24B0
:1001E000E394F12C8D2F0E945E008C2F0E945E0004
:1001F00081E0C81AD108E108F108A1F7C49ADF919B
:10020000CF91FF90EF90DF90CF9008958052883388
:1002100048F4E82FF0E0EE0FFF1FE05AFF4F808117
:100220009181089584E590E008952F923F924F9236
:100230005F926F927F928F929F92AF92BF92CF9276
:10024000DF92EF92FF920F931F93CF93DF9300D033
:1002500000D0CDB7DEB78B839C836B01842F2983BD
:100260003A8318010E9406013C014E2C512C88E073
:10027000E89E5001112495E0E99E70011124960139
:10028000215031092A0D3B1D4B815C8141505109A0
:100290004E0D5F1DB6018B819C810E94A100C39A07
:1002A000C4981C821B8288248394912C8B819C810E
:1002B0008A159B05C4F0C49A0F900F900F900F9071
:1002C000DF91CF911F910F91FF90EF90DF90CF9032
:1002D000BF90AF909F908F907F906F905F904F9066
:1002E0003F902F9008958B819C81B2010E94FA016A
:1002F000640102C0CC0CDD1C6A95E2F700E010E05E
:10030000C801B2010E94FA01F301E60FF71FE49160
:10031000F0E0EC21FD21EF2B89F08A810E945E0044
:1003200089810E945E000F5F1F4F0E151F0544F369
:100330008B819C8101969C838B83B8CF832D0E94F7
:100340005E00822DEECF4F925F926F927F928F92DE
:100350009F92AF92BF92CF92DF92EF92FF920F9354
:100360001F93CF93DF93B62EA72E722E632E502E9F
:10037000412EFE2CEC0186E0E89E400111246A012A
:10038000F60141916F01411111C0DF91CF911F9191
:100390000F91FF90EF90DF90CF90BF90AF909F9024
:1003A0008F907F906F905F904F900895EF2C052D68
:1003B000142D272D362D6B2D7A2DCE010E9415017F
:1003C000C80DD91DDDCF0E9458000E946E0080E04C
:1003D00090E00E94D90084E0E82E00E010E02FEFCA
:1003E0003FEF40ED50E06CE370E08AE090E00E9467
:1003F000A301FFCF97FB072E16F4009407D077FDDB
:1004000009D00E940E0207FC05D03EF4909581951C
:100410009F4F0895709561957F4F0895AA1BBB1B50
:1004200051E107C0AA1FBB1FA617B70710F0A61BF4
:10043000B70B881F991F5A95A9F780959095BC0115
:08044000CD010895F894FFCFEF
:1004480059005400540054005400540054005400FF
:1004580054005400540054005400540054005400F4
:1004680054005400540054005400540054005400E4
:1004780054005400540054005400540054005400D4
:1004880054005400540054005E0077005400540097
:100498007C005400540054007200540054006D0055
:1004A8005400540063005400540054005400680081
:0C04B80048454C4C4F20574F524C44001C
:00000001FF
