:100000000C942A000C943F000C943F000C943F0089
:100010000C943F000C943F000C943F000C943F0064
:100020000C943F000C943F000C943F000C943F0054
:100030000C943F000C943F000C943F000C943F0044
:100040000C943F000C943F000C943F000C943F0034
:100050000C943F0011241FBECFE5D8E0DEBFCDBF1A
:1000600010E0A0E6B0E0ECEDF4E002C005900D92E7
:10007000A03AB107D9F70E9445000C946C020C9489
:1000800000005D9BFECF8CB90895CDB7DEB7C05997
:10009000D1090FB6F894DEBF0FBECDBFB89882E08D
:1000A0008BB910BC81E089B988E08AB986E880BD47
:1000B00080E687B981E886B981E390E09BBD8ABD7F
:1000C0001DBC1CBC1FBC89E08EBD80E188BF90E1D7
:1000D000F92E2E0121E8420E511CBE016F5F7F4FA9
:1000E0003B01F8BE8E010F5B1F4FF80108B604FEFE
:1000F000FDCFF8BE369A3699FECF85B18058082ECE
:10010000000C990B819391934E165F0679F786B395
:10011000782F7170E72E80FF13C08FEF0E9441008F
:10012000D8018D919D918D0180589F4F8D3F9105F4
:100130000CF08CEF0E9441004016510689F7D1CF98
:10014000F30180E4882E11928A94E9F7F80140E0E7
:1001500050E081919191480F591F4E165F06C9F7E3
:10016000B5E055954795BA95E1F76801E0E1F0E013
:10017000D6012D913D916D015D01B2E0AB1AB10840
:10018000DF01AE73BB27A05ABF4FAC916FE7862E3D
:10019000912C8A1A9108A7FD9394D401B595A7953F
:1001A000241B350B0E944E02A7E095958795779505
:1001B0006795AA95D1F7D5016D937C933296E0357A
:1001C000F105B1F65301D801D12C80E1E81608F011
:1001D00074C0E80ED3941296F2E0AF0EB11C8FE11A
:1001E000882ED81046C0A5E02A2E312C51E0E52EED
:1001F000550FC12CD12C4C2DCE1408F461C031E028
:10020000231A3108A1F78EEF0E94410051E4A52E78
:10021000B12CAC0EBD1E42E0A40EB11C6E0163E019
:10022000C60ED11C0E5D1F4FD6012D913D916D0163
:10023000F501819191915F0197FF03C0919581959F
:10024000910937FF03C0319521953109820F931F22
:100250009C0143E0369527954A95E1F7883E974003
:1002600008F02CEF822F0E9441000A151B05E1F6D1
:1002700038CFDE1408F0A9CF8E2D90E0880F991F9B
:100280009801280F391FF901408151816D917C91AE
:1002900011977183608311965C934E93860D971D21
:1002A000FC0120813181F50140815181FC015183A4
:1002B0004083F5013183208388CFE81A869586CF65
:1002C000C601022C02C0880F991F0A94E2F7FC01B4
:1002D0007096EF73FF27E05AFF4F2081FC01EF7308
:1002E000FF27E05AFF4F8081A82EBB24A1940CF475
:1002F000B094CB57DF4FB982A882C558D040E22FC7
:10030000220FFF0BC557DF4FF983E883CB58D0404E
:100310008E2D840F90E0880F991F71E4872E912C09
:100320008C0E9D1E880E991EC957DF4F99828882B8
:10033000C758D040D401ED91FC914301880E991E1D
:10034000C757DF4F99828882C958D040D4010D9099
:10035000BC91A02DCF57DF4FB983A883C158D0409F
:10036000C557DF4F28813981CB58D040DF010E942B
:100370004E024B015C01CB57DF4F28813981C558B4
:10038000D040CF57DF4FA881B981C158D0400E94DB
:100390004E02861A970AA80AB90AC501B40127E0D5
:1003A00095958795779567952A95D1F7C357DF4F30
:1003B000688379838A839B83CD58D040C557DF4FAC
:1003C00028813981CB58D0400E944E02CF57DF4F51
:1003D000688379838A839B83C158D0409F01CB5720
:1003E000DF4FA881B981C558D0400E944E02CF5737
:1003F000DF4F88809980AA80BB80C158D040680DAB
:10040000791D8A1D9B1D37E0959587957795679592
:100410003A95D1F7E42FF0E0DF01AA0FBB1FF1E41A
:10042000AF2EB12CAC0EBD1EAA0EBB1EF501208155
:100430003181C357DF4F88809980CD58D04028192B
:100440003909C957DF4FE881F981C758D040318356
:100450002083FD01E60DF71D20813181261B370B1E
:10046000C757DF4FA881B981C958D0402D933C931D
:10047000D5012D913C911197280D391D2D933C9359
:1004800020813181260F371F31832083450F403271
:1004900008F43ECF2FEFC21AD20AADCE0E94560208
:1004A000332312F48A1B9B0B0C946702A29FB001AA
:1004B000B39FC001A39F700D811D1124911DB29F98
:1004C000700D811D1124911D08950E945602B7FFE1
:0C04D0000895821B930B0895F894FFCF51
:1004DC00000C1925313C47515A626A70757A7D7E41
:1004EC007F7E7D7A75706A625A51473C3125190CB2
:1004FC0000F4E7DBCFC4B9AFA69E96908B868382BF
:10050C00818283868B90969EA6AFB9C4CFDBE7F42D
:00000001FF
