:100000000C9415030C943D030C943D030C943D0398
:100010000C943D030C943D030C943D030C943D0360
:100020000C943D030C943D030C943D030C943D0350
:100030000C943D030C943D030C943D030C943D0340
:100040000C94EB140C943D030C9433150C94601534
:100050000C943D030C943D030C943D030C943D0320
:100060000C94D2130C943D03000000080002010020
:100070000003040700000000000000000000000072
:10008000240027002A0001020408102040800102F9
:1000900004081020010204081020000000002500C0
:1000A00028002B00040404040404040402020202D5
:1000B0000202030303030303EF03038002CF0300E1
:1000C000C130ED0464031281E803850078CB053963
:1000D0002C003402F70120EA020000C00123C10114
:1000E00010C5023E28C701863601483701003A0193
:1000F00055B1020018B603088227F201002601015B
:10010000E00F0F312B0C0E084EF1370710030E09CC
:1001100000E10F000E1403110731C148080F0C3124
:10012000360F118029800000000000003E5B4F5B0D
:100130003E3E6B4F6B3E1C3E7C3E1C183C7E3C188A
:100140001C577D571C1C5E7F5E1C00183C1800FF6E
:10015000E7C3E7FF0018241800FFE7DBE7FF30489C
:100160003A060E2629792926407F050507407F0596
:10017000253F5A3CE73C5A7F3E1C1C08081C1C3E8D
:100180007F14227F22145F5F005F5F06097F017F7B
:10019000006689956A606060606094A2FFA294081E
:1001A000047E040810207E201008082A1C08081C61
:1001B0002A08081E101010100C1E0C1E0C30383EA1
:1001C0003830060E3E0E06000000000000005F0002
:1001D000000007000700147F147F14242A7F2A12CE
:1001E00023130864623649562050000807030000B4
:1001F0001C2241000041221C002A1C7F1C2A0808E6
:100200003E080800807030000808080808000060F8
:10021000600020100804023E5149453E00427F40E4
:100220000072494949462141494D331814127F1043
:1002300027454545393C4A4949314121110907368D
:1002400049494936464949291E000014000000402A
:100250003400000008142241141414141400412224
:10026000140802015909063E415D594E7C121112D3
:100270007C7F494949363E414141227F4141413ECF
:100280007F494949417F090909013E414151737F35
:100290000808087F00417F41002040413F017F085E
:1002A0001422417F404040407F021C027F7F0408AF
:1002B000107F3E4141413E7F090909063E415121DF
:1002C0005E7F09192946264949493203017F010306
:1002D0003F4040403F1F2040201F3F4038403F6389
:1002E0001408146303047804036159494D43007FE3
:1002F0004141410204081020004141417F040201B4
:100300000204404040404000030708002054547855
:10031000407F284444383844444428384444287FA3
:10032000385454541800087E090218A4A49C787FFD
:100330000804047800447D40002040403D007F10C8
:1003400028440000417F40007C047804787C080445
:1003500004783844444438FC1824241818242418F9
:10036000FC7C08040408485454542404043F4424E6
:100370003C4040207C1C2040201C3C4030403C4401
:10038000281028444C9090907C4464544C440008BD
:1003900036410000007700000041360800020102EB
:1003A00004023C2623263C1EA1A161123A404020B3
:1003B0007A3854545559215555794122545478422C
:1003C000215554784020545579400C1E52721239F0
:1003D00055555559395454545939555454580000A9
:1003E000457C410002457D420001457C407D121163
:1003F000127DF0282528F07C545545002054547C6B
:10040000547C0A097F4932494949323A4444443AC2
:10041000324A4848303A4141217A3A4240207800F5
:100420009DA0A07D3D4242423D3D4040403D3C2498
:10043000FF2424487E4943662B2FFC2F2BFF0929DC
:10044000F620C0887E090320545479410000447D81
:10045000413048484A32384040227A007A0A0A72CB
:100460007D0D19317D2629292F2826292929263075
:10047000484D4020380808080808080808382F1098
:10048000C8ACBA2F102834FA00007B000008142AE8
:10049000142222142A14085500550055AA55AA55AD
:1004A000AAFF55FF55FF000000FF00101010FF00CD
:1004B000141414FF001010FF00FF1010F010F014BF
:1004C0001414FC001414F700FF0000FF00FF1414C4
:1004D000F404FC141417101F10101F101F14141410
:1004E0001F00101010F0000000001F101010101F4F
:1004F00010101010F010000000FF1010101010105D
:10050000101010FF10000000FF140000FF00FF009B
:10051000001F10170000FC04F41414171017141413
:10052000F404F40000FF00F714141414141414F766
:1005300000F7141414171410101F101F141414F4BF
:10054000141010F010F000001F101F0000001F1406
:10055000000000FC140000F010F01010FF10FF1459
:100560001414FF141010101F00000000F010FFFF03
:10057000FFFFFFF0F0F0F0F0FFFFFF0000000000D1
:10058000FFFF0F0F0F0F0F3844443844FC4A4A4A0C
:10059000347E02020606027E027E026355494163F2
:1005A0003844443C04407E201E2006027E0202990C
:1005B000A5E7A5991C2A492A1C4C7201724C304AA5
:1005C0004D4D303048784830BC625A463D3E49492E
:1005D00049007E0101017E2A2A2A2A2A44445F44D6
:1005E0004440514A444040444A51400000FF010306
:1005F000E080FF000008086B6B08361236243606D0
:100600000F090F06000018180000001010003040FD
:10061000FF0101001F01011E00191D1712003C3CC3
:100620003C3C0000000000004A1A11241FBECFEF1E
:10063000D8E0DEBFCDBF11E0A0E0B1E0E6ECF1E430
:1006400002C005900D92A438B107D9F724E0A4E8C0
:10065000B1E001C01D92A335B207E1F713E0C5E197
:10066000D3E004C02197FE010E949E1BC431D10734
:10067000C9F70E9486150C94E1200C94000080E0DC
:1006800090E0089508952F923F924F925F926F925B
:100690007F928F929F92AF92BF92CF92DF92EF9212
:1006A000FF920F931F93CF93DF9300D000D000D021
:1006B000CDB7DEB71C01CB015A012D833E83680103
:1006C000EB82FC827801E41AF50AF7FE03C07A0196
:1006D000E01AF10A8D809E80881A990A97FE05C05B
:1006E0004C012D813E81821A930A8E149F045CF086
:1006F0003C2D2D2DCD80DE803D832E833A2D2B2D5C
:100700005C01832F922FCA14DB045CF03D812E81A3
:100710009E838D83832F922F3C2D2D2D6501A32E3B
:10072000B22E35016C187D082C01AD81BE814A1AAC
:100730005B0A57FE03C02D01481A590A830177FE50
:1007400002C00F5F1F4F159507952D813E81281719
:1007500039070CF445C08FEF9FEF9A838983AC145F
:10076000BD04CCF40F900F900F900F900F900F904E
:10077000DF91CF911F910F91FF90EF90DF90CF907D
:10078000BF90AF909F908F907F906F905F904F90B1
:100790003F902F900895D101ED91FC910484F5854F
:1007A000E02D2B813C81A6016D817E818E149F04FA
:1007B0001CF04D815E81B601C1010995041915092E
:1007C00017FF0AC02D813E8189819A81280F391F28
:1007D0003E832D83060D171D9FEFC91AD90ABFCF7F
:1007E000A1E0B0E0BA83A983BACF0895DC01ED910E
:1007F000FC910084F185E02D09940F931F93DC0197
:10080000ED91FC91048CF58DE02D09951F910F91D0
:1008100008950F931F93DC01ED91FC91068CF78DE9
:10082000E02D09951F910F910895EF92FF920F937C
:100830001F93DC01ED91FC9100A0F1A1E02D099541
:100840001F910F91FF90EF9008958F929F92AF921A
:10085000BF92CF92DF92EF92FF920F931F93CF93AD
:10086000DF93EC014B015A0169017801E881F981BC
:100870000284F385E02D0995CA0CDB1C860101502A
:100880001109E881F9810488F589E02D9401A50119
:10089000B401CE010995E881F9810688F789E02D38
:1008A000CE01DF91CF911F910F91FF90EF90DF90DC
:1008B000CF90BF90AF909F908F9009948F929F920E
:1008C000AF92BF92CF92DF92EF92FF920F931F935E
:1008D000CF93DF93EC015B014A0169017801E88164
:1008E000F9810284F385E02D0995CA0CDB1C960181
:1008F00021503109E881F9810488F589E02D8401CE
:10090000A401B501CE010995E881F9810688F7892E
:10091000E02DCE01DF91CF911F910F91FF90EF90CD
:10092000DF90CF90BF90AF909F908F9009944F929F
:100930005F926F927F928F929F92AF92BF92CF926F
:10094000DF92EF92FF920F931F93CF93DF93EC010F
:100950002B01942E852E5901702E612EE881F9818C
:100960000284F385E02D09956201A40CB51CE88191
:10097000F981CA14DB04ACF00688F789E02DCE01BA
:10098000DF91CF911F910F91FF90EF90DF90CF906B
:10099000BF90AF909F908F907F906F905F904F909F
:1009A00009940088F189E02D8701272D362D492DE6
:1009B000582DB601CE0109958FEFC81AD80AD7CFA6
:1009C000EF92FF920F931F93DC017B011A960D911A
:1009D0001C911B9718962D913C911997ED91FC91C4
:1009E00000A0F1A1E02D40E050E060E070E009954A
:1009F0001F910F91FF90EF9008956F927F928F92C9
:100A00009F92AF92BF92CF92DF92EF92FF920F939D
:100A10001F93CF93DF935C01EB016A014901380119
:100A20008701DC01ED91FC916217730719F56416DB
:100A300075062CF0962D872D3A01C92ED82EC61892
:100A4000D70896012F5F3F4F048CF58DE02DA30151
:100A5000BE01C5010995DF91CF911F910F91FF90C4
:100A6000EF90DF90CF90BF90AF909F908F907F904E
:100A70006F9008954615570591F42617370724F00F
:100A8000892D4B01C22FD82FC819D9099E012F5F7C
:100A90003F4F068CF78DE02DA601B401DACF02841A
:100AA000F385E02D0995D501ED91FC910488F58938
:100AB000E02D83019401A601BE01C5010995D50170
:100AC000ED91FC910688F789E02DC501DF91CF916A
:100AD0001F910F91FF90EF90DF90CF90BF90AF905C
:100AE0009F908F907F906F9009946F927F928F92DA
:100AF0009F92AF92BF92CF92DF92EF92FF920F93AD
:100B00001F93CF93DF93EC016B015A013901480128
:100B1000E881F9810284F385E02D0995E881F98166
:100B20000288F389E02D87019301A501B601CE016A
:100B30000995A501480D591D41505109E881F981D8
:100B40000288F389E02D9301B601CE010995E88171
:100B5000F9810088F189E02D9401A501B601CE014B
:100B60000995C60CD71CB60161507109E881F9815D
:100B70000088F189E02D9401A501CE010995E88155
:100B8000F9810688F789E02DCE01DF91CF911F9181
:100B90000F91FF90EF90DF90CF90BF90AF909F901C
:100BA0008F907F906F9009942F923F924F925F9217
:100BB0006F927F928F929F92AF92BF92CF92DF926D
:100BC000EF92FF920F931F93CF93DF93CDB7DEB7D2
:100BD0006B970FB6F894DEBF0FBECDBF8A8F9B8F89
:100BE0001B014A01D22E0A831B833701A982AA8DD9
:100BF000BB8D59962D913C915A972115310509F0DD
:100C00001CC118968D919C911997681779070CF063
:100C1000D2C11A968D919C91481759070CF0CBC1FF
:100C2000EC2DF0E0FD83EC839B0146E0C49E200D9B
:100C3000311D11243D872C87121613060CF0BBC101
:100C40008A2D90E09F878E87E8E0AE9ED001112428
:100C5000B98BA88BCD01880D991D181619060CF0BB
:100C6000AAC1EA8DFB8D808D811104C0F0EBDF16E7
:100C700008F0D394AA8DBB8DED91FC91119702845D
:100C8000F385E02DCD010995B5E0DB9EC00111246F
:100C9000FC01E95DFE4FFB87EA8751012C2D30E016
:100CA0003B8B2A8BC1010596998F888F3F822E82BC
:100CB000B981AB2FB0E0BF8BAE8BF4013896FD8BC2
:100CC000EC8BEA85FB85D490240199868886AA8DD1
:100CD000BB8DED91FC91D0FE88C0B1E0CB1274C009
:100CE0002981213009F070C00484F585E02D2A8126
:100CF0003B81A201B5018A8D9B8D0995D694BFEFEA
:100D00004B1A5B0AE885F9852E893F89E20FF31FAC
:100D1000F987E8878C899D8984159505C1F6AA8590
:100D2000BB851196BB87AA87BFEFAB1ABB0AEE81C2
:100D3000FF812A893B89E20FF31FFF83EE83888DB1
:100D4000998DA816B90609F0BCCFAA81BB81A6155A
:100D5000B705C1F0AA8DBB8DED91FC91B1E0CB122E
:100D60005AC02981213009F056C0B1016B5F7F4F15
:100D70000088F189E02D830128E030E0A4018A8D0C
:100D80009B8D0995AA8DBB8DED91FC9111970688DD
:100D9000F789E02DCD016B960FB6F894DEBF0FBE3C
:100DA000CDBFDF91CF911F910F91FF90EF90DF901A
:100DB000CF90BF90AF909F908F907F906F905F90FB
:100DC0004F903F902F9009940684F785E02DEA809C
:100DD000FB800E851F852C813D81488559856E815C
:100DE0007F818A8D9B8D099589CF8A819B8186150C
:100DF000970509F483CF91E0C91208C0A981A130F9
:100E000029F40484F585E02D930173CF0684F785DA
:100E1000E02D7301DECF6C857D858C819D81681B03
:100E2000790B0684F785E02D7301088919899C01E7
:100E3000A4018A8D9B8D0995A5CFF90134969491D3
:100E4000329745915591D91AB7E0DB9E400D511D5F
:100E50001124F901259135913F872E87FA0145909C
:100E60005590FA013296B49031963491388B32967F
:100E700064903196149189818C29823008F445C0A0
:100E8000862D062C000C990B9F838E83A12F012E9B
:100E9000000CBB0BB987A887AA8DBB8DED91FC9187
:100EA00011970284F385E02DCD0109951C82D12C88
:100EB000712CF981EF2FF0E0FB8BEA8B90E0C88E6C
:100EC000A92E9401210F311D17FD3A953D8B2C8BD6
:100ED000C101860D911D67FC9A959F8B8E8BE889C9
:100EE0007E1608F04FCF28853985270D311DF981F1
:100EF000F29FC001F39F900D11249C01280D391D14
:100F00003B872A878C81612C34C0198618861F8202
:100F10001E82C2CF91E0980F9C878770811108C014
:100F2000C2010196EE85FF85E40DF51DD4902C01DC
:100F3000D7FE1CC0AA8DBB8DED91FC91662D70E093
:100F4000B1E0CB121DC029812130D1F48E899F8957
:100F5000680F791F0484F585E02D2A813B814C8937
:100F60005D89470D511D8A8D9B8D0995DD0C63941C
:100F70008C856B1478F2BC81BB0DBC837394AFCFAE
:100F8000AE81BF816A0F7B1FC69EC001C79E900DB8
:100F90001124BC01620D731D0684F785E02DEA80E3
:100FA000FB800A891B89288D3A2D4A855B858A8DAD
:100FB0009B8D0995DBCF6B960FB6F894DEBF0FBE05
:100FC000CDBFDF91CF911F910F91FF90EF90DF90F8
:100FD000CF90BF90AF909F908F907F906F905F90D9
:100FE0004F903F902F9008958F929F92AF92CF9203
:100FF000EF92FF920F931F93CF93DF93EC01262F75
:10100000898D9A8D009709F051C06A30D1F41D8600
:101010001C862D8988E0289F900111248E859F854C
:10102000820F931F9F878E8781E090E0DF91CF91A1
:101030001F910F91FF90EF90CF90AF909F908F9066
:1010400008956D3089F3CC88AD888F898115C1F002
:101050008C859D8536E0C39E800D911D11244885A9
:1010600059854817590764F44E855F851D861C868F
:1010700038E0A39EC0011124840F951F9F878E879F
:10108000EA88FB88088919894E855F856C857D858E
:10109000CE010E94D4052C898C859D8536E0239F46
:1010A000800D911D11249D878C87BECF6A3069F415
:1010B0001D861C86FC013896E4912D898E859F85BE
:1010C0002E9F800D911D1124ADCF6D3009F4ACCF52
:1010D000FC0134963491631708F4A6CF3296E4915C
:1010E000E61708F4A1CFFC01329685909590E62F83
:1010F000E31B37E0E39F800C911C1124F40132962E
:1011000034913196E4913115A9F1E11599F1CC882A
:10111000F4013596E491AD884F89411501F10E2E09
:10112000000CFF0BE30FF11DCE9EA001CF9E500DD2
:1011300011246C857D85460F571F68857985641756
:1011400075076CF44E855F851D861C86FC013896FC
:10115000E491AE9E400D511D11245F874E87EA88B1
:10116000FB88088919894E855F856C857D85CE0150
:101170000E94D405F4013496E4912C898C859D85D8
:101180002E9F800D911D11248ECFFC01862F837020
:10119000868B948185813681278160FD03C0AC01F7
:1011A000C9019A013087218792878387089508951E
:1011B000FC0185A9811104C091A182A19CBD8DBDB6
:1011C0000895CF93DF93EC010E94D8088FA987FD83
:1011D00006C0EB8DFC8D80819AA989238083DF91E5
:1011E000CF9108950895FC0187A987FD06C0A38DBE
:1011F000B48D8C9191A9892B8C930895FC01A5A1A4
:10120000B6A18C9192A589238C93A5A1B6A18C91AE
:1012100091A5892B8C9308958F929F92AF92BF9244
:10122000CF92DF92EF92FF920F931F93CF93DF93B2
:10123000EC0149015701E881F98102A4F3A5E02DF1
:1012400009959401D8010E944A1B6B017C01672B10
:10125000682B692B09F459C08DA9811509F44AC07E
:10126000813009F065C081E0C81AD108E108F108B1
:101270008FEFC816D806E806F80609F446C09B2D7D
:1012800088E0E9A1FAA1208197FF4CC03DA1232B62
:101290002083EBA1FCA120813FA1232B2083EBA184
:1012A000FCA1208138A523232083990F8A9549F733
:1012B0009A2D88E0E9A1FAA1208197FF36C03DA1CF
:1012C000232B2083EBA1FCA120813FA1232B208392
:1012D000EBA1FCA1208138A523232083990F8A95B7
:1012E00049F7C1CFBEBC0DB407FEFDCFAEBC0DB4F7
:1012F00007FEFDCF81E0C81AD108E108F1088FEFA1
:10130000C816D806E806F80669F7DF91CF911F9155
:101310000F91FF90EF90DF90CF90BF90AF909F9094
:101320008F9008953EA12323B3CF3EA12323C9CF9D
:10133000BA1011C0CC0CDD1CEE1CFF1CEF8DF8A107
:10134000B082CE010E94FE0881E0C81AD108E108EF
:10135000F108B9F7DACFEF8DF8A1B082CE010E9483
:10136000FE08EF8DF8A1A082CE010E94FE0881E068
:10137000C81AD108E108F10871F7C7CF6F927F92C0
:101380008F929F92AF92BF92CF92DF92EF92FF9295
:101390000F931F93CF93DF934C01CB01F901B80159
:1013A000309709F44CC0012B09F449C037FF07C03E
:1013B0002F5F3F4F820F931FF195E195F109D40103
:1013C0001896CD91DC918C179D07CCF577FF08C05E
:1013D0009B012F5F3F4F420F531F7195619571091C
:1013E000D4011A966D907C904615570544F59C01E2
:1013F0002E0F3F1F5901B1E0AB1AB108B7FC1FC057
:101400008A01060F171F6801A1E0CA1AD108D7FC8C
:1014100016C097FD23C09F0157FD23C08B01AC165A
:10142000BD061CF09E01281B390BC614D7041CF006
:101430008301041B150BBC01C4010E940C09DF9140
:10144000CF911F910F91FF90EF90DF90CF90BF90C1
:10145000AF909F908F907F906F90089580E090E084
:10146000DBCF40E050E0DBCFEF92FF920F931F9372
:10147000DC01CA01F901780157FD30C01A962D919F
:101480003C911B97421753074CF5309739F144F4C0
:101490009F012F5F3F4F620F731FF195E195F10997
:1014A00018964D915C91199764177507BCF49B01D0
:1014B0002E0F3F1F89010150110917FD0FC077FD45
:1014C00012C09F01041715071CF09A01261B370B49
:1014D00001E010E0AC01CD010E940C091F910F91B9
:1014E000FF90EF90089560E070E0ECCFEF92FF92F4
:1014F0000F931F93DC01CB01F901780197FD30C0F8
:1015000018962D913C911997821793074CF53097B7
:1015100039F144F49F012F5F3F4F420F531FF19564
:10152000E195F1091A962D913C911B9742175307AB
:10153000BCF48A010E0F1F1FB8016150710977FDBD
:101540000FC057FD12C08F01621773071CF089018D
:10155000041B150B21E030E0BC01CD010E940C09F9
:101560001F910F91FF90EF90089540E050E0ECCF75
:101570008F929F92AF92BF92CF92DF92EF92FF92A3
:101580000F931F93CF93DF936C01EB015A01C901B5
:10159000780157FD52C0D6011A962D913C91421701
:1015A00053070CF04AC0009709F447C044F49C016B
:1015B0002F5F3F4FC20FD31F919581959109F6017F
:1015C00020853185C217D307C4F54E01880E991EB8
:1015D000A4014150510957FD30C0D7FD2BC04C012B
:1015E000421753071CF049018C1A9D0AD601ED9150
:1015F000FC910284F385E02DC601099501E010E01D
:101600009401A501BE01C6010E940C09D601ED910D
:10161000FC910688F789E02DC601DF91CF911F91DB
:101620000F91FF90EF90DF90CF90BF90AF909F9081
:101630008F900994C0E0D0E0D3CFDF91CF911F917C
:101640000F91FF90EF90DF90CF90BF90AF909F9061
:101650008F900895AF92BF92CF92DF92EF92FF9258
:101660000F931F93CF93DF936C015B01EA01C901D4
:10167000780177FD4FC0D60118962D913C916217E5
:1016800073070CF047C0009709F444C044F49C0170
:101690002F5F3F4FC20FD31F919581959109F6019E
:1016A00022853385C217D307ACF58E01080F191FA9
:1016B000A8014150510957FD2DC0D7FD28C08C010C
:1016C000421753071CF089010C1B1D0BD601ED912D
:1016D000FC910284F385E02DC601099521E030E0FC
:1016E000AE01B501C6010E940C09D601ED91FC9135
:1016F0000688F789E02DC601DF91CF911F910F91E8
:10170000FF90EF90DF90CF90BF90AF900994C0E032
:10171000D0E0D6CFDF91CF911F910F91FF90EF9046
:10172000DF90CF90BF90AF900895FC0185A9811103
:1017300005C06EBD0DB407FEFDCF08958130E1F404
:1017400088E0A1A1B2A19C9167FF13C025A1922BB3
:101750009C93A3A1B4A19C9127A1922B9C93660F6B
:10176000A3A1B4A19C9120A592239C938A9549F7AB
:10177000089526A19223ECCFA78DB0A16C93CF0141
:101780000C94FE08CF93DF93EC01ED8DFE8D8081EC
:101790009CA989238083CE010E94950BED8DFE8D3F
:1017A00080819BA9892B8083DF91CF9108951F931E
:1017B000CF93DF93EC01162FE881F9810284F38542
:1017C000E02D0995111571F06DADCE010E94C20B8F
:1017D000E881F9810688F789E02DCE01DF91CF916C
:1017E0001F9109946EADF1CF0F931F93CF93DF93A9
:1017F000EC018B018DA981110DC01EBD0DB407FE3A
:10180000FDCF0EBD0DB407FEFDCFDF91CF911F912F
:101810000F9108958130E9F480E1E9A1FAA1908166
:1018200017FF14C02DA1922B9083EBA1FCA19081F6
:101830002FA1922B9083EBA1FCA1908128A592234C
:101840009083000F111F8A9541F7DFCF2EA19223BD
:10185000EBCFEF8DF8A11083CE010E94FE08EF8D33
:10186000F8A10083CE01DF91CF911F910F910C94CD
:10187000FE08EF92FF920F931F93CF93DF93EC013B
:10188000CB01790197FD22C02885398582179307FE
:10189000ECF457FD1BC02A853B8542175307B4F46F
:1018A000E881F98102A4F3A5E02D01E010E021E038
:1018B00030E0BC01CE010995B701CE01DF91CF9197
:1018C0001F910F91FF90EF900C94F40BDF91CF914B
:1018D0001F910F91FF90EF900895AF92BF92CF921A
:1018E000DF92EF92FF920F931F93CF93DF93EC0160
:1018F0007B016A01590177FD35C088859985681794
:10190000790784F557FD2EC08A859B8548175907AE
:101910004CF5E881F9810284F385E02DCE0109952B
:10192000E881F98102A4F3A5E02D01E010E021E0B7
:1019300030E0A601B701CE010995B501CE010E94A4
:10194000F40BE881F9810688F789E02DCE01DF915B
:10195000CF911F910F91FF90EF90DF90CF90BF90AC
:10196000AF900994DF91CF911F910F91FF90EF906D
:10197000DF90CF90BF90AF900895AF92BF92CF927B
:10198000DF92EF92FF920F931F93CF93DF93EC01BF
:10199000D62E8A01E22E0E94D8088FA987FD06C0A4
:1019A000EB8DFC8D80819AA989238083ED8DFE8D3E
:1019B00080819CA9892380836D2DCE010E94950B87
:1019C000ED8DFE8D80819BA9892B8083C12CD12C2C
:1019D000F12CCE14DF04A4F08FA987FD06C0EB8D97
:1019E000FC8D808199A9892B8083DF91CF911F91F4
:1019F0000F91FF90EF90DF90CF90BF90AF90089540
:101A00008DA9823071F488A9811559F0F80161918E
:101A100071918F01CE010E94F40BFFEFCF1ADF0A04
:101A2000D8CF5801FFEFAF1ABF0AF8016491CE0179
:101A30000E94950B8501F1CF8F929F92AF92BF923A
:101A4000CF92DF92EF92FF920F931F93CF93DF938A
:101A50005C01EB016A01A901C80137FF07C02F5FD4
:101A60003F4FC20FD31F519541955109F501A085F4
:101A7000B185CA17DB070CF05AC097FF08C09C015C
:101A80002F5F3F4FC20ED31E919581959109F501AD
:101A900022853385C216D3060CF049C04E01840E50
:101AA000951EF4013197F7FD42C08601080F191FFA
:101AB000B8016150710977FD3AC0D7FD32C04A01C3
:101AC000D7FC32C08C01EA17FB071CF04D018C1AC1
:101AD0009D0A621773071CF089010C191D09D501B5
:101AE000ED91FC910284F385E02DC50109959401E7
:101AF000A601BE01C5010E940C09D501ED91FC9122
:101B00000688F789E02DC501DF91CF911F910F91D4
:101B1000FF90EF90DF90CF90BF90AF909F908F900D
:101B20000994C0E0D0E0CCCFC12CD12CCCCFDF9138
:101B3000CF911F910F91FF90EF90DF90CF90BF90CA
:101B4000AF909F908F900895EF92FF920F931F9305
:101B5000F8012115310521F0EF2B11F00E941C0D29
:101B60001F910F91FF90EF900895EF92FF920F93C6
:101B70001F93CF93DF93D82FC92F00910C0410919E
:101B80000D042091510430915204E12CF12C4CE0D1
:101B900050E060E070E08EE094E00E94A40DECEE76
:101BA000F3E080E2DF011D928A95E9F71092EB03E2
:101BB000D093E903C093EA03DF91CF911F910F9176
:101BC000FF90EF9008958091E70390E091958195C3
:101BD000910908958FEF9FEF08958FEF9FEF08957C
:101BE0002091E603260F3327331F21323105ECF411
:101BF0002091E503FC0180E090E0243069F082E070
:101C00000895A091E6032191AC014B535C4FA40FC2
:101C1000B52FB11D2C930196861798F38091E6039A
:101C2000680F6093E60380E0089581E00895CF9304
:101C3000DF930F92CDB7DEB7698361E0CE010196E5
:101C40000E94F00D81E090E00F90DF91CF91089518
:101C5000CF93DF93CB01EA01642F0E94F00DCE01F8
:101C6000DF91CF910895FF920F931F93CF93DF934E
:101C70000F92CDB7DEB78C016370623051F06330E4
:101C800009F460C038E4F32E613029F488E2F82EBC
:101C90005BC028E8F22E20EF30E080E491E0D8012C
:101CA00056966C93569719963C932E9318971B96BD
:101CB0009C938E931A97C8010E94D808F80187A9AF
:101CC00087FD09C0038CF48DE02D8081D801D29668
:101CD0009C9189238083D8015D96ED91FC915E975C
:101CE0008081D4969C918923808366E3C8010E94F9
:101CF000950BD8015D96ED91FC915E978081D3960E
:101D00009C91D397892B8083D5968C91823009F151
:101D10006F2DC8010E94950BD801D7968C91D7974B
:101D200087FD09C05B96ED91FC915C978081D1960F
:101D30009C91892B80830F90DF91CF911F910F9100
:101D4000FF90089598EEF92E20E431E080EF90E0C6
:101D5000A6CFF80180A98115D9F2F98269817A812B
:101D6000C8010E94F40BD8CF605E20E040E050E054
:101D70000C94BD0CAF92BF92CF92DF92EF92FF9284
:101D80000F931F93CF93DF93D82FC92F5B016A0165
:101D9000215031097901E60EF71E01501109040F97
:101DA000151F80910601909107018617970739F456
:101DB00080910401909105018E159F05B9F06AE2AA
:101DC0008D2F9C2F0E94C20BB5018D2F9C2F0E943E
:101DD000F40BB7018D2F9C2F0E94F40BB0920701DA
:101DE000A0920601F0920501E092040180910201A7
:101DF000909103018C159D0539F48091000190911B
:101E0000010180179107B9F06BE28D2F9C2F0E9482
:101E1000C20BB6018D2F9C2F0E94F40BB8018D2FA1
:101E20009C2F0E94F40BD0920301C09202011093E8
:101E30000101009300016CE28D2F9C2FDF91CF9167
:101E40001F910F91FF90EF90DF90CF90BF90AF90D8
:101E50000C94C20B3FB7F89480916D0390916E0380
:101E6000A0916F03B091700326B5A89B05C02F3FCA
:101E700019F00196A11DB11D3FBFBA2FA92F982FB0
:101E80008827BC01CD01620F711D811D911D42E0AB
:101E9000660F771F881F991F4A95D1F708954F92B3
:101EA0005F926F927F928F929F92AF92BF92CF92EA
:101EB000DF92EF92FF920F931F93CF93DF938B01EB
:101EC000D82FC92F0E942A0F262F822E972E5C0111
:101ED0006801ED2EFC2E05C0C114D104E104F1040B
:101EE00009F10E942A0F2B013C01481859086A0881
:101EF0007B088601DE2DCF2D31E0C31AD108E10821
:101F0000F108282D792DC50138EE830E33E0931E9C
:101F1000A11CB11C38EE431633E053066104710472
:101F2000D8F6D3CFDF91CF911F910F91FF90EF9013
:101F3000DF90CF90BF90AF909F908F907F906F90E9
:101F40005F904F900895CF93DF9390E0FC01EA57A4
:101F5000FF4F24918C559F4FFC0184918115D1F046
:101F600090E0880F991FFC01E458FF4FA591B591AF
:101F7000FC01E656FF4FC591D5919FB761110DC089
:101F8000F8948C91E22FE0958E238C9388818E2398
:101F900088839FBFDF91CF910895F8948C91822B15
:101FA0008C93F7CF90E0FC01E859FF4F2491FC019E
:101FB000EA57FF4F3491FC01EC55FF4FE491E115D6
:101FC00019F1211589F0243001F150F4223029F162
:101FD0002330F9F4809180008F778093800004C0D3
:101FE0002730F1F0283011F1F0E0EE0FFF1FE65638
:101FF000FF4FA591B5919FB7F8948C9161111AC0CC
:10200000309538233C939FBF0895809180008F7D49
:10201000E4CF84B58F7784BDE7CF84B58F7DFBCFC8
:102020008091B0008F778093B000DECF8091B000B8
:102030008F7DF9CF832B8C93E6CFFC01A48DA80F65
:10204000B92FB11DA35ABF4F2C91848D90E00196FA
:102050008F739927848FA689B7892C93A089B1891A
:102060008C91837080648C93938D848D981306C0BB
:102070000288F389E02D80818F7D80830895FC01A3
:10208000818D228D90E0805C9F4F821B91098F7320
:102090009927089580ED92E00E943F109C0181E015
:1020A000232B09F480E0089580E090E0892B29F04B
:1020B0000E944A1081110C9400000895FC01918D3A
:1020C000828D981731F0828DE80FF11D858D90E09B
:1020D00008958FEF9FEF0895FC01918D828D9817E1
:1020E00061F0A28DAE0FBF2FB11D5D968C91928DC8
:1020F0009F5F9F73928F90E008958FEF9FEF0895F9
:10210000FC01538D448D842F90E0252F30E0821BFD
:10211000930B541710F0CF96089501970895CF931D
:10212000DF93EC01888D81110FC0DF91CF9108956D
:102130000FB607FC0DC08C9185FF0AC0808185FF1A
:1021400007C0CE010E941D10AA89BB89E889F989C0
:102150008C9185FDEDCF808186FFEACFE6CFEF92AF
:10216000FF920F931F93CF93DF93EC01F62E81E044
:10217000888F9B8D8C8D98131AC0E889F98980818E
:1021800085FF15C09FB7F894EE89FF896083E889C1
:10219000F98980818370806480839FBF81E090E0B3
:1021A000DF91CF911F910F91FF90EF9008950B8DCC
:1021B00010E00F5F1F4F0F731127E02E8C8D8E15CF
:1021C00079F0EB8DEC0FFD2FF11DE35AFF4FF082FC
:1021D0009FB7F8940B8FEA89FB8980818062DCCFFE
:1021E0000FB607FCEBCFE889F989808185FFE6CF40
:1021F000CE010E941D10E2CFCF92DF92EF92FF92AC
:102200000F931F93CF93DF937C016A0100E010E0EE
:102210000C151D0551F4C801DF91CF911F910F914D
:10222000FF90EF90DF90CF900895EB01D701ED91F3
:10223000FC910190F081E02D6991C7010995892BEE
:1022400051F30F5F1F4FBE01E3CFBC01FC010190B2
:102250000020E9F73197AF01481B590B8EE094E05D
:102260000C94FC10EF92FF920F931F93CF93DF9388
:10227000D82FC92F20915104309152042054310994
:10228000E12CF12C0CE010E040E050E060E070E068
:102290008EE094E00E94A40DEEE0F4E081E0848BF7
:1022A000858B80EE9FEF938B828B918B808B82E06E
:1022B00090E095878487978786878D2F9C2FDF9165
:1022C000CF911F910F91FF90EF900C942511EF92F9
:1022D000FF921F93CF93DF93CDB7DEB7A0970FB6D2
:1022E000F894DEBF0FBECDBF11E01F9389E78F9337
:1022F0001F921F9287E18F9380E78F938CE491E088
:102300009F938F931F9280E28F93CE0101967C0161
:102310009F938F930E94201EC7010E943211109339
:10232000E8030FB6F894DEBF0FBECDBFA0960FB680
:10233000F894DEBF0FBECDBFDF91CF911F91FF900C
:10234000EF900895CF92DF92EF92FF920F931F9339
:10235000CF93DF93CDB7DEB72C970FB6F894DEBFDF
:102360000FBECDBF9C018091080190910901821799
:10237000930709F44FC03093090120930801CE015F
:1023800001966C0137FF55C062E671E00E94191E8C
:10239000609151047091520460547109E12CF12C48
:1023A0000CE010E020E430E040E050E08EE094E00B
:1023B0000E941C0D81E080932204809323048FEF00
:1023C00097E0909321048093200490931F048093BE
:1023D0001E04F60101900020E9F73197EC19FD0980
:1023E0008091510490915204029746E04E9F9001D3
:1023F0004F9F300D1124821B930B90931B048093ED
:102400001A0482E090E090931D0480931C04C6019E
:102410000E9425112C960FB6F894DEBF0FBECDBFDB
:10242000DF91CF911F910F91FF90EF90DF90CF90B0
:1024300008953F932F9389E691E09F938F931F9286
:102440008CE08F93DF92CF920E94201E0FB6F894FB
:10245000DEBF0FBECDBF9CCF1F93CF93DF9385ED23
:102460008093BC008091C1039091C203A091C303EB
:10247000B091C4030796A11DB11D23E0B695A795A1
:10248000979587952A95D1F72091BC0024FD03C02C
:102490001092E50352C04091C1035091C203609174
:1024A000C3037091C403452B462B472B69F3009758
:1024B000A105B10541F02AE22A95F1F700C0019784
:1024C000A109B109E1CF8091C003C1E0C093BF036E
:1024D000811599F1D091B8001091BA008091BC009B
:1024E0008A7B8093BC0060E082E10E94D20F60E0B2
:1024F00083E10E94D20F1092E503C093BE031092B5
:10250000BD0361E082E10E94D20F61E083E10E949D
:10251000D20F8091B9008E7F8093B9008091B9006D
:102520008D7F8093B90088E48093B80085E4809320
:10253000BC001093BA00D093B800DF91CF911F91E7
:102540000895CF92DF92EF92FF920F931F93CF9354
:10255000DF93EC016A017B01C114D104E104F104B1
:1025600031F4C12C42E1D42E4AE7E42EF12C8FA99C
:1025700087FD07C061E00E94A30F61E08FA90E9460
:10258000D20F61E088AD0E94A30F61E088AD0E9488
:10259000D20F8DA981117EC040E052E16AE770E060
:1025A000C416D506E606F70608F46AC091E0892746
:1025B000982F9695906599A381708AA31BA21CA25F
:1025C0001DA21EA21FB7F89480917603811129C025
:1025D000EEEAF0E08491E0E9F0E09491E82FF0E099
:1025E000EE0FFF1FE458FF4FA591B5918C91E92F95
:1025F000E823E11104C061E08AE00E94D20F61E0AB
:102600008AE00E94A30F8CB580618CBD8CB580647C
:102610008CBD61E08DE00E94A30F61E08BE00E9421
:10262000A30F809176038F5F809376031FBF8EA9DF
:1026300087FF7CC020E040E050E061E0CE010E94D6
:10264000BD0C66E970E080E090E00E944F0F08EB5F
:1026500010E0C8010196F801649161118CC080EF0F
:1026600090E09987888780E491E09B878A87DF9153
:10267000CF911F910F91FF90EF90DF90CF90089531
:1026800076956795579547958F5F863009F088CF87
:1026900087E08CCF04EA10E0F12C8130B9F461E0DE
:1026A0008AA50E94A30F60E08AA50E94D20F61E074
:1026B0008CA50E94A30F60E08CA50E94D20F8BA571
:1026C00087FDB5CF60E00E94A30FB1CFF8018491E0
:1026D000E82FF0E0EE0FFF1FE656FF4F8591959132
:1026E0002F8D38A12817390741F461E08F2D0E9402
:1026F000A30F60E08F2D0E94D20FF3940F5F1F4F46
:10270000F4E1FF12E3CF61E08EA50E94A30F61E028
:102710008EA50E94D20F8FA587FD89CF61E00E9410
:10272000A30F61E08FA50E94D20F81CF61E00E94CC
:10273000A30F61E08EA90E94D20F64E670E080E0F2
:1027400090E00E944F0F60E08EA90E94D20F64E6D5
:1027500070E080E090E00E944F0F61E08EA90E943F
:10276000D20F68EC70E080E090E00E944F0F8EA9DD
:1027700087FD60CF6CCF0E5F1F4FFC01F490EF2CF4
:10278000E894E7F82E2DA801CE010E94BD0C0E0D95
:10279000111DF7FE5ECF66E970E080E090E00E94D8
:1027A0004F0F57CF1F920F920FB60F9211242F93F6
:1027B0003F934F935F936F937F938F939F93AF93C9
:1027C000BF93EF93FF939091B900892F887F803555
:1027D00009F4BEC008F042C0803309F4B4C098F5D3
:1027E000883101F1D0F4883009F4A5C0803109F4B2
:1027F000A2C0811509F4ECC0FF91EF91BF91AF9198
:102800009F918F917F916F915F914F913F912F9108
:102810000F900FBE0F901F901895803209F493C04F
:10282000883251F79091BB038091BA03981778F5DD
:10283000E091BB0381E08E0F8093BB03F0E0E6568E
:10284000FC4F80817AC0803409F48EC0883409F44A
:102850007CC0883389F6809399036BC0803A09F471
:102860009DC0B8F5803809F487C050F5803611F165
:10287000D8F4883509F6E091BB0381E08E0F809390
:10288000BB038091BB00F0E0E656FC4F8083809153
:10289000BE0381115AC081E08093BD0384EA809316
:1028A000BC001092E503A8CF803721F0987E9836BF
:1028B00009F0A2CF83E08093E503109298033FC014
:1028C000803909F459C0987E983809F095CF85E889
:1028D00037C0883BC9F048F5883A19F0803B09F0C9
:1028E0008BCF84E08093E503109277031092E60388
:1028F000E0E0F0E009958091E603811105C081E0F8
:102900008093E6031092C503E091770381E08E0F78
:1029100080937703F0E0EB53FC4F80818093BB0002
:10292000909177038091E60323C0907F903C09F05B
:1029300063CF85ECB4CF8091BC038093BB0085EC62
:102940008093BC0059CF809399030E942C1254CFDE
:10295000E091BB0381E08E0F8093BB038091BB00AD
:10296000F0E0E656FC4F80839091BB038091BA0360
:10297000981708F0ACCFE3CF80919803803208F02D
:10298000A6CFE091980381E08E0F80939803809109
:10299000BB00F0E0E858FC4F8083D1CF85EC8093FA
:1029A000BC001092E50380919803803230F4E091EE
:1029B0009803F0E0E858FC4F10826091980370E0B3
:1029C00088E793E0E0E0F0E009951092980314CFD7
:1029D00010929903BACF1F921FB61F9211242F9302
:1029E0003F938F939F93AF93BF9380917203909186
:1029F0007303A0917403B09175033091710323E0C8
:102A0000230F2D3750F50196A11DB11D20937103A1
:102A10008093720390937303A0937403B093750330
:102A200080916D0390916E03A0916F03B09170033C
:102A30000196A11DB11D80936D0390936E03A09329
:102A40006F03B0937003BF91AF919F918F913F91AE
:102A50002F911F901FBE1F90189526E8230F0296F6
:102A6000A11DB11DD3CF2F932FB72F938F939F937A
:102A7000EF93FF93E091E002F091E1028081E09119
:102A8000E602F091E70282FD19C090818091E9028F
:102A90008F5F8F732091EA02821741F0E091E90283
:102AA000F0E0E053FD4F958F8093E902FF91EF91A5
:102AB0009F918F912F912FBF2F9118958081F6CFE5
:102AC0001F920F920FB60F9211242F933F934F93A3
:102AD0005F936F937F938F939F93AF93BF93EF9386
:102AE000FF9380ED92E00E941D10FF91EF91BF9146
:102AF000AF919F918F917F916F915F914F913F9196
:102B00002F910F900FBE0F901F901895CDB7DEB785
:102B1000C954D1090FB6F894DEBF0FBECDBF78946B
:102B200084B5826084BD84B5816084BD85B58260D2
:102B300085BD85B5816085BD80916E008160809383
:102B40006E001092810080918100826080938100EC
:102B500080918100816080938100809180008160FC
:102B6000809380008091B10084608093B100809157
:102B7000B00081608093B00080917A00846080937F
:102B80007A0080917A00826080937A0080917A0046
:102B9000816080937A0080917A00806880937A00C7
:102BA0001092C100E091E002F091E10282E08083A6
:102BB000E091DC02F091DD021082E091DE02F09102
:102BC000DF028FE180831092E802E091E402F0914D
:102BD000E50286E08083E091E202F091E3028081E9
:102BE00080618083E091E202F091E302808188605D
:102BF0008083E091E202F091E3028081806880832B
:102C0000E091E202F091E30280818F7D808340E0D9
:102C100050E0BA018EE094E00E94A11263E08EE0E1
:102C200094E00E94330E60E070E08EE094E00E9439
:102C3000E00430911604209117043093510420933E
:102C40005204E0901804F0901904F7013C97832F88
:102C5000922F97FD0F969C0144E0359527954A9554
:102C6000E1F7690112E0C11AD10890E480E000E4C4
:102C700010E0E63841E0F40744F4CF0166E070E08C
:102C80000E94171B8B01962F812FF0920C02E0926D
:102C90000B02F0930D04E0930C0430930802209390
:102CA0000702D0920602C092050290930902809317
:102CB0000A02C8010230110514F482E090E0019785
:102CC0006C01E12CF12C85E8882E81E0982E412CB6
:102CD000512C3201A12CB12C9EEF392E2BC0C301F7
:102CE000B201A70196010E942B1B822F2F3F3105B5
:102CF000410551050CF47FC1632D621B262F8FEF18
:102D000090E0982F88278827987F78E0279F900168
:102D10001124207E3770822B932BF40181939193A1
:102D20004F01FFEFAF1ABF0A2EEF420E21E0521EF5
:102D3000611C711CA016B10694F28FE691E00E940E
:102D400032118FEF9FEF0E94A21110E080ED92E010
:102D50000E943F101C01892B09F04FC1113009F06E
:102D6000B9C18091E803811102C00E94671180916E
:102D7000E9039091EA03019721F081E090E00E943D
:102D8000B50D4DE452E025965FAF4EAF25977CEE32
:102D9000472E73E0572E23965FAF4EAF2397612CDB
:102DA000712C2396EEADFFAD2397819191912396DF
:102DB000FFAFEEAF2397880F991F880F991FC12C83
:102DC000D12C883FFFEF9F0774F0039620910902F2
:102DD00030910A0266E070E00E94171B6B01261713
:102DE00037070CF46901F201A190B1902F01CA14C8
:102DF000DB0409F44AC080910702909108022091F7
:102E0000050230910602AC01421B530B57FF02C072
:102E10004F5F5F4F4A0195948794689EA001699E19
:102E2000500D789E500D1124840E951ECA14DB049B
:102E30000CF028C1C5018C199D098115F1E09F078F
:102E400034F065011FEFC11AD1088FEF90E046E022
:102E5000489F8001499F100D11244AEFB501460398
:102E6000F001479FF00D112480910B0290910C020C
:102E7000AF01480F591FE12CF12CB4018EE094E012
:102E80000E94A40DF201D292C2922FEF621A720A2E
:102E900030E16316710409F084CF0FEF1FEF83E078
:102EA00090E02596EEADFFAD2597219131912596C5
:102EB000FFAFEEAF25978217930714F4C901810184
:102EC000FFEF2F1A3F0A20E12216310451F70F3F7E
:102ED000100709F480C058014FEFA41AB40AB501D5
:102EE0000B2C000C880B990B0E94F71C6B017C01CA
:102EF000C80101978E30910508F05CC0880F991FBA
:102F0000FC01E35BFD4F60817181072E000C880B93
:102F1000990B0E94F71C3B014C01F501EE0FFF1FBE
:102F2000E35BFD4F60817181072E000C880B990BCC
:102F30000E94F71C2B015C01F801EE0FFF1FE35B01
:102F4000FD4F60817181072E000C880B990B0E9448
:102F5000F71C262F372F482F592F0E94DC1B9B016F
:102F6000AC01B301C4010E94DB1B9201A5010E94C8
:102F7000DC1B1B018C0120E030E0A9010E94481CF1
:102F800087FF18C09201A501B301C4010E94DB1B99
:102F900020E030E040E05FE30E94AC1D9101A80119
:102FA0000E944D1C9B01AC01B601C7010E94DC1BB5
:102FB0006B017C0125EC30E44CEB53E4B601C70116
:102FC0000E94AC1D20E030E040E05FE30E94DC1B8B
:102FD0000E94BF1C8B01C8010E94A211E0E0F0E03A
:102FE000EF2B09F4B2CE0E944A10811509F4ADCE40
:102FF0000E940000AACE2FEF83CE80ED92E00E94C7
:103000006C108E3F60F08093CF028E3F31F480E1F0
:103010008093CE021092CD0299CE80E2F9CF20911A
:10302000CE02211509F492CEE091CD0291E09E0FDF
:103030009093CD02F0E0E355FD4F8083291386CEB7
:103040008091CF02EDEAF2E0ADE4B2E08F3F79F497
:10305000ADE6B2E0819190E08D939D934DEC52E00E
:103060004E175F07B9F712E01092CE026FCE819132
:1030700090E08D939D936DEB72E06E177F07B9F72B
:1030800011E0F2CFF501EE0FFF1FEB57FE4FE0808E
:10309000F1805FEFA51AB50A209105023091060272
:1030A0001AEFB5011603A001179F500D112480914E
:1030B0000B0290910C02480F591F4F5F5F4F05E0C4
:1030C00010E0B4018EE094E00E94A40DCA14DB0469
:1030D000C9F6D8CE123009F081CF8091E803811172
:1030E00002C00E9467118091E9039091EA03029760
:1030F00021F082E090E00E94B50DE0900B02F0908C
:103100000C0231E0E31AF108A0900C04B0900D0419
:1031100041E0A41AB1086DE672E025967FAF6EAF6C
:103120002597CE01019623969FAF8EAF23976C0112
:103130008B01F801A191B1918F01A058B109A1387B
:10314000FFEFBF070CF09AC1A1E8BFEFA058BF4F37
:1031500095010E944A1B2FEF30E040E050E00E94B2
:103160002B1BC701821B930BF601819391936F0177
:103170002DEA32E020173107E1F68091EB0381154B
:1031800009F451C02DE0622E22E0722E812C912C88
:10319000540183946301E0905104F090520491E053
:1031A000E91AF108F30102811381F2E06F0E711C3C
:1031B0009701D4010E944A1B2FE130E040E050E02B
:1031C0000E942B1B29962CAF3DAF4EAF5FAF2997C6
:1031D000F601C080D180D501C4010197A109B109D0
:1031E0009701DC010E944A1B2FE130E040E050E0F3
:1031F0000E942B1BCA01B901E12CF12C27962EADA0
:103200003FAD2797A6018EE094E00E94FD04FFEFFA
:103210008F1A9F0AAF0ABF0A10E281169104A10417
:10322000B10409F0B7CF812C912C540183942396DB
:10323000CEACDFAC2397E0905104F090520421E033
:10324000E21AF108F6010281138196012E5F3F4FC9
:1032500023963FAF2EAF23979701D4010E944A1BBC
:103260002FE130E040E050E00E942B1B29013A01A1
:10327000F601C080D180D501C4010197A109B1092F
:103280009701DC010E944A1B2FE130E040E050E052
:103290000E942B1BCA01B90190EEE92E97E0F92E8E
:1032A0009201A6018EE094E00E94FD04FFEF8F1AC8
:1032B0009F0AAF0ABF0A10E281169104A104B1046B
:1032C00009F0B5CF80E4FE013196ADE0B2E00190A7
:1032D0000D928A95E1F781E08093EB03EDE6F2E051
:1032E00060E070E0CB01219131918901330F220B15
:1032F000330B600F711F821F931F2DEA32E02E17D0
:103300003F0789F720E230E040E050E00E942B1BAD
:103310002901E12CF12C612C712CA12CB12C812CD8
:10332000912CC12CD12C80E0A90144505109239645
:103330005FAF4EAF23972596EEADFFAD2597028187
:10334000138123962EAD3FAD2397021713070CF47C
:103350009CC0811509F444C0041515050CF440C047
:10336000A080B180B2016A197B09072E000C880B7E
:10337000990B0E94F71C26966FAF26972A967FAF6F
:103380002A973C01B8016A197B09072E000C880BAB
:10339000990B0E94F71C9B01AC0126966FAD2697F6
:1033A0002A967FAD2A97C3010E944D1C5B018C01B8
:1033B000B7010F2C000C880B990B0E94F71C9B0186
:1033C000AC01B501C8010E94DC1B3B015C0121146A
:1033D000310411F44B016C013FEF231A330A80E0F2
:1033E0004FEFE41AF40A25966EAD7FAD25976E5F18
:1033F0007F4F25967FAF6EAF25977FE1E716F104EB
:1034000009F099CF82E0281631040CF440C0262D33
:10341000372D4A2D5B2D682D792D8C2D9D2D0E94E9
:10342000A71D87FF34C0B10161507109072E000C40
:10343000880B990B0E94F71C25EC30E44CE356E412
:103440000E94AC1D7B018C01282D392D4C2D5D2D4A
:10345000662D772D8A2D9B2D0E94DB1B9B01AC01D5
:10346000B701C8010E944D1C20E030E040E05FE35E
:103470000E94DC1B0E94BF1CCB01AECDA038B10561
:103480000CF464CEAFE7B0E061CE81E0A9CF8FEF5E
:103490009FEFA2CDE0EDF2E01382128288EE93E07E
:1034A000A0E0B0E084839583A683B7838EE091E0AB
:1034B0009183808385EC90E09587848784EC90E00D
:1034C0009787868780EC90E0918B808B81EC90E0F1
:1034D000938B828B82EC90E0958B848B86EC90E0D2
:1034E000978B868B118E128E138E148EAEE0B4E005
:1034F00013961C921E92129720EF30E015963C9383
:103500002E93149780E491E017969C938E931697D0
:1035100019963C932E9318971B969C938E931A970B
:1035200056961C9256971D961C921E921C971F969B
:103530001C921E921E9781E055968C935597549637
:103540008C9354972FEF3FEF53963C932E935297C3
:1035500051963C932E93509757968C935797589625
:103560001C9258975A961C921E925997D5961C9267
:10357000D59788E0D6968C93D6978AE0D7968C9389
:10358000D79789E0D8968C93D897DA961C921E929A
:10359000D997DC961C921E92DB97DD961C92DD97E4
:1035A000DE961C92DE9710924D0410924E041092FB
:1035B0004F041092500484E891E090969C938E936F
:1035C0005F97EDEAF0E0E491F0E0EE0FFF1FE656C2
:1035D000FF4F859195915E969C938E935D97EFE852
:1035E000F0E08491D3968C93D397EEEAF0E0E491E7
:1035F000F0E0EE0FFF1FE656FF4F259135915C96E8
:103600003C932E935B97E0E9F0E0E491D196EC9344
:10361000D197E095D296EC93D297E82FE095D49687
:10362000EC93D49780E291E08D939C93089597FB5F
:10363000072E16F4009407D077FD09D00E94681B6E
:1036400007FC05D03EF4909581959F4F08957095A5
:1036500061957F4F0895052E97FB1EF400940E94FC
:10366000421B57FD07D00E947C1B07FC03D04EF481
:103670000C94421B50954095309521953F4F4F4FEC
:103680005F4F089590958095709561957F4F8F4F0E
:103690009F4F08950E94521B332312F48A1B9B0BE9
:1036A0000C94631BA29FB001B39FC001A39F700D38
:1036B000811D1124911DB29F700D811D1124911D3A
:1036C00008950E94521BB7FF0895821B930B089523
:1036D000AA1BBB1B51E107C0AA1FBB1FA617B70738
:1036E00010F0A61BB70B881F991F5A95A9F7809554
:1036F0009095BC01CD010895A1E21A2EAA1BBB1B17
:10370000FD010DC0AA1FBB1FEE1FFF1FA217B307AD
:10371000E407F50720F0A21BB30BE40BF50B661FC3
:10372000771F881F991F1A9469F760957095809587
:1037300090959B01AC01BD01CF010895EE0FFF1FD5
:103740000590F491E02D09942F923F924F925F9251
:103750006F927F928F929F92AF92BF92CF92DF92A1
:10376000EF92FF920F931F93CF93DF93CDB7DEB706
:10377000CA1BDB0B0FB6F894DEBF0FBECDBF09949A
:103780002A88398848885F846E847D848C849B84F1
:10379000AA84B984C884DF80EE80FD800C811B81FF
:1037A000AA81B981CE0FD11D0FB6F894DEBF0FBE2E
:1037B000CDBFED0108955058BB27AA270E94F31BE7
:1037C0000C946D1D0E945F1D38F00E94661D20F054
:1037D00039F49F3F19F426F40C945C1D0EF4E09527
:1037E000E7FB0C94561DE92F0E947E1D58F3BA1773
:1037F000620773078407950720F079F4A6F50C9407
:10380000A01D0EF4E0950B2EBA2FA02D0B01B901CF
:1038100090010C01CA01A0011124FF27591B99F046
:10382000593F50F4503E68F11A16F040A22F232F52
:10383000342F4427585FF3CF469537952795A795A2
:10384000F0405395C9F77EF41F16BA0B620B730B49
:10385000840BBAF09150A1F0FF0FBB1F661F771FBA
:10386000881FC2F70EC0BA0F621F731F841F48F46F
:10387000879577956795B795F7959E3F08F0B0CFF8
:103880009395880F08F09927EE0F979587950895DF
:103890000E94321D08F481E008950E94611C0C947E
:1038A0006D1D0E94661D58F00E945F1D40F029F4B6
:1038B0005F3F29F00C94561D51110C94A11D0C94DE
:1038C0005C1D0E947E1D68F39923B1F3552391F38B
:1038D000951B550BBB27AA2762177307840738F07F
:1038E0009F5F5F4F220F331F441FAA1FA9F335D0DC
:1038F0000E2E3AF0E0E832D091505040E695001C90
:10390000CAF72BD0FE2F29D0660F771F881FBB1F49
:10391000261737074807AB07B0E809F0BB0B802D27
:10392000BF01FF2793585F4F3AF09E3F510578F053
:103930000C94561D0C94A11D5F3FE4F3983ED4F304
:10394000869577956795B795F7959F5FC9F7880F27
:10395000911D9695879597F90895E1E0660F771F79
:10396000881FBB1F621773078407BA0720F0621B0A
:10397000730B840BBA0BEE1F88F7E09508950E9435
:10398000C61C6894B1110C94A11D08950E94861D57
:1039900088F09F5798F0B92F9927B751B0F0E1F010
:1039A000660F771F881F991F1AF0BA95C9F714C0C0
:1039B000B13091F00E94A01DB1E008950C94A01DBB
:1039C000672F782F8827B85F39F0B93FCCF38695F9
:1039D00077956795B395D9F73EF490958095709556
:1039E00061957F4F8F4F9F4F0895E89409C097FBD3
:1039F0003EF490958095709561957F4F8F4F9F4FC6
:103A00009923A9F0F92F96E9BB279395F695879509
:103A100077956795B795F111F8CFFAF4BB0F11F4CC
:103A200060FF1BC06F5F7F4F8F4F9F4F16C0882373
:103A300011F096E911C0772321F09EE8872F762FA9
:103A400005C0662371F096E8862F70E060E02AF0EA
:103A50009A95660F771F881FDAF7880F96958795D6
:103A600097F90895990F0008550FAA0BE0E8FEEFAB
:103A700016161706E807F907C0F012161306E40732
:103A8000F50798F0621B730B840B950B39F40A262B
:103A900061F0232B242B252B21F408950A2609F409
:103AA000A140A6958FEF811D811D089597F99F670D
:103AB00080E870E060E008959FEF80EC08950024B6
:103AC0000A941616170618060906089500240A9483
:103AD00012161306140605060895092E0394000C09
:103AE00011F4882352F0BB0F40F4BF2B11F460FF98
:103AF00004C06F5F7F4F8F4F9F4F089557FD9058C1
:103B0000440F551F59F05F3F71F04795880F97FBA1
:103B1000991F61F09F3F79F087950895121613065B
:103B20001406551FF2CF4695F1DF08C0161617068A
:103B30001806991FF1CF86957105610508940895BF
:103B4000E894BB2766277727CB0197F908950E9451
:103B5000321D08F48FEF08950E94BF1D0C946D1D57
:103B60000E945F1D38F00E94661D20F0952311F021
:103B70000C94561D0C945C1D11240C94A11D0E94E4
:103B80007E1D70F3959FC1F3950F50E0551F629F06
:103B9000F001729FBB27F00DB11D639FAA27F00DA6
:103BA000B11DAA1F649F6627B00DA11D661F829FCD
:103BB0002227B00DA11D621F739FB00DA11D621FB2
:103BC000839FA00D611D221F749F3327A00D611DCF
:103BD000231F849F600D211D822F762F6A2F1124B1
:103BE0009F5750409AF0F1F088234AF0EE0FFF1FE4
:103BF000BB1F661F771F881F91505040A9F79E3F3B
:103C0000510580F00C94561D0C94A11D5F3FE4F308
:103C1000983ED4F3869577956795B795F795E79590
:103C20009F5FC1F7FE2B880F911D9695879597F999
:103C30000895FB01DC0101900D920020E1F7089549
:103C4000AEE0B0E0E6E2FEE10C94B21B0D891E8905
:103C500086E08C831A8309838F89988D813020E8D0
:103C6000920710F080E090E801979E838D83AE016B
:103C7000455E5F4F698D7A8DCE0101960E94521E7E
:103C80004D815E8157FD0AC02F8138854217530749
:103C90000CF49A01020F131FF80110822E96E4E033
:103CA0000C94CE1BABE0B0E0E8E5FEE10C94A71B62
:103CB0006C017B018A01FC0117821682838181FFDE
:103CC000D9C19AE0592EF6012381F70123FD859190
:103CD00023FF81917F01811509F41FC1853239F4D9
:103CE00023FD959123FF91917F01953229F4B6012F
:103CF00090E00E945320E7CF30E0912C612C712C92
:103D0000F0E27F1640F59B32D9F058F49032D1F0B2
:103D10009332F1F09E3299F576FCFFC0689476F804
:103D200006C09D3291F09033C1F4689470F8F701A9
:103D300023FD959123FF91917F019111E1CF29C03E
:103D4000689471F8689472F8F2CF689473F8EFCFC2
:103D5000689474F8ECCF77FC1CC080ED890F8A3032
:103D6000C8F676FE05C0959C800D1124982EDFCFF5
:103D7000659C800D1124682E689475F8D8CF9C3608
:103D800019F4689477F8D3CF9C3409F44BC0983673
:103D900071F2892F8F7D8554833008F445C09336A6
:103DA00009F466C0933709F469C0933509F475C006
:103DB000943619F0993609F09FC0F80177FE95C046
:103DC00061917191819191918F01272D2F76822E92
:103DD00097FF09C090958095709561957F4F8F4FA3
:103DE0009F4F689487F82AE030E0AE014F5F5F4F45
:103DF0005A010E9483208A19A82E86FEC4C0882DED
:103E00008E7FA91408F0BEC084FE11C182FC05C1DA
:103E1000F82DFE7E8F2EB92C882D8678811509F419
:103E2000BFC000C131E083CF3115F9F0085F1F4FEB
:103E30008FE3898388248394912CAE014F5F5F4F79
:103E40005A01E89477F873FC03C086149104B0F12A
:103E500081149104D1F5611409F435CFB60180E2E3
:103E600090E00E9453206A94F6CF0C5F1F4FE0CF82
:103E7000F801808189830E5F1F4FDCCFF801A1908C
:103E8000B1908F01692D70E076FC02C06FEF7FEF7B
:103E9000C5010E9448204C01D4CFF801A190B190F7
:103EA0008F01692D70E076FC02C06FEF7FEFC501D6
:103EB0000E943D204C01689477F8C5CFB60180E29E
:103EC00090E00E9453206A94C0CFF50177FC859161
:103ED00077FE81915F01B60190E00E94532061104E
:103EE0006A94F1E08F1A9108B3CF61917191072E16
:103EF000000C880B990B68CF872CE89484F82AE093
:103F000030E0953739F1572D597F852E903799F04C
:103F100058F49835A9F09F36D9F0F601868197813B
:103F20002B96EFE00C94C31B9837B9F774FC05C0CF
:103F300020E130E00FC0689484F8689482F8F8CFEC
:103F400074FE03C0872D8660882E20E132E002C017
:103F500028E030E0F80187FE10C0619171918191F5
:103F600091918F01FE0131965F01AF010E94832084
:103F70008A19A82EE89487F840CF6191719180E06A
:103F800090E0EFCF882EBA2C84FE46CFFE01EA0DDA
:103F9000F11D8081803309F043C0282D297E822EB7
:103FA00083FC0EC080FE4FC09A2CB61418F4960CF9
:103FB0009B18B62C862D8B196B1408F480E0B80E74
:103FC000B61408F042C06B1884FE41C0B60180E30D
:103FD00090E00E94532082FE09C088E590E081FCB9
:103FE00002C088E790E0B6010E945320A914D8F1DE
:103FF000AA94B12C4FEFA41AB40ACE0101964C0139
:10400000A80EB91EF50182915F01B60190E00E94F1
:1040100053208A149B04B1F71ECFB92C882EB6CF3B
:1040200082FC02C0B394BCCFB394B394B9CFB92C83
:10403000882EF2CEB60180E290E00E945320739465
:104040007614C0F3B7CF7B2CFBCF612CBDCF882D6E
:104050008678811559F280E281FC8BE287FC8DE243
:10406000B60190E0C1CFB60180E390E00E945320FA
:104070009A94BCCF8FEF9FEF53CFFC010590615016
:1040800070400110D8F7809590958E0F9F1F08956E
:10409000FC016150704001900110D8F78095909517
:1040A0008E0F9F1F08950F931F93CF93DF93182FA9
:1040B000092FEB018B8181FD09C01FEF0FEF812FCD
:1040C000902FDF91CF911F910F91089582FF14C01F
:1040D0002E813F818C819D81281739073CF4E8812E
:1040E000F981CF0101969983888310838E819F8106
:1040F00001969F838E83E3CFE885F985812F09950B
:10410000892BA1F3DACFFA01AA27283051F1203107
:1041100081F1E8946F936E7F6E5F7F4F8F4F9F4F5B
:10412000AF4FB1E03ED0B4E03CD0670F781F891F9D
:104130009A1FA11D680F791F8A1F911DA11D6A0F6B
:10414000711D811D911DA11D20D009F468943F911E
:104150002AE0269F11243019305D3193DEF6CF011D
:104160000895462F4770405D4193B3E00FD0C9F7E3
:10417000F6CF462F4F70405D4A3318F0495D31FD50
:104180004052419302D0A9F7EACFB4E0A6959795A3
:10419000879577956795BA95C9F700976105710579
:1041A00008959B01AC010A2E0694579547953795C3
:1041B0002795BA95C9F7620F731F841F951FA01D1D
:0641C0000895F894FFCF02
:1041C600FFFFFFFFFFFFFFFFFEFF00000000AF1035
:1041D600FC1080108F103F106C105E100000000065
:1041E600F407FC103F0342036D0CE108390CBE09CD
:1041F600760A340A4303F308330EB40E2A0BB80AC0
:10420600A40DE004FD047505A112BA0E302D256C2F
:104216007520487A202028256420487A2F6261720A
:1042260029002D2D2D20487A00256420487A005734
:10423600616974696E6720666F7220646174612EAD
:044246002E2E000018
:107E000011248FE594E09EBF8DBF84B714BE81FF1F
:107E1000EFD085E08EBD82E08BB988E18AB996E823
:107E200090BD90E199B981BD8EE081BDBD9A86E09B
:107E300040E35CEF34E020E25DBD4CBD38BF08B6E6
:107E400002FEFDCF98B3922798BBA8958A95A1F71B
:107E5000C0E0D0E0CC24C39495E0B92E21E1A22E5D
:107E600033E0D32E48E1942E58E0852EA5D08535F9
:107E700081F160F4853451F128F48134A1F0823429
:107E800011F192C0813509F48BC08EC0843709F49A
:107E90006AC028F4863531F1843649F185C08537CA
:107EA00009F476C081C088D0182F8DD0123819F40B
:107EB00084E07ED07AC0113819F484E079D075C09E
:107EC00083E076D072C084E188D06FC085E085D031
:107ED0006CC072D0C82FD0E06FD0D82BCC0FDD1F74
:107EE00072D063C084E079D080E062D05EC064D09C
:107EF00063D0782E61D000E011E0C11528E1D207EF
:107F000030F4FE01D7BEE89500E011E000C0780132
:107F10000F5F1F4F51D0F70180837012F8CFC1154A
:107F2000F8E1DF0718F0FE01D7BEE8954CD007B6A0
:107F300000FCFDCFFE0180E091E0DC0102962D9176
:107F40003C910901C7BEE89511243296803421E0A6
:107F5000920799F7FE01B7BEE89507B600FCFDCF82
:107F6000A7BEE89522C028D027D0182F25D02BD027
:107F70007E010C2F010FF7012FEFE21AF20A849114
:107F800017D00E11F8CF21961150C10FD11D0DC081
:107F90001AD08EE10DD083E90BD087E009D005C05F
:107FA00091BC81BC10D001C00ED080E101D05ECF69
:107FB0005D9BFECF8CB908955F9BFECF5C9901C09D
:107FC000A8958CB10895F8DF803229F088E181BD51
:107FD00088E081BDFFCF84E1EBCFCF93C82FECDFEA
:107FE000CA95E9F7CF91EFCF98E191BD81BD089592
:0C7FF00088E181BD11BCEE27FF27099439
:027FFE00040479
:0400000300007E007B
:00000001FF
