:100000000C946A000C947C000C947C000C947C0092
:100010000C947C000C947C000C947C000C947C0070
:100020000C947C000C947C000C947C000C947C0060
:100030000C947C000C947C000C947C000C947C0050
:100040000C947C000C947C000C947C000C947C0040
:100050000C947C00000000000000001F0000000065
:1000600000001F1F00000000001F1F1F00000000F5
:100070001F1F1F1F0000001F1F1F1F1F00001F1F2B
:100080001F1F1F1F001F1F1F1F1F1F1F1F1F1F1F9F
:100090001F1F1F1F0000F918FB301C47825A6D6A92
:1000A0004276897DFF7F897D42766D6A825A1C4740
:1000B000FB30F918FF7F897D42766D6A825A1C47B2
:1000C000FB30F918000007E705CFE4B87EA593954B
:1000D000BE89778211241FBECFE5D8E0DEBFCDBF39
:1000E00020E0A0E6B0E001C01D92A03FB207E1F71A
:1000F0000E945E030C94A6050C940000FC01672B83
:1001000009F047C0869708F08AC0E855FA4F0C946A
:100110006E05D8980895D9980895DA980895DB98CF
:100120000895DC980895DD980895DE980895DF9885
:100130000895C0980895C1980895C2980895C398E5
:100140000895C4980895C5980895C6980895C798C5
:100150000895A8980895A9980895AA980895AB9825
:100160000895AC980895AD980895AE980895AF9805
:100170000895909808959198089592980895939865
:100180000895949808959598089596980895979845
:100190000895869708F043C0E253FA4F0C946E0519
:1001A000D89A0895D99A0895DA9A0895DB9A08950D
:1001B000DC9A0895DD9A0895DE9A0895DF9A0895ED
:1001C000C09A0895C19A0895C29A0895C39A08954D
:1001D000C49A0895C59A0895C69A0895C79A08952D
:1001E000A89A0895A99A0895AA9A0895AB9A08958D
:1001F000AC9A0895AD9A0895AE9A0895AF9A08956D
:10020000909A0895919A0895929A0895939A0895CC
:10021000949A0895959A0895969A0895979A0895AC
:10022000CF93C82F61E070E080FD02C060E070E015
:1002300080E090E00E947E0061E070E0C1FD02C0BD
:1002400060E070E081E090E00E947E0061E070E09C
:10025000C2FD02C060E070E082E090E00E947E009B
:1002600061E070E0C3FD02C060E070E083E090E018
:100270000E947E0061E070E0C4FD02C060E070E0BA
:1002800082E290E00E947E0061E070E0C5FD02C065
:1002900060E070E083E290E00E947E0061E070E048
:1002A000C6FD02C060E070E084E290E00E947E0043
:1002B00061E070E0C7FD02C060E070E085E290E0C0
:1002C000CF910C947E00CF93C82F60E070E08AE15C
:1002D00090E00E947E008C2F0E94100161E070E08F
:1002E0008BE190E00E947E008FE99FE00197F1F79B
:1002F00000C0000060E070E08BE190E00E947E00B2
:100300008FE99FE00197F1F700C00000CF910895B9
:1003100081E00C946301982F862F913019F4805856
:100320000C946301923011F48054FACF089560E088
:1003300070E08AE190E00E947E0060E070E08BE176
:1003400090E00E947E002FEF89EF90E021508040E6
:100350009040E1F700C0000080E30E9463018FE15C
:100360009EE40197F1F700C0000080E30E94630162
:100370008FE99FE00197F1F700C0000080E30E9441
:1003800063018FE39CE90197F1F700C0000088E367
:100390000E9463018CE00E94630181E00E9463017E
:1003A00086E00C946301CF93C82F61E070E08AE18E
:1003B00090E00E947E008C2F0E94100161E070E0AE
:1003C0008BE190E00E947E008FE99FE00197F1F7BA
:1003D00000C0000060E070E08BE190E00E947E00D1
:1003E0008FE99FE00197F1F700C00000CF910895D9
:1003F000CF93DF93EC018991811103C0DF91CF91FD
:1004000008950E94D301F7CF8CE10C94630188E139
:100410000C946301CF93C82F61E070E080FD02C0AF
:1004200060E070E082E290E00E947E0061E070E0B7
:10043000C1FD02C060E070E083E290E00E947E00B7
:1004400061E070E0C2FD02C060E070E084E290E034
:100450000E947E0061E070E0C3FD02C060E070E0D9
:1004600085E290E0CF910C947E00CF93C82F60E09E
:1004700070E08AE190E00E947E008C2F82958F7060
:100480000E940A0261E070E08BE190E00E947E0031
:1004900087EC90E00197F1F700C0000060E070E0A9
:1004A0008BE190E00E947E0087EC90E00197F1F7ED
:1004B00000C000008C2F8F700E940A0261E070E083
:1004C0008BE190E00E947E0087EC90E00197F1F7CD
:1004D00000C0000060E070E08BE190E00E947E00D0
:1004E00087EC90E00197F1F700C00000CF910895EC
:1004F000CF93C82F60E070E08AE190E00E947E0018
:100500008C2F0E940A0261E070E08BE190E00E9473
:100510007E008FE99FE00197F1F700C0000060E0E6
:1005200070E08BE190E00E947E008FE99FE00197F0
:10053000F1F700C00000CF91089580E00E9478029A
:1005400081E00C947802CF93C62F813069F480E863
:100550008C0F85958595859585950E9478028C2FC1
:100560008F70CF910C947802823011F480ECF0CF30
:10057000CF91089580E00E940A022FEF89EF90E06A
:10058000215080409040E1F700C0000083E00E94CD
:1005900078028FE19EE40197F1F700C0000083E04C
:1005A0000E9478028FED9BEA0197F1F700C00000EE
:1005B00083E00E94780282E00E94780282E00E943A
:1005C000780288E00E94780280E00E9478028CE045
:1005D0000E94780280E00E94780286E00C94780203
:1005E000CF93C82F61E070E08AE190E00E947E0026
:1005F0008C2F85958595859585950E940A0261E0E9
:1006000070E08BE190E00E947E008FE99FE001970F
:10061000F1F700C0000060E070E08BE190E00E9424
:100620007E008FE99FE00197F1F700C000008C2F5A
:100630008F700E940A0261E070E08BE190E00E94FE
:100640007E008FE99FE00197F1F700C0000060E0B5
:1006500070E08BE190E00E947E008FE99FE00197BF
:10066000F1F700C00000CF910895CF93DF93EC0124
:100670008991811103C0DF91CF9108950E94F0020A
:10068000F7CF81E00E9478028CE00C94780281E040
:100690000E94780288E00C947802D09880E487B9B0
:1006A00085E886B9089597B18F70907F892B87B9B7
:1006B000369A3699FECF84B195B10895CDB7DEB79D
:1006C000AD970FB6F894DEBF0FBECDBF8FEF84BBE2
:1006D00081BB0E94BA020E944D0300E010E0802F0F
:1006E00080640E94350298012C5A3F4F6901E8E06E
:1006F000FE2EF60184910E94F002FA94FFEFCF1AC9
:10070000DF0AF110F6CF085F1F4F0034110539F7EB
:1007100080E80E9435020E949D0220EB30E03AA35F
:1007200029A340E750E05CA34BA37A01890180E054
:100730000E9453039250D8018D939D938D01F70130
:10074000119211927F01A05FB04089F7A0E7B0E05D
:1007500070EBC72E70E0D72E00E0FF24F39480E109
:1007600001C08695102F182308271111FACFF01613
:1007700010F5F60142815381802F90E0880F991F78
:100780009C0120553F4FF90160817181F60173830F
:100790006283F9015183408312962D913C91139706
:1007A00080599F4FFC014081518113965C934E9379
:1007B000129731832083F394F2E0CF0ED11C12966E
:1007C00020E2F212CCCF35E0232E312C02E0502E65
:1007D0005694602F70E080E290E00E9438056BA78D
:1007E000612C452D50E05DA74CA7412C712CAAC06F
:1007F000842D90E0880F991FFC01EC54FF4FC590A9
:10080000D590FC01EC56FF4F45915591E22FF0E059
:100810008CA59DA5820F911D880F991FDC01A05505
:10082000BF4FB8A7AFA32D913C913EA32DA3DC01F0
:10083000A059BF4FBAA7A9A7ED90FC909601ADA112
:10084000BEA10E9474054B015C019A01D7010E9470
:100850007405860E971EA81EB91E8FE0B594A79446
:10086000979487948A95D1F796010E9474056B013D
:100870007C012DA13EA1DA010E947405C61AD70A97
:10088000E80AF90AB701A6019FE0759567955795A3
:1008900047959A95D1F7EE0FFF1F9F0120553F4FC7
:1008A000D9018D919C91092E000CAA0BBB0B6C01F8
:1008B0007D01C818D908EA08FB08F594E794D79495
:1008C000C794AFA1B8A5CD92DC92E059FF4F8081CB
:1008D0009181092E000CAA0BBB0B6C017D01C41A7F
:1008E000D50AE60AF70AF594E794D794C794A9A520
:1008F000BAA5CD92DC92D9018D919C91092E000C64
:10090000AA0BBB0B6C017D01C80CD91CEA1CFB1C9B
:10091000F594E794D794C794D901CD92DC92808165
:100920009181092E000CAA0BBB0B840F951FA61FEB
:10093000B71FB595A79597958795918380837394F5
:100940004BA5440E272D260D571052CF600E50E2B6
:10095000651608F44ACF000F81E0281A310809F023
:1009600036CFDE0111967D01FD0121E030E0A9A125
:10097000BAA18D919D91BAA3A9A397FF03C09195A8
:1009800081959109ABA1BCA14D915D91BCA3ABA395
:1009900057FF03C0519541955109481759070CF06D
:1009A00064C055954795840F951F8193919328179F
:1009B000390708F49C0149A15AA1405D5040B9F69D
:1009C00040E6C42E40E0D42E470190E2890E911CEF
:1009D00056012901612C712CD7016D917D917D010A
:1009E00080E090E024E0660F771F881F991F2A950A
:1009F000D1F7A30192010E944C0521313105410537
:100A0000510508F020E1F50121935F018E149F0448
:100A100019F7D6010D916D01F12E1F5F612F81E055
:100A20000E94A30280E2093028F0802F083008F4E9
:100A300088E089500E94F00281EC8F0D85958595A4
:100A4000859585950E947802812F8F700E9478028B
:100A500080E2011529F0093008F008E08FEF800FDF
:100A60000E94F0021031A9F658CE959587959BCF3C
:100A700097FB072E16F4009407D077FD09D00E944B
:100A8000920507FC05D03EF4909581959F4F0895FF
:100A9000709561957F4F0895A1E21A2EAA1BBB1B8A
:100AA000FD010DC0AA1FBB1FEE1FFF1FA217B3073A
:100AB000E407F50720F0A21BB30BE40BF50B661F50
:100AC000771F881F991F1A9469F760957095809514
:100AD00090959B01AC01BD01CF010895EE0FFF1F62
:100AE0000590F491E02D09940E947C05332312F4C3
:100AF0008A1B9B0B0C948D05A29FB001B39FC00174
:100B0000A39F700D811D1124911DB29F700D811D39
:100B10001124911D08950E947C05B7FF0895821B42
:100B2000930B0895AA1BBB1B51E107C0AA1FBB1F53
:100B3000A617B70710F0A61BB70B881F991F5A9569
:100B4000A9F780959095BC01CD010895F894FFCF49
:100B500089008B008D008F00910093009500970015
:100B60000F010F0199009B009D009F00A100A300B1
:100B7000A500A7000F010F01A900AB00AD00AF0059
:100B8000B100B300B500B7000F010F01B900BB0001
:100B9000BD00BF00C100C300C500C700D000D20027
:100BA000D400D600D800DA00DC00DE000F010F010F
:100BB000E000E200E400E600E800EA00EC00EE00FD
:100BC0000F010F01F000F200F400F600F800FA0047
:100BD000FC00FE000F010F010001020104010601EB
:080BE00008010A010C010E01DD
:00000001FF
