:100000000C942A000C943F000C943F000C943F0089
:100010000C943F000C943F000C943F000C943F0064
:100020000C943F000C943F000C943F000C943F0054
:100030000C943F000C943F000C943F000C943F0044
:100040000C943F000C943F000C943F000C943F0034
:100050000C943F0011241FBECFE5D8E0DEBFCDBF1A
:1000600010E0A0E6B0E0E8E5F5E002C005900D92F2
:10007000A03AB107D9F70E9445000C94AA020C944B
:1000800000005D9BFECF8CB90895CDB7DEB7C05997
:10009000D1090FB6F894DEBF0FBECDBF87B38C7FFA
:1000A00087BBC09AC19882E08BB910BC81E089B946
:1000B00088E08AB986E880BD80E687B982E886B99B
:1000C00082E590E09BBD8ABD1DBC1CBC1FBC89E0C5
:1000D0008EBD80E188BF21E090E1F92E1E0131E85C
:1000E000230E311CBE016F5F7F4F6B018827B199D2
:1000F0008395806687B983E0369A3699FECF8A95D4
:10010000D9F7F8BE8E010F5B1F4FF80108B604FE49
:10011000FDCFF8BE369A86B1782F7074E72E86FD33
:10012000FACF85B18058082E000C990B81939193DA
:100130002E163F0659F786B381702130C1F5811123
:1001400038C084E1A7EAB1E61197F1F700C00000DA
:100150008A95C1F78FEF0E944100F801A12CB12CC4
:1001600081919191A80EB91E2E163F06C9F785E020
:10017000B594A7948A95E1F7F801819191918F0147
:100180008A199B0980589F4F97FDADC08D3F9105FF
:100190000CF0ABC00E9441002016310669F78FE0D9
:1001A00097E20197F1F700C000002E2D9FCF811537
:1001B00089F280E4D6011D928A95E9F7F80140E0C2
:1001C00050E081919191480F591F2E163F06C9F7B3
:1001D000B5E055954795BA95E1F75801E0E1F0E0B3
:1001E000D5012D913D915D013D01B2E06B1A710881
:1001F000DF01AE73BB27A05ABF4FAC916FE7462E0D
:10020000512C4A1A5108A7FD5394D201B595A795D0
:10021000241B350B0E948C02A7E095958795779556
:100220006795AA95D1F7D3016D937C933296E0350B
:10023000F105B1F64601D801B12C80E1E81608F0CD
:100240007AC0E80EB3941296F2E08F0E911C8FE103
:10025000482EB4104CC0A5E08A2E912C51E0E52E1A
:10026000550FA12CB12C4A2DAE1408F467C031E013
:10027000831A9108A1F78EEF0E94410051E4652E88
:10028000712C6C0E7D1E42E0640E711C5E0163E0F9
:10029000A60EB11C0E5D1F4FD5012D913D915D0144
:1002A000F301819191913F0197FF03C09195819551
:1002B000910937FF03C0319521953109820F931FB2
:1002C0009C0143E0369527954A95E1F7883E974093
:1002D00008F02CEF822F0E94410006151705E1F669
:1002E000EE24E39462CF80E055CF8CEF53CFBE1461
:1002F00008F0A3CF8E2D90E0880F991F9801280F4A
:10030000391FF901408151816D917C911197718361
:10031000608311965C934E938C0D9D1DFC01208192
:100320003181F40140815181FC0151834083F4010A
:100330003183208382CFE81A869580CFC501082CAF
:1003400002C0880F991F0A94E2F7FC017096EF73C0
:10035000FF27E05AFF4F2081FC01EF73FF27E05A8F
:10036000FF4F8081682E772461940CF47094CB57F2
:10037000DF4F79826882C558D040E22F220FFF0BF1
:10038000C557DF4FF983E883CB58D0408E2D840FBB
:1003900090E0880F991F71E4472E512C4C0E5D1E82
:1003A000480E591EC957DF4F59824882C758D0405E
:1003B000D201ED91FC912601480E591EC757DF4F1F
:1003C00059824882C958D040D2010D90BC91A02DCD
:1003D000CF57DF4FB983A883C158D040C557DF4FEF
:1003E00028813981CB58D040DF010E948C022B013B
:1003F0003C01CB57DF4F28813981C558D040CF57BA
:10040000DF4FA881B981C158D0400E948C02461AA2
:10041000570A680A790AC301B20127E095958795C2
:10042000779567952A95D1F7C357DF4F688379830E
:100430008A839B83CD58D040C557DF4F28813981AF
:10044000CB58D0400E948C02CF57DF4F688379830E
:100450008A839B83C158D0409F01CB57DF4FA8812F
:10046000B981C558D0400E948C02CF57DF4F4880D9
:1004700059806A807B80C158D040640D751D861DEF
:10048000971D37E095958795779567953A95D1F7BC
:10049000E42FF0E0DF01AA0FBB1FF1E46F2E712CF7
:1004A0006C0E7D1E6A0E7B1EF30120813181C357C5
:1004B000DF4F48805980CD58D04024193509C9579D
:1004C000DF4FE881F981C758D04031832083FD0197
:1004D000EC0DFD1D20813181261B370BC757DF4FE7
:1004E000A881B981C958D0402D933C93D3012D9157
:1004F0003C911197240D351D2D933C932081318122
:10050000260F371F31832083450F403208F43ECF3A
:100510002FEFA21AB20AA7CE0E949402332312F43C
:100520008A1B9B0B0C94A502A29FB001B39FC00134
:10053000A39F700D811D1124911DB29F700D811D0F
:100540001124911D08950E949402B7FF0895821B03
:08055000930B0895F894FFCF0E
:10055800000C1925313C47515A626A70757A7D7EC4
:100568007F7E7D7A75706A625A51473C3125190C35
:1005780000F4E7DBCFC4B9AFA69E96908B86838242
:10058800818283868B90969EA6AFB9C4CFDBE7F4B1
:00000001FF
