:100000000C942A000C943F000C943F000C943F0089
:100010000C943F000C943F000C943F000C943F0064
:100020000C943F000C943F000C943F000C943F0054
:100030000C943F000C943F000C943F000C943F0044
:100040000C943F000C943F000C943F000C943F0034
:100050000C943F0011241FBECFE5D8E0DEBFCDBF1A
:1000600010E0A0E6B0E0E8EDF0E002C005900D92EF
:10007000A637B107D9F70E945A000C946A000C9475
:10008000000010BC8CE089B9599A88E08AB986E8EA
:1000900080BD08955D9BFECF8CB90895CF93DF930B
:1000A000EC018991811103C0DF91CF9108950E94E5
:1000B0004A00F7CF0E94410080E690E00E944E0087
:1000C0002FE38DE093E0215080409040E1F700C0A5
:0800D0000000F2CFF894FFCF0D
:1000D80048454C4C4F2046524F4D2041544D4547C2
:0600E8004133320D0A0055
:00000001FF
