:100000000C942A000C9447000C9447000C94470071
:100010000C9447000C9447000C9447000C94AE00DD
:100020000C9447000C9447000C9447000C94470034
:100030000C9447000C9447000C9447000C94470024
:100040000C94BA000C9447000C9447000C944700A1
:100050000C94470011241FBECFE5D8E0DEBFCDBF12
:1000600010E0A0E6B0E0E8E0F2E102C005900D92F9
:10007000A03BB107D9F725E0A0EBB0E001C01D928D
:10008000AA3DB207E1F70E942D050C94C6080C9416
:10009000000010BC89E189B988E08AB986E880BD92
:1000A00008955D9BFECF8CB90895CF93DF93EC014B
:1000B0008991811103C0DF91CF9108950E94510071
:1000C000F7CFCF93DF9300D000D0CDB7DEB7282F86
:1000D000843680F164E60E94BA08805D898381E0FD
:1000E00031E0380FFE013196E80FF11D4AE0822F12
:1000F000642F0E94BA080E94BA08905D9083FE01A6
:100100003196E30FF11D822F6AE00E94BA08905DDC
:1001100090833F5FFE013196E30FF11D1082CE0107
:1001200001960E9455000F900F900F900F90DF9155
:10013000CF91089530E08A3010F380E0D1CF80E491
:1001400087B98FE886B908951FBC89E08EBD8FEC12
:1001500097E09BBD8ABD80E189BF08958F931F9270
:1001600080E0182E8091D800811101C0369A1F902E
:100170008F9118951F921FB61F9211242F938F9362
:100180009F93EF93FF9384B195B12091D8002111F3
:1001900017C0E091D900F0E0EE0FFF1FE652FF4FCD
:1001A000918380838091D9008F5F8093D900809163
:1001B000D90087FF05C01092D90081E08093D80054
:1001C000FF91EF919F918F912F911F901FBE1F90D4
:1001D0001895EF92FF920F931F93CF93DF93F894AC
:1001E0009AEDE92E93E0F92E0AED11E0C0E0D0E09F
:1001F000FE01EE0FFF1FE652FF4F6081718180E02C
:1002000090E00E946106F70161937193819391934D
:100210007F01F80111921192119211928F01219692
:10022000C038D10529F71092D8007894DF91CF918A
:100230001F910F91FF90EF900895CF92DF92EF9270
:10024000FF920F931F93CF93DF93CAEDD3E08E01FC
:10025000B0E0A0E0F12CE12CF80121913191419125
:1002600051918F016B2F7A2F8F2D9E2D0E944A0561
:10027000B62FA72FF82EE92EF5E00A3D1F0761F7EC
:1002800020E030E040E05CE30E94AF076B018C01AE
:1002900069917991899199917E0124E0E21AF1089E
:1002A0009601A8010E944905F7016083718382834A
:1002B0009383F5E0CA3DDF0759F7DF91CF911F9196
:1002C0000F91FF90EF90DF90CF9008958F929F92C3
:1002D000AF92BF92EF92FF920F931F93CF93DF9352
:1002E0000AED13E0C0E0D0E0BE010D2E000C880B3B
:1002F000990B0E9463062BED3FE049EC50E40E940D
:10030000AF0720E030E04EEF52E40E94C0050E94AB
:10031000BB05F80181909190A190B1908F017F0170
:10032000F4E0EF1AF1089B01AC0160E070E080E8B6
:100330009FE30E94490520E030E040E05FE30E9437
:10034000AF07A50194010E94AF07F7016083718395
:10035000828393832196C038D10531F6DF91CF9106
:100360001F910F91FF90EF90BF90AF909F908F9053
:1003700008958F929F92AF92BF92CF92DF92EF92A9
:10038000FF920F931F93CF93DF93AAEDB3E0CAEDD3
:10039000D1E080E021E090E401C09695382F392328
:1003A00089273111FACF281778F51496CD90DD9072
:1003B000ED90FC90179794E0899F80011124A8018B
:1003C00046525C4FFA0180809180A280B3801496DF
:1003D0008D929D92AD92BC921797C082D182E2829B
:1003E000F3824C815D816E817F81F801E652FE4F80
:1003F000C080D180E280F380CC82DD82EE82FF82F9
:1004000040835183628373832F5F14962496203830
:1004100011F6DF91CF911F910F91FF90EF90DF9038
:10042000CF90BF90AF909F908F9008952F923F9262
:100430004F925F926F927F928F929F92AF92BF92F4
:10044000CF92DF92EF92FF920F931F93CF93DF93A0
:10045000CDB7DEB7AE970FB6F894DEBF0FBECDBFF7
:100460000E94B90127E030E03C872B8742E0242E30
:10047000312CB10180E090E00E9461069B01AC014B
:100480006BED7FE089EC90EC0E94C0058B018A83C4
:1004900099830E94BB0569A37AA38BA39CA3B8018F
:1004A0008A8199810E941C086DA37EA38FA398A7BF
:1004B000A101569547955CA74BA7C101880F991FCD
:1004C000880F991F988F8F8BEAEDF3E0FE8BED8BF1
:1004D0002AED31E03A8F298FA101440F551F5C8F1F
:1004E0004B8F1A8A198AEB8DFC8DFA87E987298D43
:1004F0003A8D3C8B2B8B4D895E895E874D87188AA0
:100500001F8600E010E01AA619A6C12CD12C80E8A5
:100510009FE304C1E985FA85E652FC4FFE8FED8F1B
:10052000408051806280738029853A8526523E4FF3
:1005300038A32F8FF90180809180A280B380C98277
:10054000DA828B839C839601AC01C301B2010E94C5
:10055000AF076B017C010D831E83FAA5FF8329A5DC
:10056000288798014F2F5885C501B4010E94AF0715
:100570009B01AC01B601C7010E9449056B0189A727
:100580009AA79F818885202F312F492F582FC3018B
:10059000B2010E94AF078B018EA79DA779816A8166
:1005A0009B818C81272F362F492F582FC501B401ED
:1005B0000E94AF079B01AC01B8018EA59DA50E94CA
:1005C0004A058B018EA79DA7ED85FE854190519030
:1005D00061907190FE87ED87EB89FC898190919005
:1005E000A190B190FC8BEB8BED84FE84F4E0EF1ACC
:1005F000F108A3019201B60189A59AA50E944A05B6
:10060000F7016083718382839383EB88FC88F4E035
:10061000EF1AF108A5019401B8018EA59DA50E94CD
:100620004A05F7016083718382839383960149A50C
:100630005AA5C301B2010E944905ED8DFE8D60836C
:1006400071838283938398014EA55DA5C501B40192
:100650000E944905EF8DF8A16083718382839383A3
:1006600029A13AA14BA15CA1B981AA81FB81EC81AE
:100670006B2F7A2F8F2F9E2F0E94AF078B018F8FAA
:100680009D8F2DA13EA14FA158A5BD81AE81FF81B7
:10069000E8856B2F7A2F8F2F9E2F0E94AF079B012B
:1006A000AC01B8018F8D9D8D0E9449056B017C01C5
:1006B0002DA13EA14FA158A5B981AA81FB81EC8152
:1006C0006B2F7A2F8F2F9E2F0E94AF078B018A836B
:1006D000998329A13AA14BA15CA1BD81AE81FF8183
:1006E000E8856B2F7A2F8F2F9E2F0E94AF079B01DB
:1006F000AC01B8018A8199810E944A058B018AA7C1
:1007000099A72F8538892F5F3F4F388B2F874985D1
:100710005A854C5F5F4F5A874987C701EBA5FCA5F7
:100720002F853889E217F30709F0F4CE49895A89F1
:10073000420D531D5A8B498B8D899E89EF89F88D07
:100740008E0F9F1F9E8B8D8B298D3A8D2E0F3F1FF5
:100750003A8F298F4B8D5C8D4E0F5F1F5C8F4B8FB7
:1007600089899A898038910508F4BDCE220C331C02
:100770008B859C8501979C878B87892B09F079CE87
:10078000AE960FB6F894DEBF0FBECDBFDF91CF910E
:100790001F910F91FF90EF90DF90CF90BF90AF909F
:1007A0009F908F907F906F905F904F903F902F9091
:1007B00008954F925F926F927F929F92AF92BF92F5
:1007C000CF92DF92EF92FF920F931F93CF93DF931D
:1007D000E0EBF0E088E2DF011D928A95E9F724E082
:1007E000C22ED12C99249394692D70E080E090E082
:1007F0000E94610620E030E04AEF55E40E94AF0716
:1008000020E030E040E05CE30E94AF07162F072FA6
:10081000F82EE92E20E030E04AE753E40E94B605C6
:1008200087FD72C020E030E04AE755E4612F702F69
:100830008F2D9E2D0E94520718160CF465C090E66D
:10084000A92E90E0B92EC0E0D0E0F5016191719140
:10085000819191915F01212F302F4F2D5E2D0E94AC
:10086000B60518160CF494C0212F302F4F2D5E2D95
:10087000D5016D917D918D919C910E945207181622
:100880000CF086C0F601E652FC4F608171818281D6
:100890009381F601E652FE4F408051806280738062
:1008A0009B01AC010E94AF077B018C01A301920167
:1008B000C301B2010E94AF079B01AC01B701C8019F
:1008C0000E944A050E942A08B62FA72FF82FE92F69
:1008D000CC0FDD1FCC0FDD1FC055DF4F2B2F3A2F64
:1008E0004F2F5E2F6B2F7A2F8F2F9E2F0E94AF07D7
:1008F0009B01AC01688179818A819B810E944A05B4
:10090000688379838A839B839394B4E0CB0ED11C54
:10091000E1E49E1269CFC0EBD0E008ED10E06991F0
:100920007991899199910E942A0820E030E040E86D
:100930005FE30E944A050E945707B62FA72FF82FA2
:10094000E92F7E0184E0E81AF10820E030E040EA77
:1009500051E46B2F7A2F8F2F9E2F0E94AF07D70164
:100960006D937D938D939C9313970C171D07B9F688
:10097000DF91CF911F910F91FF90EF90DF90CF907B
:10098000BF90AF909F907F906F905F904F90089531
:100990002196CA30D10509F058CFB6CF0F931F93D7
:1009A000CF93DF938B01D82FC92F20E030E040EAAE
:1009B00051E40E94B605181674F520E030E042E8D4
:1009C00052E4B8018D2F9C2F0E94520787FF25C04B
:1009D00020E030E040EA51E4B8018D2F9C2F0E94C6
:1009E000490520E030E044E352E40E94C00520E0E5
:1009F00030E044EB52E40E94AF0720E030E040E0FA
:100A00005FE30E944A050E943206862FDF91CF9154
:100A10001F910F91089580E0F9CF8AE5F7CFCF932A
:100A2000DF938CE890E00E945500C0EBD0E0699124
:100A30007991899199910E94CE040E94610080E091
:100A4000C83DD80731F48FE890E0DF91CF910C9446
:100A500055008CE20E945100EACF0E9449000E949A
:100A60009F000E94A400789484E990E00E945500C1
:100A70008091D8008115E1F30E94E9000E941D01D8
:100A80000E9466010E9416020E94D9030E940F056F
:100A9000EFCF5058BB27AA270E9461050C9404078A
:100AA0000E94CB0638F00E94D20620F039F49F3F16
:100AB00019F426F40C94C8060EF4E095E7FB0C94A8
:100AC000C206E92F0E94290758F3BA176207730775
:100AD0008407950720F079F4A6F50C944B070EF4E3
:100AE000E0950B2EBA2FA02D0B01B90190010C013E
:100AF000CA01A0011124FF27591B99F0593F50F456
:100B0000503E68F11A16F040A22F232F342F4427AD
:100B1000585FF3CF469537952795A795F0405395A5
:100B2000C9F77EF41F16BA0B620B730B840BBAF075
:100B30009150A1F0FF0FBB1F661F771F881FC2F7E0
:100B40000EC0BA0F621F731F841F48F487957795F4
:100B50006795B795F7959E3F08F0B0CF9395880FAE
:100B600008F09927EE0F9795879508950E949E06A5
:100B700008F481E008950E94DB06E3950C941507C4
:100B80000E94D4050C9404070E94D20658F00E94DB
:100B9000CB0640F029F45F3F29F00C94C2065111B6
:100BA0000C944C070C94C8060E94290768F39923FB
:100BB000B1F3552391F3951B550BBB27AA27621759
:100BC0007307840738F09F5F5F4F220F331F441F66
:100BD000AA1FA9F335D00E2E3AF0E0E832D091509A
:100BE0005040E695001CCAF72BD0FE2F29D0660F87
:100BF000771F881FBB1F261737074807AB07B0E8CA
:100C000009F0BB0B802DBF01FF2793585F4F3AF0CF
:100C10009E3F510578F00C94C2060C944C075F3F40
:100C2000E4F3983ED4F3869577956795B795F79555
:100C30009F5FC9F7880F911D9695879597F908953D
:100C4000E1E0660F771F881FBB1F621773078407D9
:100C5000BA0720F0621B730B840BBA0BEE1F88F7E8
:100C6000E09508950E94310788F09F5798F0B92FBA
:100C70009927B751B0F0E1F0660F771F881F991FD1
:100C80001AF0BA95C9F714C0B13091F00E944B0721
:100C9000B1E008950C944B07672F782F8827B85F31
:100CA00039F0B93FCCF3869577956795B395D9F729
:100CB0003EF490958095709561957F4F8F4F9F4F33
:100CC0000895E89409C097FB3EF49095809570953F
:100CD00061957F4F8F4F9F4F9923A9F0F92F96E988
:100CE000BB279395F695879577956795B795F111FD
:100CF000F8CFFAF4BB0F11F460FF1BC06F5F7F4F9A
:100D00008F4F9F4F16C0882311F096E911C07723AB
:100D100021F09EE8872F762F05C0662371F096E8B4
:100D2000862F70E060E02AF09A95660F771F881F83
:100D3000DAF7880F9695879597F90895990F000827
:100D4000550FAA0BE0E8FEEF16161706E807F9079D
:100D5000C0F012161306E407F50798F0621B730B38
:100D6000840B950B39F40A2661F0232B242B252BB9
:100D700021F408950A2609F4A140A6958FEF811D5C
:100D8000811D089597F99F6780E870E060E00895FD
:100D90009FEF80EC089500240A9416161706180693
:100DA0000906089500240A9412161306140605066F
:100DB00008950C94C8060E943107D8F3E894E0E047
:100DC000BB279F57F0F02AED3FE049EC06C0EE0F3D
:100DD000BB0F661F771F881F28F0B23A62077307A0
:100DE000840728F0B25A620B730B840BE3959A9533
:100DF00072F7803830F49A95BB0F661F771F881FF3
:100E0000D2F790480C946C08092E0394000C11F44E
:100E1000882352F0BB0F40F4BF2B11F460FF04C0D5
:100E20006F5F7F4F8F4F9F4F0895EF93E0FF07C095
:100E3000A2EA2AED3FE049EC5FEB0E9461050E94C7
:100E400004070F90039401FC9058E0E9F1E10C9441
:100E5000A60857FD9058440F551F59F05F3F71F099
:100E60004795880F97FB991F61F09F3F79F0879511
:100E70000895121613061406551FF2CF4695F1DF9A
:100E800008C0161617061806991FF1CF869571052A
:100E9000610508940895E894BB2766277727CB015E
:100EA00097F908950E949E0608F48FEF08950E9416
:100EB000670729ED3BE54EED5EE30C94AF0716F0B6
:100EC0000C946A080C94C80668940C94C2060E949C
:100ED0003107A8F39923C1F3AEF3DF93CF931F93A8
:100EE0000F93FF92C92FDD2788232AF02197660FE1
:100EF000771F881FDAF720E030E040E85FEB9FE3E0
:100F0000883920F0803E38F021968F770E944A057C
:100F1000EEEAF1E104C00E944A05EBEDF1E10E9426
:100F20007F088B01BE01EC01FB2E6F57710975958F
:100F3000771F880B990B0E94630628E132E741E393
:100F40005FE30E94C207AF2D9801AE01FF900F91A1
:100F50001F91CF91DF910E9461050C9404070E94BC
:100F6000C2070C9404070E94CB0638F00E94D206F8
:100F700020F0952311F00C94C2060C94C80611249D
:100F80000C944C070E94290770F3959FC1F3950FAD
:100F900050E0551F629FF001729FBB27F00DB11DFD
:100FA000639FAA27F00DB11DAA1F649F6627B00D8D
:100FB000A11D661F829F2227B00DA11D621F739F76
:100FC000B00DA11D621F839FA00D611D221F749F84
:100FD0003327A00D611D231F849F600D211D822FCB
:100FE000762F6A2F11249F5750409AF0F1F08823F2
:100FF0004AF0EE0FFF1FBB1F661F771F881F91501F
:101000005040A9F79E3F510580F00C94C2060C9405
:101010004C075F3FE4F3983ED4F386957795679548
:10102000B795F795E7959F5FC1F7FE2B880F911D48
:101030009695879597F908959F930E94DB060F90E8
:1010400007FCEE5F0C94150719F416F40C94C8060F
:101050000C946A080E943107B8F39923C9F3B6F3D8
:101060009F57550B87FF0E9478080024A0E640EAAE
:10107000900180585695979528F4805C660F771FED
:10108000881F20F026173707480730F4621B730BC0
:10109000840B202931294A2BA695179407942025E3
:1010A00031254A2758F7660F771F881F20F026172B
:1010B0003707480730F4620B730B840B200D311D8A
:1010C000411DA09581F7B901842F9158880F9695FD
:1010D000879508959F3F31F0915020F4879577953B
:1010E0006795B795880F911D9695879597F90895FF
:1010F00091505040660F771F881FD2F70895DF93F5
:10110000CF931F930F93FF92EF92DF927B018C019D
:10111000689406C0DA2EEF010E94C207FE01E8942F
:10112000A5912591359145915591A6F3EF010E9426
:101130006105FE019701A801DA9469F7DF90EF904D
:10114000FF900F911F91CF91DF9108959F938F93FF
:101150007F936F93FF93EF939B01AC010E94AF07C6
:10116000EF91FF910E947F082F913F914F915F91E6
:101170000C94AF07992778E0880F991F961708F00D
:10118000961B881F7A95C9F780950895F894FFCF2C
:1011900005A84CCDB2D44EB93836A9020C50B9913D
:1011A0008688083CA6AAAA2ABE000000803F080044
:1011B0000000BE922449123EABAAAA2ABECDCCCCD6
:1011C0004C3E00000080BEABAAAAAA3E0000000070
:1011D000BF000000803F0000000000084178D3BB42
:1011E0004387D1133D190E3CC3BD4282AD2B3E68EF
:1011F000EC8276BED98FE1A93E4C80EFFFBE01C4E0
:08120000FF7F3F000000000029
:1012080000007A4333F3A44366A6D94333930F44CB
:101218009A793D4400007A4400F0A44433A3D944A9
:1012280066960F4566763D4500007A45532C002C9E
:10123800450D0A0041544D4547413332415F5350F3
:1012480045435452554D5F52454144590D0A0000DB
:00000001FF
