:100000000C944A010C94A3010C9467010C946701B1
:100010000C9467010C9467010C9467010C948001A7
:100020000C9467010C9467010C9467010C946701B0
:100030000C9467010C9467010C9467010C946701A0
:100040000C9482010C9467010C9467010C94670175
:100050000C9467010500000000000500005F00002F
:1000600005000700070005147F147F1405242A7F6C
:100070002A120523130864620536495620500508E4
:100080000703000005001C224100050041221C005E
:100090000514083E08140508083E08080500B0705D
:1000A0000000050808080808050060600000052039
:1000B00010080402053E5149453E0500427F4000BC
:1000C000057249494946052141494D330518141225
:1000D0007F10052745454539053C4A4949310541C9
:1000E0002111090705364949493605464949291E5E
:1000F000050000140000050040340000050814222B
:1001000041000514141414140541221408000502BA
:1001100001590906053E415D594E057C1211127CBC
:10012000057F49494936053E41414122057F41410C
:10013000413E057F49494949057F09090909053EAD
:1001400041415173057F0808087F0500417F410048
:10015000052040413F01057F08142241057F4040B2
:100160004040057F020C027F057F0408107F053E9A
:100170004141413E057F09090906053E4151215E85
:10018000057F091929460526494949320501017F9C
:100190000101053F4040403F051F2040201F053F13
:1001A0004038403F056314081463050304780403D2
:1001B00005615149454305007F414100050204089E
:1001C0001020050041417F000504020102040540A2
:1001D0004040404005070B00000005205454784083
:1001E000057F2844443805384444442805384444AD
:1001F000287F0538545454180500087E0902051854
:10020000A4A49C78057F080404780500447D400080
:10021000052040403D00057F102844000500417F37
:100220004000057C04780478057C080404780538CF
:100230004444443805FC182424180518242418FCC8
:10024000057C080404080548545454240504043F5C
:100250004424053C4040207C051C2040201C053CDB
:100260004030403C054428102844054C9090907C38
:10027000054464544C4405000836410005000077ED
:1002800000000500413608000504020408040500CA
:100290007F417F0011241FBECFE5D8E0DEBFCDBF78
:1002A00010E0A0E6B0E0EEEEFCE202C005900D9298
:1002B000A439B107D9F725E0A4E9B0E001C01D9247
:1002C000A130B207E1F70E940C110C9434160C9483
:1002D00000008A98929A85B7826085BF8BB7806448
:1002E0008BBF80E687B98EE886B98AE08EBD87EC41
:1002F00090E09BBD8ABD89B7806189BF78940895DD
:10030000369A18951F921FB61F9211248F93EF9360
:10031000FF9385B1E091D500F0E08058EA52FF4F9D
:1003200080838091D5008F5F8093D5008091D50028
:10033000803210F01092D500FF91EF918F911F90B5
:100340001FBE1F9018958F938FB78F939F938091A7
:10035000D40091E089278093D4008091D4008066F6
:1003600087B99F918F918FBF8F911895CF92DF9210
:10037000EF92FF920F931F938B019C0140E050E09E
:1003800060E070E4041715072607370778F080E06F
:1003900090E0DC01411551056105710579F41F916B
:1003A0000F91FF90EF90DF90CF900895A2E07695A7
:1003B000679557954795AA95D1F7E4CF6C017D01D4
:1003C000C40ED51EE61EF71EB695A7959795879580
:1003D0000C151D052E053F0540F00C191D092E09B1
:1003E0003F09840F951FA61FB71FE2E0769567951A
:1003F00057954795EA95D1F7CDCF2F923F924F92DF
:100400005F926F927F928F929F92AF92BF92CF92A4
:10041000DF92EF92FF920F931F93CF93DF93CDB7AD
:10042000DEB761970FB6F894DEBF0FBECDBF1C01DB
:100430004B018C01DB0120E080E090E1891708F09E
:1004400066C0890F2F5F0E5F1F4F12962F31D1F5B7
:10045000F5E0F88B01E00F871F85198B412F440FC2
:100460004F87612F70E080E190E00E94EE152B0134
:10047000A0E7AA2EA0E0BA2EB0E66B2EB0E07B2E4D
:1004800050E0F9895F1346C008890150088B0111BB
:10049000E3CF61960FB6F894DEBF0FBECDBFDF91FC
:1004A000CF911F910F91FF90EF90DF90CF90BF9071
:1004B000AF909F908F907F906F905F904F903F9004
:1004C0002F900895281708F0B8CFF8016081718146
:1004D000E82FF0E06F01CC0CDD1CA1014C0D5D1D7F
:1004E000FA01E080F180F801F182E082FA01718383
:1004F00060834D915C911197F601E80DF91D6081C3
:10050000718111967C936E935183408396CF891BA2
:10051000969594CFD5019C91F3018081452F092FA9
:10052000990F110B18870F83E82F880FFF0BFA879D
:10053000E987403230F05F5FA40CB51C640C751C79
:10054000A0CF8989840F90E0880F991F8101080F3F
:10055000191F1A830983F80100811181F401E80F42
:10056000F91FFE83ED830190F081E02D2F81388506
:10057000D8010E9402166B017C0129853A85DF01B2
:100580000E940216C61AD70AE80AF90A37E0F5945B
:10059000E794D794C7943A95D1F72F8138850E9474
:1005A00002166B877C878D879E8729853A85D801BF
:1005B0000E9402160B851C852D853E85600F711FDC
:1005C000821F931FE7E09595879577956795EA9544
:1005D000D1F7E42FF0E0DF01AA0FBB1F81010A0F62
:1005E0001B1FF801208131812C193D09E981FA8115
:1005F00031832083FD01E80DF91D20813181261B07
:10060000370BAD81BE812D933C93D8012D913C9148
:1006100011972C0D3D1D2D933C9320813181260F88
:10062000371F31832083EF854E0F83CF6695669504
:10063000669590E8699FB00111246F5F7E4FFB01C2
:10064000E80FF11D4083089566956695669590E8DC
:10065000699FB00111246F5F7E4FFB01E80FF11D10
:1006600080810895FF920F931F93CF93DF93C82F3C
:10067000F62E172F042F0E944D1088E70E945B1062
:100680008C2F0E945B10CF2DD12F0C0F1D2F111D11
:1006900089910E945B10C017D107D1F7DF91CF91EC
:1006A0001F910F91FF900C945510CF93DF930F92F1
:1006B000CDB7DEB7898341E0BE016F5F7F4F80E039
:1006C0000E9432030F90DF91CF910895482FE6EFFB
:1006D000F0E06181808191E0980F90830C94160383
:1006E000CF93DF9381E20E94550380E00E9455037F
:1006F0008FE70E94550382E20E94550380E00E942A
:10070000550387E00E945503C1E0D1E040E1BE01FE
:1007100080E40E943203609685E0C130D807B1F7CB
:10072000DF91CF910895811519F08FEA0C9455034C
:100730008EEAFCCFCF93C82F81E80E9455038C2FFF
:10074000CF910C94550387FF8093F6000895803471
:1007500010F48093F7000895CF93C62F0E94A3034F
:100760008C2FCF910C94A7030E9441108EEA0E9417
:10077000550385ED0E94550380EF0E94550388EADA
:100780000E9455038FE30E94550383ED0E94550399
:1007900080E00E9455038DE80E94550384E10E9489
:1007A000550380E40E94550380E20E94550380E0D7
:1007B0000E94550381EA0E94550388EC0E9455036C
:1007C0008AED0E94550382E10E94550381E80E9450
:1007D00055038FEF0E94550389ED0E94550381EF69
:1007E0000E9455038BED0E94550380E20E94550341
:1007F00084EA0E94550386EA0E9455038EE20E9415
:1008000055038FEA0E94550360E080E00E94AC032C
:10081000E6EFF0E086EA90E0938382831086178209
:100820001682118210820895CF93883088F4682F41
:10083000660F660F660F80E00E94AC03C0E040E0E8
:100840006091F7008C2F0E941603CF5FC038B9F774
:10085000CF910895883028F4880F880F880F8093EF
:10086000F70008958091F60008958091F7000895AB
:100870008091F7008695869586950895FF920F934F
:100880001F93CF93DF93162FEA010E94AC03F090E1
:10089000F7000091F6006F2D802F0E942403482F4F
:1008A000177081E090E0A0E0B0E004C0880F991FCD
:1008B000AA1FBB1F1A95D2F7CF3FD10551F4482B81
:1008C0006F2D802FDF91CF911F910F91FF900C948E
:1008D000160380954823F4CFFF920F931F93CF9375
:1008E000DF93D82FC62F142F022FF32E681750F046
:1008F000CD2FD62F07C0402F5F2D612F8C2F0E9448
:100900003E04CF5FDC17B8F7DF91CF911F910F91B5
:10091000FF9008954F925F926F927F928F929F9275
:10092000AF92BF92CF92DF92EF92FF920F931F93FD
:10093000CF93DF93982E862E6801842B87FD58C0B5
:10094000862F822B803408F053C02F5FC22FC61B26
:100950004F5FE42EE918262F2770F22ED62FD87F6E
:10096000AC2EB12C88E090E09C012F193109C21700
:1009700013060CF04EC08A199B090FEF10E002C05D
:10098000159507958A95E2F77C2E0F2C01C0000F74
:100990000A94EAF7402E6D2F892D0E94AC0310E0D7
:1009A0000095E1123CC0F818F70C2F2D2D0F822F67
:1009B00090E0AC01495F5F4F4A155B050CF449C0FC
:1009C0002C17B0F4A81AB90A8FEF90E09C0102C06E
:1009D000220F331FAA94E2F75901A09468E06D0F2B
:1009E000892D0E94AC03C0E0FA2CF0941C1347C080
:1009F000DF91CF911F910F91FF90EF90DF90CF90FB
:100A0000BF90AF909F908F907F906F905F904F902E
:100A1000089588E0782E7F180FEF10E0B6CF509041
:100A2000F7006090F600652D862D0E942403482F64
:100A30003FEFC316D10459F4442981E0860D809319
:100A4000F600652D862D0E9416031F5FAACF402356
:100A5000F4CFD85F6D2F892D0E94AC0300E01017F2
:100A600009F4A3CF6091F7008091F60091E0980F10
:100A70009093F6004C2D0E9416030F5FF0CF00916B
:100A8000F700D091F600602F8D2F0E942403482F8D
:100A90003FEFC316D10459F44A2981E08D0F8093AA
:100AA000F600602F8D2F0E941603CF5F9FCF4F213E
:100AB000F4CF0F931F93982F842F8901691718F093
:100AC000262F692F922F292F482F0E948A041F91C9
:100AD0000F9108952F923F924F925F926F927F9263
:100AE0008F929F92AF92BF92CF92DF92EF92FF923E
:100AF0000F931F93CF93DF93CDB7DEB72B970FB62E
:100B0000F894DEBF0FBECDBF4C016B872C833D83B5
:100B10003090F6006090F700862F830D87FF03C0AA
:100B200020E823192B87042F10E0780137E0E30E2B
:100B3000F11C53E0F594E7945A95E1F7262C26949E
:100B400026942694822D8E0D893028F048E0E40EFC
:100B5000F11CE81AF108862D8770582E6982712CD5
:100B6000FB85EF2FF0E0FF83EE8388E090E09C01AF
:100B70002519310939872887C72CD12C7E141F04E9
:100B800008F469C0222D30E0060D111DC80101973F
:100B900097FD079643E0959587954A95E1F72817C5
:100BA0003907E1F189818034C8F5682F832D0E94CF
:100BB000AC0391E0C91AD108EB85EC9D8001ED9D55
:100BC000100D1124080D191DC12C88E090E07C0146
:100BD000E518F108D090F700F091F600F983BF2EE8
:100BE000B3942B852C1199C00091FF001091000146
:100BF00040E00115110561F06D2D8F2F0E94240337
:100C000041E00130110509F040E041954827409549
:100C1000B092F6006D2D89810E941603662D809199
:100C2000F6002B960FB6F894DEBF0FBECDBFDF9156
:100C3000CF911F910F91FF90EF90DF90CF90BF90D9
:100C4000AF909F908F907F906F905F904F903F906C
:100C50002F900C94AC036981832D0E94AC033B85DB
:100C6000379D6001112456018E819F81A81AB90A0F
:100C7000C80CD91C412CF091F600FA832091F700A2
:100C80002B833B85341115C08091FF0090910001AA
:100C900040E0892B29F0622F8F2F0E942403482FD8
:100CA0006B818A810E9416034981485F498373944E
:100CB00063CFF6012491052C01C0220F0A94EAF7B4
:100CC0002A87711489F0C5010196F401EA0DFB1D14
:100CD000E491F0E0088402C0F595E7950A94E2F704
:100CE000422F4E2B4A875C018C819D81019739F4FC
:100CF0006B818A810E9424039A85982B9A878A8126
:100D00008F5F8093F6004A856B818A810E9416036B
:100D10004394EFEFCE1ADE0AAECF6D2D89810E948B
:100D20002403F8012491B092F60030E00E2C02C0AA
:100D3000359527950A94E2F7482F422B6D2D89812E
:100D40000E941603C3940F5F1F4F44CF7F928F9270
:100D50009F92AF92BF92CF92DF92EF92FF920F934A
:100D60001F93CF93DF93F62EC42FD22F982F942B5F
:100D700097FD5DC0962F922B903408F058C08413D5
:100D800013C09801482F6D2F8F2DDF91CF911F91A8
:100D90000F91FF90EF90DF90CF90BF90AF909F901A
:100DA0008F907F900C945905621312C09801462FC2
:100DB0006C2FDF91CF911F910F91FF90EF90DF90FB
:100DC000CF90BF90AF909F908F907F900C946C04C9
:100DD000C22ED12C262F30E0D617B8F5A9014C1918
:100DE0005D096A01AC2EB12C282F30E0C81780F5C0
:100DF000A9014A195B095A014C155D0574F19F2D33
:100E0000F82E892F9D2FDC2FC92F9F2C9D1A882EFD
:100E10008C1AC81710F08C2E881AE92CE6947724C7
:100E20007394C81710F077247A94FD1630F5DF918B
:100E3000CF911F910F91FF90EF90DF90CF90BF90D7
:100E4000AF909F908F907F900895C21AD30ACACF17
:100E5000A21AB30AAC14BD044CF4DF15B0F29C2FF7
:100E6000C82F892F9D2FDF2DF92ECFCF9C2FCF2D6F
:100E7000F92E9D2FD82F892FC8CFA8016D2F8C2F29
:100E8000AC14BD0414F06C2F8D2F0E943E04E818A2
:100E9000E7FE02C0C70DE90CDF5FC7CFEF92FF92FC
:100EA0000F931F93CF93DF93E82EC62FF42ED22FEC
:100EB000842B87FD22C0862F822B8034F0F498018A
:100EC000462F6F2D8E2D0E946C0498014D2F6F2D93
:100ED0008E2D0E946C0498014E2D6D2F8C2F0E9438
:100EE000590598014F2D6D2F8C2FDF91CF911F91B8
:100EF0000F91FF90EF900C945905DF91CF911F91C6
:100F00000F91FF90EF9008955F926F927F928F9272
:100F10009F92AF92BF92CF92DF92EF92FF920F9388
:100F20001F93CF93DF93982ED62EC42E122F842B8F
:100F300087FD73C0862F822B803408F06EC0802F0F
:100F400090E0880F991FC3E0D0E0C81BD90BB42EE6
:100F5000B01AA92CA00E9701462F6B2D8A2D0E9446
:100F60006C049701412F6B2D8A2D0E946C04101B7D
:100F7000D00E9701492D612F8D2D0E9459059701A3
:100F80004C2D612F8D2D0E945905C12CA7017D2C60
:100F9000701A672D8A2C8C18882D0E943E04A70198
:100FA0009D2C9C18692D5A2C501A852D0E943E04A8
:100FB000A701672D7B2C7C0C872D0E943E04A70186
:100FC000692D9B2C900E892D0E943E04A701612E55
:100FD000600E662D882D0E943E04A701812E8C0C88
:100FE000682D852D0E943E04A701662D872D0E9445
:100FF0003E04A701682D892D0E943E04EC2DF0E0EF
:10100000D7FF1BC0EE0FFF1FEE0FFF1F3696CE0F50
:10101000DF1FC3940C1508F0B9CFDF91CF911F915A
:101020000F91FF90EF90DF90CF90BF90AF909F9087
:101030008F907F906F905F900895E01BF109EE0F05
:10104000FF1FEE0FFF1F3A96CE0FDF1F0150E1CFBB
:10105000AF92BF92CF92DF92EF92FF920F931F93C6
:10106000CF93DF93D82FF62EB42EA22EC02F842F2D
:10107000802B8D2B87FD15C0822F8E29862B8034E7
:1010800080F486018D2F0E94A6062E2D4C2F6A2DEE
:101090008B2D0E94A6062F2D4D2F6E2D8C2F0E947A
:1010A000A606DF91CF911F910F91FF90EF90DF90F7
:1010B000CF90BF90AF9008955F926F927F928F9282
:1010C0009F92AF92BF92CF92DF92EF92FF920F93D7
:1010D0001F93CF93DF93F82EE62EC42FD22F132F1A
:1010E000842F90E04F0D5527551F403851050CF0C7
:1010F0006DC09C01260F311D203431050CF066C0F7
:10110000880F991F21E030E06901C81AD90A8824A4
:101110008394912CA12CB12C00E06E2C600E4D2FED
:10112000512F662D7F2C7C0E872D0E943E044D2F63
:10113000512F662D6F2C6C1A862D0E943E045E2C5A
:10114000501A4D2F512F652D862D0E943E044D2F94
:10115000512F652D872D0E943E046F2C600E4D2F60
:10116000512F7E2C7C0E672D862D0E943E045F2C15
:10117000501A4D2F512F672D852D0E943E044D2F63
:10118000512F7E2C7C1A672D852D0E943E044D2FF9
:10119000512F672D862D0E943E040F5FA80CB91CAD
:1011A00052E0850E911CC501880F991F8C0D9D1D65
:1011B0001816190644F4C1509C012A193B0959011B
:1011C00032E0C30ED11CC01708F0A7CFDF91CF913A
:1011D0001F910F91FF90EF90DF90CF90BF90AF9055
:1011E0009F908F907F906F905F9008951F93CF9303
:1011F000DF93182FD0E0C0E0412F6D2F8C2F0E947D
:101200001603CF5FC038C1F7D85FD034A1F7DF91A4
:10121000CF911F91089580E090E00C94F6080F9311
:101220001F930E948A041F910F9108954F925F921D
:101230006F927F928F929F92AF92BF92CF92DF92E6
:10124000EF92FF920F931F93CF93DF93A82E862EDA
:10125000B42E922EC02F842B87FD4CC0862F822B5C
:10126000803408F047C0802F90E0880F991F23E05A
:1012700030E06901C81AD90AB01AA00E8701292DD9
:101280004B2D8A2D0E948A04D0E09C1A8C0E870177
:10129000492C4C0E242D8A2D8D1B482F582C5C1A5E
:1012A000652D0E94A606692C6D0E262D8A2D8C1B9D
:1012B000482F782C7D1A672D0E94A606242D8B2D91
:1012C0008D0F482F652D0E94A606262D8B2D8C0F85
:1012D000482F672D0E94A606ED2FF0E0D7FE1BC019
:1012E000EE0FFF1FEE0FFF1F3696CE0EDF1EDF5FE5
:1012F000CD1768F6DF91CF911F910F91FF90EF907E
:10130000DF90CF90BF90AF909F908F907F906F9025
:101310005F904F900895EC1BF109EE0FFF1FEE0F49
:10132000FF1F3A96CE0EDF1EC150E1CF2F923F92A3
:101330004F925F926F927F928F929F92AF92BF92E5
:10134000CF92DF92EF92FF920F931F93CF93DF9391
:10135000CDB7DEB769970FB6F894DEBF0FBECDBF2D
:10136000698FF42E288F602FCA86DB86942F902BEE
:10137000982B97FDB9C0922F9E29298D922B9034DE
:1013800008F0B2C0388DE31628F09E2DE32E988F1A
:10139000642FF02E998DE91630F09E2DE98C998FEF
:1013A000962F682F892F262E312CC82ED12CAE2CAB
:1013B000B12CA98D8A2E912C681B770B072E000C5F
:1013C000880B990B0E9447133B018C01B5016819EA
:1013D0007909072E000C880B990B0E9447139B017B
:1013E000AC01B301C8010E949D12688B798B8A8B76
:1013F0009B8B2F2D30E03A832983388D032F10E00B
:10140000C401831B91099F838E83B6016F197109F3
:10141000072E000C880B990B0E944713962EC72E9F
:10142000D82EF92E2E813F81B901330F880B990BED
:101430000E9447139B01AC01692D7C2D8D2D9F2DA2
:101440000E949D126C8B7D8B8E8B9F8B69817A8124
:1014500062197309072E000C880B990B0E94471321
:10146000962EC72ED82EF92EB8016A197B09072EA1
:10147000000C880B990B0E9447139B01AC01692D4E
:101480007C2D8D2D9F2D0E949D12562E7887898749
:10149000492EC12CD12CC101032C000CAA0BBB0B73
:1014A0008C879D87AE87BF87AE2DAC0DAD83B98D80
:1014B000BA1798F5CE80DF8089819A81092E000CB9
:1014C000AA0BBB0B89839A83AB83BC83A88DAE190F
:1014D000BB0B3D014101330CAA08BB08F88CFC0C86
:1014E000388D3F1508F057C069960FB6F894DEBFE7
:1014F0000FBECDBFDF91CF911F910F91FF90EF9065
:10150000DF90CF90BF90AF909F908F907F906F9023
:101510005F904F903F902F900895B6010D2C000CD6
:10152000880B990B0E9447133B014C016C857D850C
:101530008E859F850E9447135B018C01288939891C
:101540004A895B89B301C4010E94FC139501A8017B
:101550000E942C120E941613F62E252D38854985DF
:10156000542DB301C4010E94FC139501A8010E94EF
:101570002C120E941613862F6F1510F08F2DF62E49
:101580000A851B852D814F2D622F0E94A6069FEF95
:10159000C91AD90A89CFB6010D2C000C880B990BFA
:1015A0000E9447132C893D894E895F890E94FC1354
:1015B000E62E072F182F9D8369817A818B819C816C
:1015C0000E9447139B01AC016E2D702F812F9D81CE
:1015D0000E942C120E9416136D83B3016C0D7D1DA9
:1015E000072E000C880B990B0E944713252D388578
:1015F0004985542D0E94FC13362EE72E8C01C5011F
:10160000B4010E9447139B01AC01632D7E2DC801DC
:101610000E942C120E941613862FBD816B1710F0AA
:101620008B2F6D830A851B852F2D4D816F2D0E9479
:10163000A6062FEFC21AD20A51CFAF92BF92CF9215
:10164000DF92EF92FF920F931F93CF93DF93D82FE8
:10165000F62EC42FC22EB32E842F90E04D0F5527A7
:10166000551F40385105BCF4860F911D80349105FB
:1016700094F481E0D82EDC1AAC2EA194AA0C022F8F
:10168000132F2C2F260F4D2F6C1B8D2F0E94A6067B
:10169000E12CEC1658F0DF91CF911F910F91FF9044
:1016A000EF90DF90CF90BF90AF900895D7FC04C02B
:1016B000C150A394A394DA0CE3948E2D880F8F5F0E
:1016C000D80E4D2F4E0D2C2D3B2D0F2D0C1B602FAA
:1016D0001C2F1F0D812F0E9459054D2F4E192C2DA7
:1016E0003B2D602F812F0E9459050F2D0E191F2DA4
:1016F0001E0D2C2D3B2D4C2F4D0F602F812F0E9446
:1017000059052C2D3B2D4D2F4C1B602F812F0E94F6
:101710005905BFCFCF93DF93D82FC62F87E20E9402
:10172000550380E00E9455038D2F0E94550380E0F1
:101730000E9455038C2F0E94550380E00E945503A0
:101740008FEF0E9455038FE2DF91CF910C945503E8
:10175000CF93DF93D82FC62F86E20E94550380E0F7
:101760000E9455038D2F0E94550380E00E9455036F
:101770008C2F0E94550380E00E9455038FEF0E943A
:1017800055038FE2DF91CF910C945503CF93DF93F4
:10179000D82FC62F83EA0E94550380E00E9455038C
:1017A00080E40E9455038AE20E94550380E00E9473
:1017B00055038D2F0E94550380E00E9455038C2F06
:1017C0000E94550381E00E9455038FE2DF91CF9183
:1017D0000C945503CF93DF93D82FC62F83EA0E9432
:1017E000550380E00E94550380E40E94550389E27E
:1017F0000E94550380E00E9455038D2F0E945503DF
:1018000080E00E9455038C2F0E94550381E00E94C6
:1018100055038FE2DF91CF910C9455038EE20C9427
:1018200055038091F8009091F900873A910539F0BD
:1018300087EA8093F8001092F9000C94550386EA29
:10184000F8CF7F928F929F92AF92BF92CF92DF920A
:10185000EF92FF920F931F93CF93DF93F82EE62E14
:10186000481B01E0040F261BD1E0D20F162F177082
:10187000C62FC87FCD2ED12C88E090E09C01211B83
:101880003109D21713060CF045C09C012C193D09F3
:101890008FEF90E002C0959587952A95E2F7AD2EDF
:1018A000B82E012E01C0BB0C0A94EAF76C2F8F2DC5
:1018B0000E94AC03912C901698F11E191A0D2C2F32
:1018C000210F822F90E0AC01495F5F4F4C155D0501
:1018D000DCF12D1788F4C81AD90A8FEF01C0880FE0
:1018E000CA94EAF7C82E68E06C0F8F2D0E94AC03F3
:1018F000C0E0C01708F445C0DF91CF911F910F9150
:10190000FF90EF90DF90CF90BF90AF909F908F901F
:101910007F90089588E0A82EA11A8FEF90E0C0CFA5
:101920007090F7008090F600672D882D0E942403A8
:1019300091E0980D9093F6004B2D4827672D882D48
:101940000E9416039394B7CFC85F6C2F8F2D0E940F
:10195000AC03E12CE01608F0B2CFA090F700B090F5
:10196000F6006A2D8B2D0E94240391E09B0D90932D
:10197000F600482F40956A2D8B2D0E941603E394A4
:10198000E9CF1091F700D091F600612F8D2F0E94C2
:1019900024034C2D482781E08D0F8093F60040955D
:1019A000612F8D2F0E941603CF5FA3CFF90167FD32
:1019B0001EC04034E0F422303105C8F48093FA00B0
:1019C0009093FB006093FC004093FD0050E0CA013F
:1019D000019797FD079623E0959587952A95E1F75E
:1019E0008F5F8093FE00F0930001E093FF00089565
:1019F000E6EFF0E026819085299F900111242F5F6A
:101A00003F4F082E000C990B8097289FA001299F1B
:101A1000500D389F500D11240480F581E02DE40F06
:101A2000F51F84918F5F08950F931F93CF93DF93DA
:101A3000EC0100E010E08991811106C0C801DF913E
:101A4000CF911F910F9108950E94F80C080F111D5E
:101A5000F2CF0F931F93CF93DF93EC01FC0184919E
:101A600000E010E02196811106C0C801DF91CF91FE
:101A70001F910F9108950E94F80C080F111DFE018F
:101A80008491F0CF2F923F924F925F926F927F920C
:101A90008F929F92AF92BF92CF92DF92EF92FF927E
:101AA0000F931F93CF93DF9300D000D0CDB7DEB755
:101AB0002090F600F090F70040EE480F2091FC00D7
:101AC0008091FE00289F900111242F5F3F4F420319
:101AD0008001439F100D112448012FEF821A920AB2
:101AE000E091FA00F091FB00E00FF11F34913B838D
:101AF0006F2D6770662EEF2C1C8288E090E09C01B1
:101B0000261B31093A8329838091FE003C813817D6
:101B100008F455C04F2D46954695469550E02091C6
:101B2000FD002F0D3327331FC901019797FD07963D
:101B300023E0959587952A95E1F74817590711F104
:101B400060E4E616F8F46E2D822D0E94AC038C81C1
:101B5000080F111D198288E090E09C0126193109B7
:101B6000390169818B81681389C08091FF00909150
:101B70000001892B39F440E06091F7008091F60074
:101B80000E94160381E0820D6F2D9B81890F0F90BB
:101B90000F900F900F90DF91CF911F910F91FF90B9
:101BA000EF90DF90CF90BF90AF909F908F907F90FD
:101BB0006F905F904F903F902F900C94AC036E2DE0
:101BC000822D0E94AC0364013C81C30ED11C5601DE
:101BD00061E0A61AB108512C2091FF00309100015C
:101BE0008B8158120FC0232B39F440E06091F7002D
:101BF0008091F6000E94160398E0E90E2C812F5F79
:101C00002C8382CF8091FA009091FB00FC01EC0DB7
:101C1000FD1D4491062C01C0440F0A94EAF7742E6E
:101C20006C81611581F0FC01EA0DFB1DE491F0E08F
:101C3000098002C0F595E7950A94E2F77E2A809123
:101C4000FE00A80EB11C3090F7004090F600213045
:101C5000310529F4632D842D0E942403782A81E024
:101C6000840D8093F600472D632D842D0E9416036A
:101C70008091FE00C80ED11C5394AECFB090F700F7
:101C8000E090F6006B2D8E2D0E942403E091FA0067
:101C9000F091FB00E00FF11FE49191E09E0D909315
:101CA000F600F0E0062C02C0F595E7950A94E2F7FD
:101CB000482F4E2B6B2D8E2D0E9416038091FE0017
:101CC000080F111D39813F5F39834BCFCF93DF93CD
:101CD000EC018991811103C0DF91CF91089520918A
:101CE000F6009091FC00290F3327331F203831056F
:101CF0009CF70E94420DEDCFCF93DF93EC01FE01E4
:101D00008491811103C0DF91CF9108952196209194
:101D1000F6009091FC00290F3327331F203831053E
:101D200094F70E94420DEBCFCF92DF92EF92FF9299
:101D3000CF93DF93CDB7DEB72C970FB6F894DEBF05
:101D40000FBECDBF462F572FBC0141155105610570
:101D5000710579F480E32C960FB6F894DEBF0FBEC0
:101D6000CDBFDF91CF91FF90EF90DF90CF900C949B
:101D7000420D41155105610520E8720709F4B6C00E
:101D8000CE0101962CE0FC0111922A95E9F720E39F
:101D9000298330E077FF08C0709560955095419594
:101DA0005F4F6F4F7F4F31E020E34115FAEC5F0743
:101DB000FAE96F07FBE37F07ACF06A017B012AECCD
:101DC000D21A2AE9E20A2BE3F20AC114EAECDE068F
:101DD000EAE9EE06EBE3FE060CF495C054596543C0
:101DE000774722E32A8320E3E1E0E20F4115F1EE99
:101DF0005F07F5EF6F07F5E07F070CF088C02B83D6
:101E000020E3E1E0E20F4038F6E95F07F8E96F0709
:101E100071050CF081C02C8320E3E1E0E20F403437
:101E2000F2E45F07FFE06F0771050CF07BC02D83C4
:101E300020E3E1E0E20F403AF6E85F07F1E06F07E8
:101E400071050CF075C02E8320E3E1E0E20F403114
:101E5000F7E25F07610571050CF070C02F8320E386
:101E6000E1E0E20F483EF3E05F07610571050CF029
:101E70006BC0288720E3E1E0E20F4436510561059D
:101E800071050CF067C0298720E3E1E0E20F4A30DA
:101E90005105610571050CF063C02A87405D4B87D1
:101EA00020E0FC01E20FF11D4081403309F45EC0E7
:101EB000311531F02150FC01E20FF11D3DE230837C
:101EC0004AE0421BF12C30E0DC01AF0DB11DBD0139
:101ED000620F731FFB0150815C93F3944F15A0F7C1
:101EE000FC01EF0DF11D10820E94660E2C960FB6BC
:101EF000F894DEBF0FBECDBFDF91CF91FF90EF9082
:101F0000DF90CF900895B701A60121E36BCF515E1A
:101F1000654F75402E2F68CF405856496849710962
:101F20002E2F6FCF405452446F4071092E2F75CF22
:101F3000405A5648614071092E2F7BCF405157427D
:101F4000610971092E2F81CF485E534061097109E3
:101F50002E2F86CF44565109610971092E2F8BCF40
:101F60004A505109610971092E2F8FCF2F5F99CFE8
:101F7000CF92DF92EF92FF920F931F93CF93DF9355
:101F80006B017C01C42F20E030E0A901C701B6013C
:101F90000E949812811111C080E30E94420D8EE2CE
:101FA0000E94420D80E3DF91CF911F910F91FF902E
:101FB000EF90DF90CF900C94420D20E030E040E0B5
:101FC0005FECC701B6010E94F71387FD51C020E006
:101FD00030E040E05FE4C701B6010E94981287FF3D
:101FE00047C020E030E0A901C701B6010E94981265
:101FF00087FF07C0F7FAF094F7F8F0948DE20E949B
:10200000420DC701B6010E940F130E94940E8EE28A
:102010000E94420D6C2F70E080E090E00E9445131A
:102020009B01AC0160E070E080E291E40E946914E1
:102030008B01D82FC92FC701B6010E9416130E9429
:1020400045139B01AC01C701B6010E942B129801F8
:102050004D2F5C2F0E94FC130E940F13DF91CF9134
:102060001F910F91FF90EF90DF90CF900C94940E02
:10207000DF91CF911F910F91FF90EF90DF90CF9064
:102080000895A19AA09AA99AA89A11B884E080B953
:1020900086BF089581B1887F089584EA86BF06B619
:1020A00007FEFDCF81B1887F089585ED86BF06B616
:1020B00004FCFDCF089583B984E886BF06B607FE09
:1020C000FDCF81B1887F089584EC86BF06B607FEF8
:1020D000FDCF83B1089584E886BF06B607FEFDCF25
:1020E00083B10895FF920F931F93CF93DF93D82F5F
:1020F000C62FF42E152F022F0E944D10883069F044
:10210000803159F0C0E00E9455108C2F90E0DF9193
:10211000CF911F910F91FF9008958D2F880F0E94EE
:102120005B10883111F0803269F78C2F0E945B10B0
:10213000883211F0803331F7CF2DD12F0C0F1D2FA6
:10214000111DC017D10739F089910E945B108832A8
:10215000C1F38033B1F3C1E0D6CFCF92DF92EF92DB
:10216000FF920F931F93CF93DF93C82F162F7A01FF
:10217000D22F0E944D10883021F0803111F0C0E044
:102180003BC0CC0F8C2F0E945B10883111F0803245
:10219000B1F7812F0E945B10883211F0803379F7FC
:1021A0000E944D10883011F0803149F78C2F8160EA
:1021B0000E945B10877F803411F78701E12CF12C9E
:1021C0008D2F8150990B6C01E801EC14FD0464F42F
:1021D0000E946410F80181938F0181B1FFEFEF1A23
:1021E000FF0A807F803581F30E946B10888381B164
:1021F000807FC1E0803519F60E9455108C2F90E049
:10220000DF91CF911F910F91FF90EF90DF90CF90D2
:102210000895880F82B90895CDB7DEB7C658D109A1
:102220000FB6F894DEBF0FBECDBF0E94B40320E00E
:1022300030E048E065E084E590E00E94D60C0E9422
:102240006901F8948E010F5B1F4F9E012F5F3F4F76
:1022500049017901D80120E030E0C801B401A901A9
:102260004A525F4FFA014081042E000C550B4D93EA
:102270005D93F701119211927F012F5F3F4F203242
:10228000310569F778940E94FD01F4EC2F2EF0E0FF
:102290003F2E24EB30E0CB57DF4F39832883C558DE
:1022A000D040A4EAAA2EA0E0BA2EB4E9CB2EB0E02A
:1022B000DB2E280130E2430E511C84EBE82E80E037
:1022C000F82E3101F801A191B1918F01F4014191F2
:1022D00051914F019D010E940216CF57DF4F688335
:1022E00079838A839B83C158D0409A01DA010E9486
:1022F0000216CF57DF4F288139814A815B81C1584F
:10230000D040620F731F841F951F0E94B601E3E047
:1023100096958795EA95E1F7853308F084E3F30114
:1023200041913F01282F481760F050E09A01220F99
:10233000331F240F351F280F311D359527953595EF
:102340002795F3012293F7019081891738F0808354
:1023500023E0F5012083F601108207C0F50180819A
:10236000811509F465C081508083FFEFEF1AFF0AE1
:102370002FEFA21AB20A3FEFC31AD30A04151505AC
:1023800009F0A0CF0E940B0960E082E00E94AC033C
:102390008091D40081115CC080E890E00E94660EBC
:1023A00025E0F22E9BEFC92ECF0CF10161911F01A8
:1023B000611551F0FFE3F61B6F2F0FEF10E02FE3D5
:1023C0004F2D8C2D0E940F09CB57DF4FE881F981EB
:1023D000C558D040E190CB57DF4FF983E883C5580B
:1023E000D040E114A1F00FEF10E08FE3D82EDE18FB
:1023F0002D2D4F2D6D2D8C2D0E94A606D11439F058
:102400006EE36E19262F4F2D8C2D0E94A606F8E044
:10241000FF0E25E8F212C6CF0E9470033FEF46E799
:1024200051E0315040405040E1F700C0000009CF7A
:10243000F60180818F5F80838695811101C081E0E4
:10244000891720F4981BF70190838FCFF70184CF71
:1024500089E890E0A3CF5058BB27AA270E944312D7
:102460000C94BD130E94AF1338F00E94B61320F0F5
:1024700039F49F3F19F426F40C94AC130EF4E09554
:10248000E7FB0C94A613E92F0E94CE1358F3BA175A
:10249000620773078407950720F079F4A6F50C947A
:1024A000F0130EF4E0950B2EBA2FA02D0B01B901FD
:1024B00090010C01CA01A0011124FF27591B99F0BA
:1024C000593F50F4503E68F11A16F040A22F232FC6
:1024D000342F4427585FF3CF469537952795A79516
:1024E000F0405395C9F77EF41F16BA0B620B730BBD
:1024F000840BBAF09150A1F0FF0FBB1F661F771F2E
:10250000881FC2F70EC0BA0F621F731F841F48F4E2
:10251000879577956795B795F7959E3F08F0B0CF6B
:102520009395880F08F09927EE0F97958795089552
:102530000E94821308F481E008950E94B1120C9465
:10254000BD130E94B61358F00E94AF1340F029F457
:102550005F3F29F00C94A61351110C94F1130C94C5
:10256000AC130E94CE1368F39923B1F3552391F372
:10257000951B550BBB27AA2762177307840738F0F2
:102580009F5F5F4F220F331F441FAA1FA9F335D04F
:102590000E2E3AF0E0E832D091505040E695001C03
:1025A000CAF72BD0FE2F29D0660F771F881FBB1FBD
:1025B000261737074807AB07B0E809F0BB0B802D9B
:1025C000BF01FF2793585F4F3AF09E3F510578F0C7
:1025D0000C94A6130C94F1135F3FE4F3983ED4F3EC
:1025E000869577956795B795F7959F5FC9F7880F9B
:1025F000911D9695879597F90895E1E0660F771FED
:10260000881FBB1F621773078407BA0720F0621B7D
:10261000730B840BBA0BEE1F88F7E09508950E94A8
:1026200016136894B1110C94F11308950E94D613F7
:1026300088F09F5798F0B92F9927B751B0F0E1F083
:10264000660F771F881F991F1AF0BA95C9F714C033
:10265000B13091F00E94F013B1E008950C94F013A2
:10266000672F782F8827B85F39F0B93FCCF386956C
:1026700077956795B395D9F73EF4909580957095C9
:1026800061957F4F8F4F9F4F0895E89409C097FB46
:102690003EF490958095709561957F4F8F4F9F4F39
:1026A0009923A9F0F92F96E9BB279395F69587957D
:1026B00077956795B795F111F8CFFAF4BB0F11F440
:1026C00060FF1BC06F5F7F4F8F4F9F4F16C08823E7
:1026D00011F096E911C0772321F09EE8872F762F1D
:1026E00005C0662371F096E8862F70E060E02AF05E
:1026F0009A95660F771F881FDAF7880F969587954A
:1027000097F90895990F0008550FAA0BE0E8FEEF1E
:1027100016161706E807F907C0F012161306E407A5
:10272000F50798F0621B730B840B950B39F40A269E
:1027300061F0232B242B252B21F408950A2609F47C
:10274000A140A6958FEF811D811D089597F99F6780
:1027500080E870E060E008959FEF80EC0895002429
:102760000A941616170618060906089500240A94F6
:1027700012161306140605060895092E0394000C7C
:1027800011F4882352F0BB0F40F4BF2B11F460FF0B
:1027900004C06F5F7F4F8F4F9F4F089557FD905834
:1027A000440F551F59F05F3F71F04795880F97FB15
:1027B000991F61F09F3F79F08795089512161306CF
:1027C0001406551FF2CF4695F1DF08C016161706FE
:1027D0001806991FF1CF8695710561050894089533
:1027E000E894BB2766277727CB0197F908950E94C5
:1027F000821308F48FEF08950E940F140C94BD13F8
:102800000E94AF1338F00E94B61320F0952311F008
:102810000C94A6130C94AC1311240C94F1130E9485
:10282000CE1370F3959FC1F3950F50E0551F629F33
:10283000F001729FBB27F00DB11D639FAA27F00D19
:10284000B11DAA1F649F6627B00DA11D661F829F40
:102850002227B00DA11D621F739FB00DA11D621F25
:10286000839FA00D611D221F749F3327A00D611D42
:10287000231F849F600D211D822F762F6A2F112424
:102880009F5750409AF0F1F088234AF0EE0FFF1F57
:10289000BB1F661F771F881F91505040A9F79E3FAE
:1028A000510580F00C94A6130C94F1135F3FE4F3F0
:1028B000983ED4F3869577956795B795F795E79504
:1028C0009F5FC1F7FE2B880F911D9695879597F90D
:1028D0000895FA01EE0FFF1F309621053105A1F191
:1028E0006115710561F48038BFE39B0749F1689475
:1028F0009038810561F08038BFEF9B0741F0992344
:102900004AF5FF3FE1053105210519F1E8940894E6
:10291000E795D901AA2329F4AB2FBE2FF85FD0F396
:1029200010C0FF5F70F4A695E0F7F73950F019F08A
:10293000FF3A38F49F779F930DD00F9007FC905883
:10294000089546F00C94AC1360E070E080E89FE3DB
:1029500008954FE79F775F934F933F932F930E9484
:1029600064152F913F914F915F910E94FC130C943D
:10297000C11429F416F00C94A6130C94F0130C94C3
:10298000AC130E94D613A8F39638A0F707F80F925D
:10299000E8942BE33AEA48EB5FE70E9412140F92A7
:1029A0000F920F924DB75EB70F920E94AC15ECE6F6
:1029B000FCE20E94F3144F915F91EF91FF91E59536
:1029C000EE1FFF1F49F0FE57E0684427EE0F441F3B
:1029D000FA95E1F74195550B0E9426150F9007FED9
:1029E0000C941A150895DF93CF931F930F93FF92C2
:1029F000EF92DF927B018C01689406C0DA2EEF0122
:102A00000E940F14FE01E894A591259135914591FE
:102A10005591A6F3EF010E944312FE019701A80110
:102A2000DA9469F7DF90EF90FF900F911F91CF91AB
:102A3000DF9108959B01AC0160E070E080E89FE3C6
:102A40000C949D120C94A6130C94E0150E94D613BE
:102A5000D8F39923C9F3940F511DA3F3915050401B
:102A600094F059F0882332F0660F771F881F915039
:102A70005040C1F79E3F51052CF7880F911D969548
:102A8000879597F908955F3FACF0983E9CF0BB277F
:102A9000869577956795B79508F4B1609395C1F7DA
:102AA000BB0F58F711F460FFE8CF6F5F7F4F8F4F78
:102AB0009F4FE3CF0C94F11316F00C94E0150C9497
:102AC000AC1368940C94A6130E94D613A8F3992310
:102AD000C1F3AEF3DF93CF931F930F93FF92C92FF0
:102AE000DD2788232AF02197660F771F881FDAF7E2
:102AF00020E030E040E85FEB9FE3883920F0803E43
:102B000038F021968F770E942C12E4E9FCE204C091
:102B10000E942C12E1ECFCE20E94F3148B01BE0136
:102B2000EC01FB2E6F5771097595771F880B990B78
:102B30000E94471328E132E741E35FE30E940F144C
:102B4000AF2D9801AE01FF900F911F91CF91DF91B2
:102B50000E9443120C94BD13FA01DC01AA0FBB1FA3
:102B60009B01AC01BF5728F4222733274427507814
:102B700020C0B75190F4AB2F002446953795279588
:102B8000011CA395D2F3002071F0220F331F441FC4
:102B9000B395DAF30ED00C942B1261307105A0E8D6
:102BA0008A07B94630F49B01AC016627772788274E
:102BB0009078309621F020833183428353830895A7
:102BC0009F3F31F0915020F4879577956795B795A1
:102BD000880F911D9695879597F9089597FB072E75
:102BE00016F4009407D077FD09D00E94201607FC48
:102BF00005D03EF4909581959F4F0895709561950D
:102C00007F4F08950E940A16332312F48A1B9B0BF0
:102C10000C941B16A29FB001B39FC001A39F700D1F
:102C2000811D1124911DB29F700D811D1124911DD4
:102C300008950E940A16B7FF0895821B930B08950A
:102C4000AA1BBB1B51E107C0AA1FBB1FA617B707D2
:102C500010F0A61BB70B881F991F5A95A9F78095EE
:102C60009095BC01CD010895F894FFCF07634236DB
:102C7000B79BD8A71A39685618AEBAAB558C1D3C0D
:102C8000B7CC5763BD6DEDFD753EF6177231BF00D1
:102C90000000803F08000000BE922449123EABAA0B
:102CA000AA2ABECDCCCC4C3E00000080BEABAAAA66
:102CB000AA3E00000000BF000000803F00000000AE
:102CC00000084178D3BB4387D1133D190E3CC3BDE7
:102CD0004282AD2B3E68EC8276BED98FE1A93E4C94
:0E2CE00080EFFFBE01C4FF7F3F000000000038
:102CEE0000E8D0BAA7978B8481848B97A7BAD0E8D7
:102CFE007F7C75695946301800E8D0BAA7978B8447
:102D0E004D49433A20504130004A41434B3A2050FE
:042D1E00413100003F
:00000001FF
