:100000000C944A010C94AA010C9467010C946701AA
:100010000C9467010C9467010C9467010C948701A0
:100020000C9467010C9467010C9467010C946701B0
:100030000C9467010C9467010C9467010C946701A0
:100040000C9489010C9467010C9467010C9467016E
:100050000C9467010500000000000500005F00002F
:1000600005000700070005147F147F1405242A7F6C
:100070002A120523130864620536495620500508E4
:100080000703000005001C224100050041221C005E
:100090000514083E08140508083E08080500B0705D
:1000A0000000050808080808050060600000052039
:1000B00010080402053E5149453E0500427F4000BC
:1000C000057249494946052141494D330518141225
:1000D0007F10052745454539053C4A4949310541C9
:1000E0002111090705364949493605464949291E5E
:1000F000050000140000050040340000050814222B
:1001000041000514141414140541221408000502BA
:1001100001590906053E415D594E057C1211127CBC
:10012000057F49494936053E41414122057F41410C
:10013000413E057F49494949057F09090909053EAD
:1001400041415173057F0808087F0500417F410048
:10015000052040413F01057F08142241057F4040B2
:100160004040057F020C027F057F0408107F053E9A
:100170004141413E057F09090906053E4151215E85
:10018000057F091929460526494949320501017F9C
:100190000101053F4040403F051F2040201F053F13
:1001A0004038403F056314081463050304780403D2
:1001B00005615149454305007F414100050204089E
:1001C0001020050041417F000504020102040540A2
:1001D0004040404005070B00000005205454784083
:1001E000057F2844443805384444442805384444AD
:1001F000287F0538545454180500087E0902051854
:10020000A4A49C78057F080404780500447D400080
:10021000052040403D00057F102844000500417F37
:100220004000057C04780478057C080404780538CF
:100230004444443805FC182424180518242418FCC8
:10024000057C080404080548545454240504043F5C
:100250004424053C4040207C051C2040201C053CDB
:100260004030403C054428102844054C9090907C38
:10027000054464544C4405000836410005000077ED
:1002800000000500413608000504020408040500CA
:100290007F417F0011241FBECFE5D8E0DEBFCDBF78
:1002A00010E0A0E6B0E0EEE1FEE002C005900D92A5
:1002B000A439B107D9F721E0A4E9B0E001C01D924B
:1002C000A631B207E1F70E940C050C940D070C94BF
:1002D000000087B38C6B87BB80E58DB981E08EB958
:1002E0008A98929A85B7826085BF8BB780648BBFEE
:1002F00080E687B98EE886B98AE08EBD87EC90E00B
:100300009BBD8ABD89B7806189BF78940895369A6C
:1003100018951F921FB61F9211248F93EF93FF938E
:1003200085B1E091F500F0E08058EA50FF4F8083FE
:100330008091F5008F5F8093F5008091F500803209
:1003400010F01092F500FF91EF918F911F901FBE5A
:100350001F9018958F938FB78F939F938091F40080
:1003600091E089278093F4008091F400806687B93A
:100370009F918F918FBF8F911895CF92DF92EF92BF
:10038000FF920F931F938B019C0140E050E060E0CF
:1003900070E4041715072607370778F080E090E02F
:1003A000DC01411551056105710579F41F910F912B
:1003B000FF90EF90DF90CF900895A2E0769567953B
:1003C00057954795AA95D1F7E4CF6C017D01C40EEE
:1003D000D51EE61EF71EB695A795979587950C1521
:1003E0001D052E053F0540F00C191D092E093F097A
:1003F000840F951FA61FB71FE2E076956795579566
:100400004795EA95D1F7CDCF2F923F924F925F92C9
:100410006F927F928F929F92AF92BF92CF92DF9214
:10042000EF92FF920F931F93CF93DF93CDB7DEB779
:1004300061970FB6F894DEBF0FBECDBF1C014B0114
:100440008C01DB0120E080E090E1891708F066C0B4
:10045000890F2F5F0E5F1F4F12962F31D1F5F5E0F8
:10046000F88B01E00F871F85198B412F440F4F87B1
:10047000612F70E080E190E00E94C7062B01A1E7A8
:10048000AA2EA0E0BA2EB1E66B2EB0E07B2E50E093
:10049000F9895F1346C008890150088B0111E3CF29
:1004A00061960FB6F894DEBF0FBECDBFDF91CF913E
:1004B0001F910F91FF90EF90DF90CF90BF90AF9082
:1004C0009F908F907F906F905F904F903F902F9074
:1004D0000895281708F0B8CFF80160817181E82FDE
:1004E000F0E06F01CC0CDD1CA1014C0D5D1DFA018B
:1004F000E080F180F801F182E082FA01718360838B
:100500004D915C911197F601E80DF91D60817181A3
:1005100011967C936E935183408396CF891B969559
:1005200094CFD5019C91F3018081452F092F990F1C
:10053000110B18870F83E82F880FFF0BFA87E987C5
:10054000403230F05F5FA40CB51C640C751CA0CF6A
:100550008989840F90E0880F991F8101080F191F66
:100560001A830983F80100811181F401E80FF91F52
:10057000FE83ED830190F081E02D2F813885D80135
:100580000E94DB066B017C0129853A85DF010E9410
:10059000DB06C61AD70AE80AF90A37E0F594E794A9
:1005A000D794C7943A95D1F72F8138850E94DB06FE
:1005B0006B877C878D879E8729853A85D8010E9425
:1005C000DB060B851C852D853E85600F711F821F04
:1005D000931FE7E09595879577956795EA95D1F70D
:1005E000E42FF0E0DF01AA0FBB1F81010A0F1B1FE0
:1005F000F801208131812C193D09E981FA8131838B
:100600002083FD01E80DF91D20813181261B370B68
:10061000AD81BE812D933C93D8012D913C911197D2
:100620002C0D3D1D2D933C9320813181260F371FCA
:1006300031832083EF854E0F83CF8FB9779BFECF19
:100640000895C398C4980E941D03C49A0895C39A3C
:10065000C4980E941D03C49A0895C2988FE39CE930
:100660000197F1F700C00000C29A9FEF2BED85E0E3
:10067000915020408040E1F700C0000081E10E94DD
:1006800021039FEF2BED85E0915020408040E1F762
:1006900000C0000089E20E94210386E30E9421033A
:1006A00088E00C9427036F927F928F929F92AF9273
:1006B000BF92CF92DF92EF92FF920F931F93CF934F
:1006C000DF934C016B017A01E9018AE20E94210368
:1006D0008D2D0E9427038C2D0E9427038D2F0E94B1
:1006E00027038C2F0E9427038FE391E03C016E18B3
:1006F0007F085C01A818B9088BE20E942103872DAE
:100700000E942703862D0E9427038B2D0E9427031A
:100710008A2D0E9427038CE20E942103C39AC49869
:100720008FEFE81AF80AE818F9082196CC19DD09C4
:10073000EC9E6001ED9ED00CFC9ED00C1124E12CAF
:10074000F12C812C912C54018C149D04AE04BF0417
:1007500080F0C49ADF91CF911F910F91FF90EF909D
:10076000DF90CF90BF90AF909F908F907F906F90D1
:100770000895812F0E941D03802F0E941D038FEF7B
:10078000881A980AA80AB80ADFCF0F931F938C0122
:100790002FEE30E04FE351E060E070E080E090E069
:1007A0000E9453031F910F9108958F929F92AF92D1
:1007B000BF92CF92DF92EF92FF920F931F93CF934E
:1007C000DF934C017B01D42FC52F69019B010E944F
:1007D000530396014D2F5C2FB601C4010E945303B1
:1007E0009601A401B701C4010E94530396014D2F45
:1007F0005C2FB7018D2F9C2F0E945303DF91CF9167
:100800001F910F91FF90EF90DF90CF90BF90AF902E
:100810009F908F9008950F931F936217730719F499
:100820009B010E9453031F910F9108952F923F92B5
:100830004F925F926F927F928F929F92AF92BF92F0
:10084000CF92DF92EF92FF920F931F93CF93DF939C
:10085000CDB7DEB762970FB6F894DEBF0FBECDBF3F
:10086000898B9A8B1B0129833A830B831C8380EE2F
:10087000840F8F3508F05FC026E04202A0011124EA
:10088000CA018C5A9F4F9E838D834E2C512C2989EF
:100890003A892B5F3F4F3C872B8769887A88C20152
:1008A00001979E878D879B0121503109388B2F87B7
:1008B000CB0108969A878987ED81FE81EF5BF1096C
:1008C000F4902D853E85260D371D38872F83AF8404
:1008D000B888A40CB51C41016101F0FE45C031E0AF
:1008E00009811A81E3124FC0960149895A89B601DC
:1008F000CA010E945303F6948FEFC81AD80A840CD9
:10090000951CA40CB51C29853A852C153D0529F7A5
:100910008D819E8101969E838D8329893A892F5FDF
:100920003F4F3A8B298B640C751C8B859C8528174F
:10093000390709F0C1CF62960FB6F894DEBF0FBE3B
:10094000CDBFDF91CF911F910F91FF90EF90DF907E
:10095000CF90BF90AF909F908F907F906F905F905F
:100960004F903F902F9008958B819C8129813A81EF
:100970008217930709F4BFCF31E00B811C81E3128A
:1009800002C08C01B1CF95014F815885B401C301DC
:10099000B0CF4F925F926F927F928F929F92AF9261
:1009A000BF92CF92DF92EF92FF920F931F93CF935C
:1009B000DF93EC01B62EA72E722E632E502E412E01
:1009C000FE2C86E0E89E400111246A01F601419167
:1009D0006F01411581F0EF2C052D142D272D362D9B
:1009E0006B2D7A2DCE010E941604C80DD91DC1347D
:1009F000E1E0DE0758F3DF91CF911F910F91FF9057
:100A0000EF90DF90CF90BF90AF909F908F907F90AE
:100A10006F905F904F900895CDB7DEB7C958D10958
:100A20000FB6F894DEBF0FBECDBF0E9469010E94D1
:100A30002D0380E090E00E94C5039E012F573F4F99
:100A4000CF57DF4F39832883C158D0409EEE492EBF
:100A5000512C84EE90E030E1380FC757DF4F3883D8
:100A6000C958D040F8942091F5008E010F5B1F4FBC
:100A7000AE014F5F5F4F4A017A01F801C801BA0128
:100A8000422F50E04A505F4FDA014C91042E000C87
:100A9000550B41935193D7011D921D927D012F5FFC
:100AA000203208F020E0CF57DF4F48815981C158EC
:100AB000D040E417F50721F778940E940402F4EC83
:100AC0002F2EF0E03F2EA4EAAA2EA0E0BA2EB4E921
:100AD000CB2EB0E0DB2EC8018096CD57DF4F998337
:100AE0008883C358D040710184EE682E80E0782E50
:100AF000F801A191B1918F01F401419151914F0100
:100B00009D010E94DB06CB57DF4F688379838A8380
:100B10009B83C558D0409A01DA010E94DB06CB576F
:100B2000DF4F288139814A815B81C558D040620FEF
:100B3000731F841F951F0E94BD019C01A8ECB0E0AB
:100B40000E94E306672F782F892F99276F3C710544
:100B500010F06EEC70E0D3018D913D01282F30E054
:100B60008617170608F4EBC0C901880F991F820F7A
:100B7000931F860F971F9695879596958795282F93
:100B8000F3018293F70190816917710508F4D9C0C8
:100B90006083E3E0D501EC93D6011C92BFEFEB1A22
:100BA000FB0AEFEFAE1ABE0AFFEFCF1ADF0ACD57EE
:100BB000DF4F28813981C358D0400217130709F04D
:100BC00097CF9091F40080916000981731F100E088
:100BD00010E02FE030E040E550E062E070E082E0BD
:100BE00090E00E9453038091F400EE24E3942FEFF1
:100BF0003FEF41E850E0811531F000E010E02FEFC9
:100C00003FEF4AE850E062E070E082E090E00E944E
:100C1000C9048091F4008093600084ED882E80E008
:100C2000982E94EB692E90E0792E24EEC22E20E0CF
:100C3000D22E3FE3E32EFF24F394570132E1A31AAF
:100C4000B108D6019D916D01F201E91BF109D401B2
:100C50008D914D01B201681B7109891708F08FC091
:100C6000C757DF4F8881C958D0408C1900EE8830B3
:100C700008F00FEF17E09B01A701BF01C5010E941B
:100C80005303F3016081CB57DF4F39822882C55867
:100C9000D040D1018C91F6013197CD57DF4FF983C8
:100CA000E883C358D040681799F0611589F08081B6
:100CB000861770F49201261B31094DEE50E0461B59
:100CC0005109BA0100E010E0A701C5010E945303D9
:100CD000D1016C91611571F09201261B3109EDEE85
:100CE000F0E0E61BF109BF0100E018EFA701C50124
:100CF0000E945303CD57DF4FA881B981C358D0401C
:100D00008C91F4018293BFEF2B1A3B0ACB57DF4F34
:100D1000E881F981C558D0408081D3018D933D0190
:100D2000B4E1EB1AF108EFEFEE16FE0609F085CFFD
:100D30008FE59AEE0197F1F700C0000093CECB014A
:100D40001ECFF5018081811541F08150808392177B
:100D500008F024CFF70120831FCFD6018C918F5F3D
:100D60008C938695811101C081E0891720F4981B2E
:100D7000F7019083ECCFD7011C9290E0E8CF981751
:100D800008F07FCF00E010E09F01A70177CF97FB2D
:100D9000072E16F4009407D077FD09D00E94F906BB
:100DA00007FC05D03EF4909581959F4F089570956E
:100DB00061957F4F08950E94E306332312F48A1B46
:100DC0009B0B0C94F406A29FB001B39FC001A39F9C
:100DD000700D811D1124911DB29F700D811D112474
:100DE000911D08950E94E306B7FF0895821B930B9F
:100DF0000895AA1BBB1B51E107C0AA1FBB1FA61762
:100E0000B70710F0A61BB70B881F991F5A95A9F7B3
:0E0E100080959095BC01CD010895F894FFCF18
:100E1E00FF00E8D0BAA7978B8481848B97A7BAD0AE
:100E2E00E87F7C75695946301800E8D0BAA7978BD1
:100E3E00844D49433A20504130004A41434B3A20B9
:040E4E0050413100DE
:00000001FF
