:100000000C944A010C94A3010C9467010C946701B1
:100010000C9467010C9467010C9467010C948001A7
:100020000C9467010C9467010C9467010C946701B0
:100030000C9467010C9467010C9467010C946701A0
:100040000C9482010C9467010C9467010C94670175
:100050000C9467010500000000000500005F00002F
:1000600005000700070005147F147F1405242A7F6C
:100070002A120523130864620536495620500508E4
:100080000703000005001C224100050041221C005E
:100090000514083E08140508083E08080500B0705D
:1000A0000000050808080808050060600000052039
:1000B00010080402053E5149453E0500427F4000BC
:1000C000057249494946052141494D330518141225
:1000D0007F10052745454539053C4A4949310541C9
:1000E0002111090705364949493605464949291E5E
:1000F000050000140000050040340000050814222B
:1001000041000514141414140541221408000502BA
:1001100001590906053E415D594E057C1211127CBC
:10012000057F49494936053E41414122057F41410C
:10013000413E057F49494949057F09090909053EAD
:1001400041415173057F0808087F0500417F410048
:10015000052040413F01057F08142241057F4040B2
:100160004040057F020C027F057F0408107F053E9A
:100170004141413E057F09090906053E4151215E85
:10018000057F091929460526494949320501017F9C
:100190000101053F4040403F051F2040201F053F13
:1001A0004038403F056314081463050304780403D2
:1001B00005615149454305007F414100050204089E
:1001C0001020050041417F000504020102040540A2
:1001D0004040404005070B00000005205454784083
:1001E000057F2844443805384444442805384444AD
:1001F000287F0538545454180500087E0902051854
:10020000A4A49C78057F080404780500447D400080
:10021000052040403D00057F102844000500417F37
:100220004000057C04780478057C080404780538CF
:100230004444443805FC182424180518242418FCC8
:10024000057C080404080548545454240504043F5C
:100250004424053C4040207C051C2040201C053CDB
:100260004030403C054428102844054C9090907C38
:10027000054464544C4405000836410005000077ED
:1002800000000500413608000504020408040500CA
:100290007F417F0011241FBECFE5D8E0DEBFCDBF78
:1002A00010E0A0E6B0E0ECE1F8E202C005900D92AB
:1002B000A43AB107D9F724E0A4EAB0E001C01D9246
:1002C000A13DB207E1F70E94AC0F0C94CB130C9444
:1002D00000008A98929A85B7826085BF8BB7806448
:1002E0008BBF80E687B98EE886B98AE08EBD87EC41
:1002F00090E09BBD8ABD89B7806189BF78940895DD
:10030000369A18951F921FB61F9211248F93EF9360
:10031000FF9385B1E091A500F0E08058EA55FF4FCA
:1003200080838091A5008F5F8093A5008091A500B8
:10033000803210F01092A500FF91EF918F911F90E5
:100340001FBE1F9018958F938FB78F939F938091A7
:10035000A40091E089278093A4008091A400806686
:1003600087B99F918F918FBF8F91189566956695EC
:10037000669590E8699FB00111246F527F4FFB0191
:10038000E80FF11D4083089566956695669590E89F
:10039000699FB00111246F527F4FFB01E80FF11DDF
:1003A00080810895FF920F931F93CF93DF93C82FFF
:1003B000F62E172F042F0E94ED0E88E70E94FB0EE9
:1003C0008C2F0E94FB0ECF2DD12F0C0F1D2F111D36
:1003D00089910E94FB0EC017D107D1F7DF91CF9111
:1003E0001F910F91FF900C94F50ECF93DF930F9216
:1003F000CDB7DEB7898341E0BE016F5F7F4F80E0FC
:100400000E94D2010F90DF91CF910895482FE6EC22
:10041000F0E06181808191E0980F90830C94B601A7
:10042000CF93DF9381E20E94F50180E00E94F50105
:100430008FE70E94F50182E20E94F50180E00E94B0
:10044000F50187E00E94F501C1EDD0E040E1BE0179
:1004500080E40E94D201609684E0C13DD807B1F7E4
:10046000DF91CF910895811519F08FEA0C94F50171
:100470008EEAFCCFCF93C82F81E80E94F5018C2F24
:10048000CF910C94F50187FF8093C60008958034C6
:1004900010F48093C7000895CF93C62F0E944302A3
:1004A0008C2FCF910C9447020E94E10E8EEA0E949D
:1004B000F50185ED0E94F50180EF0E94F50188EAC3
:1004C0000E94F5018FE30E94F50183ED0E94F50182
:1004D00080E00E94F5018DE80E94F50184E10E9410
:1004E000F50180E40E94F50180E20E94F50180E0C0
:1004F0000E94F50181EA0E94F50188EC0E94F50155
:100500008AED0E94F50182E10E94F50181E80E94D6
:10051000F5018FEF0E94F50189ED0E94F50181EF51
:100520000E94F5018BED0E94F50180E20E94F50129
:1005300084EA0E94F50186EA0E94F5018EE20E949B
:10054000F5018FEA0E94F50160E080E00E944C0214
:10055000E6ECF0E086EA90E09383828310861782CF
:100560001682118210820895CF93883088F4682F04
:10057000660F660F660F80E00E944C02C0E040E00C
:100580006091C7008C2F0E94B601CF5FC038B9F7C9
:10059000CF910895883028F4880F880F880F8093B2
:1005A000C70008958091C60008958091C7000895FE
:1005B0008091C7008695869586950895FF920F9342
:1005C0001F93CF93DF93162FEA010E944C02F09005
:1005D000C7000091C6006F2D802F0E94C401482FD4
:1005E000177081E090E0A0E0B0E004C0880F991F90
:1005F000AA1FBB1F1A95D2F7CF3FD10551F4482B44
:100600006F2D802FDF91CF911F910F91FF900C9450
:10061000B60180954823F4CFFF920F931F93CF9399
:10062000DF93D82FC62F142F022FF32E681750F008
:10063000CD2FD62F07C0402F5F2D612F8C2F0E940A
:10064000DE02CF5FDC17B8F7DF91CF911F910F91DA
:10065000FF9008954F925F926F927F928F929F9238
:10066000AF92BF92CF92DF92EF92FF920F931F93C0
:10067000CF93DF93982E862E6801842B87FD58C078
:10068000862F822B803408F053C02F5FC22FC61BE9
:100690004F5FE42EE918262F2770F22ED62FD87F31
:1006A000AC2EB12C88E090E09C012F193109C217C3
:1006B00013060CF04EC08A199B090FEF10E002C020
:1006C000159507958A95E2F77C2E0F2C01C0000F37
:1006D0000A94EAF7402E6D2F892D0E944C0210E0FB
:1006E0000095E1123CC0F818F70C2F2D2D0F822F2A
:1006F00090E0AC01495F5F4F4A155B050CF449C0BF
:100700002C17B0F4A81AB90A8FEF90E09C0102C030
:10071000220F331FAA94E2F75901A09468E06D0FED
:10072000892D0E944C02C0E0FA2CF0941C1347C0A3
:10073000DF91CF911F910F91FF90EF90DF90CF90BD
:10074000BF90AF909F908F907F906F905F904F90F1
:10075000089588E0782E7F180FEF10E0B6CF509004
:10076000C7006090C600652D862D0E94C401482FE9
:100770003FEFC316D10459F4442981E0860D8093DC
:10078000C600652D862D0E94B6011F5FAACF4023AB
:10079000F4CFD85F6D2F892D0E944C0200E0101716
:1007A00009F4A3CF6091C7008091C60091E0980F33
:1007B0009093C6004C2D0E94B6010F5FF0CF0091C0
:1007C000C700D091C600602F8D2F0E94C401482F12
:1007D0003FEFC316D10459F44A2981E08D0F80936D
:1007E000C600602F8D2F0E94B601CF5F9FCF4F2193
:1007F000F4CF0F931F93982F842F8901691718F056
:10080000262F692F922F292F482F0E942A031F91EC
:100810000F9108952F923F924F925F926F927F9225
:100820008F929F92AF92BF92CF92DF92EF92FF9200
:100830000F931F93CF93DF93CDB7DEB72B970FB6F0
:10084000F894DEBF0FBECDBF4C016B872C833D8378
:100850003090C6006090C700862F830D87FF03C0CD
:1008600020E823192B87042F10E0780137E0E30EEE
:10087000F11C53E0F594E7945A95E1F7262C269461
:1008800026942694822D8E0D893028F048E0E40EBF
:10089000F11CE81AF108862D8770582E6982712C98
:1008A000FB85EF2FF0E0FF83EE8388E090E09C0172
:1008B0002519310939872887C72CD12C7E141F04AC
:1008C00008F469C0222D30E0060D111DC801019702
:1008D00097FD079643E0959587954A95E1F7281788
:1008E0003907E1F189818034C8F5682F832D0E9492
:1008F0004C0291E0C91AD108EB85EC9D8001ED9D79
:10090000100D1124080D191DC12C88E090E07C0108
:10091000E518F108D090C700F091C600F983BF2E0A
:10092000B3942B852C1199C00091CF001091D00069
:1009300040E00115110561F06D2D8F2F0E94C4015B
:1009400041E00130110509F040E04195482740950C
:10095000B092C6006D2D89810E94B601662D8091EE
:10096000C6002B960FB6F894DEBF0FBECDBFDF9149
:10097000CF911F910F91FF90EF90DF90CF90BF909C
:10098000AF909F908F907F906F905F904F903F902F
:100990002F900C944C026981832D0E944C023B8560
:1009A000379D6001112456018E819F81A81AB90AD2
:1009B000C80CD91C412CF091C600FA832091C700C5
:1009C0002B833B85341115C08091CF009091D000CE
:1009D00040E0892B29F0622F8F2F0E94C401482FFD
:1009E0006B818A810E94B6014981485F4983739473
:1009F00063CFF6012491052C01C0220F0A94EAF777
:100A00002A87711489F0C5010196F401EA0DFB1DD6
:100A1000E491F0E0088402C0F595E7950A94E2F7C6
:100A2000422F4E2B4A875C018C819D81019739F4BE
:100A30006B818A810E94C4019A85982B9A878A814A
:100A40008F5F8093C6004A856B818A810E94B601C0
:100A50004394EFEFCE1ADE0AAECF6D2D89810E944E
:100A6000C401F8012491B092C60030E00E2C02C0FF
:100A7000359527950A94E2F7482F422B6D2D8981F1
:100A80000E94B601C3940F5F1F4F44CF7F928F9295
:100A90009F92AF92BF92CF92DF92EF92FF920F930D
:100AA0001F93CF93DF93F62EC42FD22F982F942B22
:100AB00097FD5DC0962F922B903408F058C0841398
:100AC00013C09801482F6D2F8F2DDF91CF911F916B
:100AD0000F91FF90EF90DF90CF90BF90AF909F90DD
:100AE0008F907F900C94F903621312C09801462FE7
:100AF0006C2FDF91CF911F910F91FF90EF90DF90BE
:100B0000CF90BF90AF909F908F907F900C940C03EC
:100B1000C22ED12C262F30E0D617B8F5A9014C19DA
:100B20005D096A01AC2EB12C282F30E0C81780F582
:100B3000A9014A195B095A014C155D0574F19F2DF5
:100B4000F82E892F9D2FDC2FC92F9F2C9D1A882EC0
:100B50008C1AC81710F08C2E881AE92CE69477248A
:100B60007394C81710F077247A94FD1630F5DF914E
:100B7000CF911F910F91FF90EF90DF90CF90BF909A
:100B8000AF909F908F907F900895C21AD30ACACFDA
:100B9000A21AB30AAC14BD044CF4DF15B0F29C2FBA
:100BA000C82F892F9D2FDF2DF92ECFCF9C2FCF2D32
:100BB000F92E9D2FD82F892FC8CFA8016D2F8C2FEC
:100BC000AC14BD0414F06C2F8D2F0E94DE02E818C7
:100BD000E7FE02C0C70DE90CDF5FC7CFEF92FF92BF
:100BE0000F931F93CF93DF93E82EC62FF42ED22FAF
:100BF000842B87FD22C0862F822B8034F0F498014D
:100C0000462F6F2D8E2D0E940C0398014D2F6F2DB6
:100C10008E2D0E940C0398014E2D6D2F8C2F0E945B
:100C2000F90398014F2D6D2F8C2FDF91CF911F91DC
:100C30000F91FF90EF900C94F903DF91CF911F91EA
:100C40000F91FF90EF9008955F926F927F928F9235
:100C50009F92AF92BF92CF92DF92EF92FF920F934B
:100C60001F93CF93DF93982ED62EC42E122F842B52
:100C700087FD73C0862F822B803408F06EC0802FD2
:100C800090E0880F991FC3E0D0E0C81BD90BB42EA9
:100C9000B01AA92CA00E9701462F6B2D8A2D0E9409
:100CA0000C039701412F6B2D8A2D0E940C03101B02
:100CB000D00E9701492D612F8D2D0E94F9039701C8
:100CC0004C2D612F8D2D0E94F903C12CA7017D2C85
:100CD000701A672D8A2C8C18882D0E94DE02A701BD
:100CE0009D2C9C18692D5A2C501A852D0E94DE02CD
:100CF000A701672D7B2C7C0C872D0E94DE02A701AB
:100D0000692D9B2C900E892D0E94DE02A701612E79
:100D1000600E662D882D0E94DE02A701812E8C0CAC
:100D2000682D852D0E94DE02A701662D872D0E9469
:100D3000DE02A701682D892D0E94DE02EC2DF0E075
:100D4000D7FF1BC0EE0FFF1FEE0FFF1F3696CE0F13
:100D5000DF1FC3940C1508F0B9CFDF91CF911F911D
:100D60000F91FF90EF90DF90CF90BF90AF909F904A
:100D70008F907F906F905F900895E01BF109EE0FC8
:100D8000FF1FEE0FFF1F3A96CE0FDF1F0150E1CF7E
:100D9000AF92BF92CF92DF92EF92FF920F931F9389
:100DA000CF93DF93D82FF62EB42EA22EC02F842FF0
:100DB000802B8D2B87FD15C0822F8E29862B8034AA
:100DC00080F486018D2F0E9446052E2D4C2F6A2D12
:100DD0008B2D0E9446052F2D4D2F6E2D8C2F0E949E
:100DE0004605DF91CF911F910F91FF90EF90DF901B
:100DF000CF90BF90AF9008955F926F927F928F9245
:100E00009F92AF92BF92CF92DF92EF92FF920F9399
:100E10001F93CF93DF93F82EE62EC42FD22F132FDC
:100E2000842F90E04F0D5527551F403851050CF089
:100E30006DC09C01260F311D203431050CF066C0B9
:100E4000880F991F21E030E06901C81AD90A882467
:100E50008394912CA12CB12C00E06E2C600E4D2FB0
:100E6000512F662D7F2C7C0E872D0E94DE024D2F88
:100E7000512F662D6F2C6C1A862D0E94DE025E2C7F
:100E8000501A4D2F512F652D862D0E94DE024D2FB9
:100E9000512F652D872D0E94DE026F2C600E4D2F85
:100EA000512F7E2C7C0E672D862D0E94DE025F2C3A
:100EB000501A4D2F512F672D852D0E94DE024D2F88
:100EC000512F7E2C7C1A672D852D0E94DE024D2F1E
:100ED000512F672D862D0E94DE020F5FA80CB91CD2
:100EE00052E0850E911CC501880F991F8C0D9D1D28
:100EF0001816190644F4C1509C012A193B095901DE
:100F000032E0C30ED11CC01708F0A7CFDF91CF91FC
:100F10001F910F91FF90EF90DF90CF90BF90AF9017
:100F20009F908F907F906F905F9008951F93CF93C5
:100F3000DF93182FD0E0C0E0412F6D2F8C2F0E943F
:100F4000B601CF5FC038C1F7D85FD034A1F7DF91C9
:100F5000CF911F91089580E090E00C9496070F9335
:100F60001F930E942A031F910F9108954F925F9241
:100F70006F927F928F929F92AF92BF92CF92DF92A9
:100F8000EF92FF920F931F93CF93DF93A82E862E9D
:100F9000B42E922EC02F842B87FD4CC0862F822B1F
:100FA000803408F047C0802F90E0880F991F23E01D
:100FB00030E06901C81AD90AB01AA00E8701292D9C
:100FC0004B2D8A2D0E942A03D0E09C1A8C0E87019B
:100FD000492C4C0E242D8A2D8D1B482F582C5C1A21
:100FE000652D0E944605692C6D0E262D8A2D8C1BC1
:100FF000482F782C7D1A672D0E944605242D8B2DB5
:101000008D0F482F652D0E944605262D8B2D8C0FA8
:10101000482F672D0E944605ED2FF0E0D7FE1BC03C
:10102000EE0FFF1FEE0FFF1F3696CE0EDF1EDF5FA7
:10103000CD1768F6DF91CF911F910F91FF90EF9040
:10104000DF90CF90BF90AF909F908F907F906F90E8
:101050005F904F900895EC1BF109EE0FFF1FEE0F0C
:10106000FF1F3A96CE0EDF1EC150E1CF2F923F9266
:101070004F925F926F927F928F929F92AF92BF92A8
:10108000CF92DF92EF92FF920F931F93CF93DF9354
:10109000CDB7DEB769970FB6F894DEBF0FBECDBFF0
:1010A000698FF42E288F602FCA86DB86942F902BB1
:1010B000982B97FDB9C0922F9E29298D922B9034A1
:1010C00008F0B2C0388DE31628F09E2DE32E988FDD
:1010D000642FF02E998DE91630F09E2DE98C998FB2
:1010E000962F682F892F262E312CC82ED12CAE2C6E
:1010F000B12CA98D8A2E912C681B770B072E000C22
:10110000880B990B0E9424113B018C01B5016819D1
:101110007909072E000C880B990B0E9424119B0162
:10112000AC01B301C8010E947A10688B798B8A8B5D
:101130009B8B2F2D30E03A832983388D032F10E0CD
:10114000C401831B91099F838E83B6016F197109B6
:10115000072E000C880B990B0E942411962EC72E87
:10116000D82EF92E2E813F81B901330F880B990BB0
:101170000E9424119B01AC01692D7C2D8D2D9F2D8A
:101180000E947A106C8B7D8B8E8B9F8B69817A810C
:1011900062197309072E000C880B990B0E94241109
:1011A000962EC72ED82EF92EB8016A197B09072E64
:1011B000000C880B990B0E9424119B01AC01692D36
:1011C0007C2D8D2D9F2D0E947A10562E7887898731
:1011D000492EC12CD12CC101032C000CAA0BBB0B36
:1011E0008C879D87AE87BF87AE2DAC0DAD83B98D43
:1011F000BA1798F5CE80DF8089819A81092E000C7C
:10120000AA0BBB0B89839A83AB83BC83A88DAE19D1
:10121000BB0B3D014101330CAA08BB08F88CFC0C48
:10122000388D3F1508F057C069960FB6F894DEBFA9
:101230000FBECDBFDF91CF911F910F91FF90EF9027
:10124000DF90CF90BF90AF909F908F907F906F90E6
:101250005F904F903F902F900895B6010D2C000C99
:10126000880B990B0E9424113B014C016C857D85F4
:101270008E859F850E9424115B018C012889398904
:101280004A895B89B301C4010E94D9119501A80163
:101290000E9409100E94F310F62E252D38854985ED
:1012A000542DB301C4010E94D9119501A8010E94D7
:1012B00009100E94F310862F6F1510F08F2DF62E57
:1012C0000A851B852D814F2D622F0E9446059FEFB9
:1012D000C91AD90A89CFB6010D2C000C880B990BBD
:1012E0000E9424112C893D894E895F890E94D91161
:1012F000E62E072F182F9D8369817A818B819C812F
:101300000E9424119B01AC016E2D702F812F9D81B5
:101310000E9409100E94F3106D83B3016C0D7D1DB6
:10132000072E000C880B990B0E942411252D38855F
:101330004985542D0E94D911362EE72E8C01C50106
:10134000B4010E9424119B01AC01632D7E2DC801C4
:101350000E9409100E94F310862FBD816B1710F0B8
:101360008B2F6D830A851B852F2D4D816F2D0E943C
:1013700046052FEFC21AD20A51CFAF92BF92CF9239
:10138000DF92EF92FF920F931F93CF93DF93D82FAB
:10139000F62EC42FC22EB32E842F90E04D0F55276A
:1013A000551F40385105BCF4860F911D80349105BE
:1013B00094F481E0D82EDC1AAC2EA194AA0C022F52
:1013C000132F2C2F260F4D2F6C1B8D2F0E9446059F
:1013D000E12CEC1658F0DF91CF911F910F91FF9007
:1013E000EF90DF90CF90BF90AF900895D7FC04C0EE
:1013F000C150A394A394DA0CE3948E2D880F8F5FD1
:10140000D80E4D2F4E0D2C2D3B2D0F2D0C1B602F6C
:101410001C2F1F0D812F0E94F9034D2F4E192C2DCB
:101420003B2D602F812F0E94F9030F2D0E191F2DC8
:101430001E0D2C2D3B2D4C2F4D0F602F812F0E9408
:10144000F9032C2D3B2D4D2F4C1B602F812F0E941B
:10145000F903BFCFCF93DF93D82FC62F87E20E9427
:10146000F50180E00E94F5018D2F0E94F50180E0DA
:101470000E94F5018C2F0E94F50180E00E94F50189
:101480008FEF0E94F5018FE2DF91CF910C94F5016F
:10149000CF93DF93D82FC62F86E20E94F50180E01C
:1014A0000E94F5018D2F0E94F50180E00E94F50158
:1014B0008C2F0E94F50180E00E94F5018FEF0E94C1
:1014C000F5018FE2DF91CF910C94F501CF93DF937B
:1014D000D82FC62F83EA0E94F50180E00E94F50113
:1014E00080E40E94F5018AE20E94F50180E00E94FA
:1014F000F5018D2F0E94F50180E00E94F5018C2FEF
:101500000E94F50181E00E94F5018FE2DF91CF9109
:101510000C94F501CF93DF93D82FC62F83EA0E9456
:10152000F50180E00E94F50180E40E94F50189E266
:101530000E94F50180E00E94F5018D2F0E94F501C7
:1015400080E00E94F5018C2F0E94F50181E00E944D
:10155000F5018FE2DF91CF910C94F5018EE20C94AE
:10156000F5018091C8009091C900873A910539F042
:1015700087EA8093C8001092C9000C94F50186EAAE
:10158000F8CF7F928F929F92AF92BF92CF92DF92CD
:10159000EF92FF920F931F93CF93DF93F82EE62ED7
:1015A000481B01E0040F261BD1E0D20F162F177045
:1015B000C62FC87FCD2ED12C88E090E09C01211B46
:1015C0003109D21713060CF045C09C012C193D09B6
:1015D0008FEF90E002C0959587952A95E2F7AD2EA2
:1015E000B82E012E01C0BB0C0A94EAF76C2F8F2D88
:1015F0000E944C02912C901698F11E191A0D2C2F56
:10160000210F822F90E0AC01495F5F4F4C155D05C3
:10161000DCF12D1788F4C81AD90A8FEF01C0880FA2
:10162000CA94EAF7C82E68E06C0F8F2D0E944C0216
:10163000C0E0C01708F445C0DF91CF911F910F9112
:10164000FF90EF90DF90CF90BF90AF909F908F90E2
:101650007F90089588E0A82EA11A8FEF90E0C0CF68
:101660007090C7008090C600672D882D0E94C4012D
:1016700091E0980D9093C6004B2D4827672D882D3B
:101680000E94B6019394B7CFC85F6C2F8F2D0E9434
:101690004C02E12CE01608F0B2CFA090C700B09049
:1016A000C6006A2D8B2D0E94C40191E09B0D909382
:1016B000C600482F40956A2D8B2D0E94B601E394F9
:1016C000E9CF1091C700D091C600612F8D2F0E94E5
:1016D000C4014C2D482781E08D0F8093C6004095B2
:1016E000612F8D2F0E94B601CF5FA3CFF90167FD57
:1016F0001EC04034E0F422303105C8F48093CA00A3
:101700009093CB006093CC004093CD0050E0CA0191
:10171000019797FD079623E0959587952A95E1F720
:101720008F5F8093CE00F093D000E093CF000895B8
:10173000E6ECF0E026819085299F900111242F5F2F
:101740003F4F082E000C990B8097289FA001299FDE
:10175000500D389F500D11240480F581E02DE40FC9
:10176000F51F84918F5F08950F931F93CF93DF939D
:10177000EC0100E010E08991811106C0C801DF9101
:10178000CF911F910F9108950E94980B080F111D82
:10179000F2CF0F931F93CF93DF93EC01FC01849161
:1017A00000E010E02196811106C0C801DF91CF91C1
:1017B0001F910F9108950E94980B080F111DFE01B3
:1017C0008491F0CF2F923F924F925F926F927F92CF
:1017D0008F929F92AF92BF92CF92DF92EF92FF9241
:1017E0000F931F93CF93DF9300D000D0CDB7DEB718
:1017F0002090C600F090C70040EE480F2091CC002A
:101800008091CE00289F900111242F5F3F4F42030B
:101810008001439F100D112448012FEF821A920A74
:10182000E091CA00F091CB00E00FF11F34913B83AF
:101830006F2D6770662EEF2C1C8288E090E09C0173
:10184000261B31093A8329838091CE003C813817C9
:1018500008F455C04F2D46954695469550E0209189
:10186000CD002F0D3327331FC901019797FD079630
:1018700023E0959587952A95E1F74817590711F1C7
:1018800060E4E616F8F46E2D822D0E944C028C81E5
:10189000080F111D198288E090E09C01261931097A
:1018A000390169818B81681389C08091CF00909143
:1018B000D000892B39F440E06091C7008091C600C8
:1018C0000E94B60181E0820D6F2D9B81890F0F90E0
:1018D0000F900F900F90DF91CF911F910F91FF907C
:1018E000EF90DF90CF90BF90AF909F908F907F90C0
:1018F0006F905F904F903F902F900C944C026E2D04
:10190000822D0E944C0264013C81C30ED11C560101
:1019100061E0A61AB108512C2091CF003091D0007F
:101920008B8158120FC0232B39F440E06091C7001F
:101930008091C6000E94B60198E0E90E2C812F5FCD
:101940002C8382CF8091CA009091CB00FC01EC0DDA
:10195000FD1D4491062C01C0440F0A94EAF7742E31
:101960006C81611581F0FC01EA0DFB1DE491F0E052
:10197000098002C0F595E7950A94E2F77E2A8091E6
:10198000CE00A80EB11C3090C7004090C600213098
:10199000310529F4632D842D0E94C401782A81E049
:1019A000840D8093C600472D632D842D0E94B601BF
:1019B0008091CE00C80ED11C5394AECFB090C7001A
:1019C000E090C6006B2D8E2D0E94C401E091CA00EC
:1019D000F091CB00E00FF11FE49191E09E0D909308
:1019E000C600F0E0062C02C0F595E7950A94E2F7F0
:1019F000482F4E2B6B2D8E2D0E94B6018091CE006C
:101A0000080F111D39813F5F39834BCFCF93DF938F
:101A1000EC018991811103C0DF91CF91089520914C
:101A2000C6009091CC00290F3327331F2038310591
:101A30009CF70E94E20BEDCFCF93DF93EC01FE0108
:101A40008491811103C0DF91CF9108952196209157
:101A5000C6009091CC00290F3327331F2038310561
:101A600094F70E94E20BEBCFCF92DF92EF92FF92BE
:101A7000CF93DF93CDB7DEB72C970FB6F894DEBFC8
:101A80000FBECDBF462F572FBC0141155105610533
:101A9000710579F480E32C960FB6F894DEBF0FBE83
:101AA000CDBFDF91CF91FF90EF90DF90CF900C945E
:101AB000E20B41155105610520E8720709F4B6C033
:101AC000CE0101962CE0FC0111922A95E9F720E362
:101AD000298330E077FF08C0709560955095419557
:101AE0005F4F6F4F7F4F31E020E34115FAEC5F0706
:101AF000FAE96F07FBE37F07ACF06A017B012AEC90
:101B0000D21A2AE9E20A2BE3F20AC114EAECDE0651
:101B1000EAE9EE06EBE3FE060CF495C05459654382
:101B2000774722E32A8320E3E1E0E20F4115F1EE5B
:101B30005F07F5EF6F07F5E07F070CF088C02B8398
:101B400020E3E1E0E20F4038F6E95F07F8E96F07CC
:101B500071050CF081C02C8320E3E1E0E20F4034FA
:101B6000F2E45F07FFE06F0771050CF07BC02D8387
:101B700020E3E1E0E20F403AF6E85F07F1E06F07AB
:101B800071050CF075C02E8320E3E1E0E20F4031D7
:101B9000F7E25F07610571050CF070C02F8320E349
:101BA000E1E0E20F483EF3E05F07610571050CF0EC
:101BB0006BC0288720E3E1E0E20F44365105610560
:101BC00071050CF067C0298720E3E1E0E20F4A309D
:101BD0005105610571050CF063C02A87405D4B8794
:101BE00020E0FC01E20FF11D4081403309F45EC0AA
:101BF000311531F02150FC01E20FF11D3DE230833F
:101C00004AE0421BF12C30E0DC01AF0DB11DBD01FB
:101C1000620F731FFB0150815C93F3944F15A0F783
:101C2000FC01EF0DF11D10820E94060D2C960FB6DF
:101C3000F894DEBF0FBECDBFDF91CF91FF90EF9044
:101C4000DF90CF900895B701A60121E36BCF515EDD
:101C5000654F75402E2F68CF405856496849710925
:101C60002E2F6FCF405452446F4071092E2F75CFE5
:101C7000405A5648614071092E2F7BCF4051574240
:101C8000610971092E2F81CF485E534061097109A6
:101C90002E2F86CF44565109610971092E2F8BCF03
:101CA0004A505109610971092E2F8FCF2F5F99CFAB
:101CB000CF92DF92EF92FF920F931F93CF93DF9318
:101CC0006B017C01C42F20E030E0A901C701B601FF
:101CD0000E947510811111C080E30E94E20B8EE218
:101CE0000E94E20B80E3DF91CF911F910F91FF9053
:101CF000EF90DF90CF900C94E20B20E030E040E0DA
:101D00005FECC701B6010E94D41187FD51C020E0ED
:101D100030E040E05FE4C701B6010E94751087FF24
:101D200047C020E030E0A901C701B6010E9475104C
:101D300087FF07C0F7FAF094F7F8F0948DE20E945D
:101D4000E20BC701B6010E94EC100E94340D8EE236
:101D50000E94E20B6C2F70E080E090E00E94221164
:101D60009B01AC0160E070E080E291E40E944612C9
:101D70008B01D82FC92FC701B6010E94F3100E9412
:101D800022119B01AC01C701B6010E940810980105
:101D90004D2F5C2F0E94D9110E94EC10DF91CF9142
:101DA0001F910F91FF90EF90DF90CF900C94340D26
:101DB000DF91CF911F910F91FF90EF90DF90CF9027
:101DC0000895A19AA09AA99AA89A11B884E080B916
:101DD00086BF089581B1887F089584EA86BF06B6DC
:101DE00007FEFDCF81B1887F089585ED86BF06B6D9
:101DF00004FCFDCF089583B984E886BF06B607FECC
:101E0000FDCF81B1887F089584EC86BF06B607FEBA
:101E1000FDCF83B1089584E886BF06B607FEFDCFE7
:101E200083B10895FF920F931F93CF93DF93D82F21
:101E3000C62FF42E152F022F0E94ED0E883069F068
:101E4000803159F0C0E00E94F50E8C2F90E0DF91B8
:101E5000CF911F910F91FF9008958D2F880F0E94B1
:101E6000FB0E883111F0803269F78C2F0E94FB0E37
:101E7000883211F0803331F7CF2DD12F0C0F1D2F69
:101E8000111DC017D10739F089910E94FB0E8832CD
:101E9000C1F38033B1F3C1E0D6CFCF92DF92EF929E
:101EA000FF920F931F93CF93DF93C82F162F7A01C2
:101EB000D22F0E94ED0E883021F0803111F0C0E069
:101EC0003BC0CC0F8C2F0E94FB0E883111F080326A
:101ED000B1F7812F0E94FB0E883211F0803379F721
:101EE0000E94ED0E883011F0803149F78C2F81600F
:101EF0000E94FB0E877F803411F78701E12CF12CC3
:101F00008D2F8150990B6C01E801EC14FD0464F4F1
:101F10000E94040FF80181938F0181B1FFEFEF1A46
:101F2000FF0A807F803581F30E940B0F888381B187
:101F3000807FC1E0803519F60E94F50E8C2F90E06D
:101F4000DF91CF911F910F91FF90EF90DF90CF9095
:101F50000895880F82B908950E94540220E030E06D
:101F600048E065E084E590E00E94760B0E946901FC
:101F70000E94AB0769E186E00E944C0280E690E097
:101F80000E94060D0E9410022FEF87E99AE321506C
:101F900080409040E1F700C000000E94AB0760E085
:101FA00082E00E944C028091A40081112CC081E744
:101FB00090E00E94060D8091A500811539F1E09115
:101FC000A500E150F0E0EA55FF4FC08164E182E0F6
:101FD0000E944C0284E990E00E94060D63E282E0D8
:101FE0000E944C026C2FCC0F770B880B990B0E9430
:101FF000340D0E9410022FEF81EE94E021508040BA
:102000009040E1F7C8CF82E890E0D3CFEFE1DACF9C
:102010005058BB27AA270E9420100C949A110E94A6
:102020008C1138F00E94931120F039F49F3F19F47D
:1020300026F40C9489110EF4E095E7FB0C948311BF
:10204000E92F0E94AB1158F3BA1762077307840790
:10205000950720F079F4A6F50C94CD110EF4E095D7
:102060000B2EBA2FA02D0B01B90190010C01CA0152
:10207000A0011124FF27591B99F0593F50F4503EFD
:1020800068F11A16F040A22F232F342F4427585FEF
:10209000F3CF469537952795A795F0405395C9F707
:1020A0007EF41F16BA0B620B730B840BBAF09150BF
:1020B000A1F0FF0FBB1F661F771F881FC2F70EC05E
:1020C000BA0F621F731F841F48F487957795679531
:1020D000B795F7959E3F08F0B0CF9395880F08F01D
:1020E0009927EE0F9795879508950E945F1108F440
:1020F00081E008950E948E100C949A110E94931111
:1021000058F00E948C1140F029F45F3F29F00C94A4
:10211000831151110C94CE110C9489110E94AB11B2
:1021200068F39923B1F3552391F3951B550BBB2706
:10213000AA2762177307840738F09F5F5F4F220F4B
:10214000331F441FAA1FA9F335D00E2E3AF0E0E842
:1021500032D091505040E695001CCAF72BD0FE2F8C
:1021600029D0660F771F881FBB1F26173707480720
:10217000AB07B0E809F0BB0B802DBF01FF279358D8
:102180005F4F3AF09E3F510578F00C9483110C9408
:10219000CE115F3FE4F3983ED4F38695779567952B
:1021A000B795F7959F5FC9F7880F911D969587950D
:1021B00097F90895E1E0660F771F881FBB1F62172C
:1021C00073078407BA0720F0621B730B840BBA0BEA
:1021D000EE1F88F7E09508950E94F3106894B111FE
:1021E0000C94CE1108950E94B31188F09F5798F077
:1021F000B92F9927B751B0F0E1F0660F771F881F0C
:10220000991F1AF0BA95C9F714C0B13091F00E9425
:10221000CD11B1E008950C94CD11672F782F882748
:10222000B85F39F0B93FCCF3869577956795B3954C
:10223000D9F73EF490958095709561957F4F8F4FBB
:102240009F4F0895E89409C097FB3EF490958095C0
:10225000709561957F4F8F4F9F4F9923A9F0F92F6C
:1022600096E9BB279395F695879577956795B795EA
:10227000F111F8CFFAF4BB0F11F460FF1BC06F5FD0
:102280007F4F8F4F9F4F16C0882311F096E911C0E2
:10229000772321F09EE8872F762F05C0662371F003
:1022A00096E8862F70E060E02AF09A95660F771F17
:1022B000881FDAF7880F9695879597F90895990FF3
:1022C0000008550FAA0BE0E8FEEF16161706E80700
:1022D000F907C0F012161306E407F50798F0621B21
:1022E000730B840B950B39F40A2661F0232B242BF6
:1022F000252B21F408950A2609F4A140A6958FEF15
:10230000811D811D089597F99F6780E870E060E066
:1023100008959FEF80EC089500240A94161617067E
:1023200018060906089500240A94121613061406C6
:1023300005060895092E0394000C11F4882352F029
:10234000BB0F40F4BF2B11F460FF04C06F5F7F4FE1
:102350008F4F9F4F089557FD9058440F551F59F0C8
:102360005F3F71F04795880F97FB991F61F09F3F82
:1023700079F087950895121613061406551FF2CFAB
:102380004695F1DF08C0161617061806991FF1CFFB
:1023900086957105610508940895E894BB27662722
:1023A0007727CB0197F908950E945F1108F48FEF0A
:1023B00008950E94EC110C949A110E948C1138F02F
:1023C0000E94931120F0952311F00C9483110C942A
:1023D000891111240C94CE110E94AB1170F3959FBA
:1023E000C1F3950F50E0551F629FF001729FBB270C
:1023F000F00DB11D639FAA27F00DB11DAA1F649FA8
:102400006627B00DA11D661F829F2227B00DA11D5A
:10241000621F739FB00DA11D621F839FA00D611DE0
:10242000221F749F3327A00D611D231F849F600D01
:10243000211D822F762F6A2F11249F5750409AF02A
:10244000F1F088234AF0EE0FFF1FBB1F661F771FB6
:10245000881F91505040A9F79E3F510580F00C9481
:1024600083110C94CE115F3FE4F3983ED4F386952C
:1024700077956795B795F795E7959F5FC1F7FE2B21
:10248000880F911D9695879597F90895FA01EE0F9B
:10249000FF1F309621053105A1F16115710561F429
:1024A0008038BFE39B0749F168949038810561F05B
:1024B0008038BFEF9B0741F099234AF5FF3FE105C4
:1024C0003105210519F1E8940894E795D901AA236B
:1024D00029F4AB2FBE2FF85FD0F310C0FF5F70F46C
:1024E000A695E0F7F73950F019F0FF3A38F49F77E6
:1024F0009F930DD00F9007FC9058089546F00C94D0
:10250000891160E070E080E89FE308954FE79F77CE
:102510005F934F933F932F930E9441132F913F91CD
:102520004F915F910E94D9110C949E1229F416F0DC
:102530000C9483110C94CD110C9489110E94B31149
:10254000A8F39638A0F707F80F92E8942BE33AEA3D
:1025500048EB5FE70E94EF110F920F920F924DB779
:102560005EB70F920E948913EAE9F7E20E94D01247
:102570004F915F91EF91FF91E595EE1FFF1F49F09D
:10258000FE57E0684427EE0F441FFA95E1F74195A6
:10259000550B0E9403130F9007FE0C94F712089539
:1025A000DF93CF931F930F93FF92EF92DF927B0104
:1025B0008C01689406C0DA2EEF010E94EC11FE0136
:1025C000E894A5912591359145915591A6F3EF0198
:1025D0000E942010FE019701A801DA9469F7DF90AC
:1025E000EF90FF900F911F91CF91DF9108959B0184
:1025F000AC0160E070E080E89FE30C947A100C94EA
:1026000083110C94BD130E94B311D8F39923C9F31D
:10261000940F511DA3F39150504094F059F088232A
:1026200032F0660F771F881F91505040C1F79E3FD0
:1026300051052CF7880F911D9695879597F9089568
:102640005F3FACF0983E9CF0BB27869577956795E9
:10265000B79508F4B1609395C1F7BB0F58F711F423
:1026600060FFE8CF6F5F7F4F8F4F9F4FE3CF0C949A
:10267000CE1116F00C94BD130C94891168940C942F
:1026800083110E94B311A8F39923C1F3AEF3DF9332
:10269000CF931F930F93FF92C92FDD2788232AF032
:1026A0002197660F771F881FDAF720E030E040E8B7
:1026B0005FEB9FE3883920F0803E38F021968F77DA
:1026C0000E940910E2ECF7E204C00E940910EFEE4C
:1026D000F7E20E94D0128B01BE01EC01FB2E6F5776
:1026E00071097595771F880B990B0E94241128E1B9
:1026F00032E741E35FE30E94EC11AF2D9801AE0198
:10270000FF900F911F91CF91DF910E9420100C94A8
:102710009A11FA01DC01AA0FBB1F9B01AC01BF5744
:1027200028F4222733274427507820C0B75190F44B
:10273000AB2F0024469537952795011CA395D2F31E
:10274000002071F0220F331F441FB395DAF30ED02F
:102750000C94081061307105A0E88A07B94630F47E
:102760009B01AC016627772788279078309621F067
:10277000208331834283538308959F3F31F09150EA
:1027800020F4879577956795B795880F911D969555
:10279000879597F90895F894FFCF07634236B79B62
:1027A000D8A71A39685618AEBAAB558C1D3CB7CCB1
:1027B0005763BD6DEDFD753EF6177231BF00000029
:1027C000803F08000000BE922449123EABAAAA2A0C
:1027D000BECDCCCC4C3E00000080BEABAAAAAA3E27
:1027E00000000000BF000000803F00000000000863
:1027F0004178D3BB4387D1133D190E3CC3BD428200
:10280000AD2B3E68EC8276BED98FE1A93E4C80EFBD
:0C281000FFBE01C4FF7F3F00000000007D
:10281C00486172647761726520496E6974204F4B10
:10282C00004D4943202850413029204143544956FA
:10283C0045004A41434B2028504131292041435403
:10284C00495645005261772041444320282D3132AE
:04285C0038293A00DD
:00000001FF
