:100000000C944A010C9467010C9467010C946701ED
:100010000C9467010C9467010C9467010C946701C0
:100020000C9467010C9467010C9467010C946701B0
:100030000C9467010C9467010C9467010C946701A0
:100040000C9467010C9467010C9467010C94670190
:100050000C9467010500000000000500005F00002F
:1000600005000700070005147F147F1405242A7F6C
:100070002A120523130864620536495620500508E4
:100080000703000005001C224100050041221C005E
:100090000514083E08140508083E08080500B0705D
:1000A0000000050808080808050060600000052039
:1000B00010080402053E5149453E0500427F4000BC
:1000C000057249494946052141494D330518141225
:1000D0007F10052745454539053C4A4949310541C9
:1000E0002111090705364949493605464949291E5E
:1000F000050000140000050040340000050814222B
:1001000041000514141414140541221408000502BA
:1001100001590906053E415D594E057C1211127CBC
:10012000057F49494936053E41414122057F41410C
:10013000413E057F49494949057F09090909053EAD
:1001400041415173057F0808087F0500417F410048
:10015000052040413F01057F08142241057F4040B2
:100160004040057F020C027F057F0408107F053E9A
:100170004141413E057F09090906053E4151215E85
:10018000057F091929460526494949320501017F9C
:100190000101053F4040403F051F2040201F053F13
:1001A0004038403F056314081463050304780403D2
:1001B00005615149454305007F414100050204089E
:1001C0001020050041417F000504020102040540A2
:1001D0004040404005070B00000005205454784083
:1001E000057F2844443805384444442805384444AD
:1001F000287F0538545454180500087E0902051854
:10020000A4A49C78057F080404780500447D400080
:10021000052040403D00057F102844000500417F37
:100220004000057C04780478057C080404780538CF
:100230004444443805FC182424180518242418FCC8
:10024000057C080404080548545454240504043F5C
:100250004424053C4040207C051C2040201C053CDB
:100260004030403C054428102844054C9090907C38
:10027000054464544C4405000836410005000077ED
:1002800000000500413608000504020408040500CA
:100290007F417F0011241FBECFE5D8E0DEBFCDBF78
:1002A00010E0A0E6B0E0E0E3F8E202C005900D92B5
:1002B000A439B107D9F724E0A4E9B0E001C01D9248
:1002C000AF39B207E1F70E945F0F0C94D5130C947D
:1002D000000066956695669590E8699FB0011124C7
:1002E00061567F4FFB01E80FF11D4083089566952D
:1002F0006695669590E8699FB001112461567F4F1D
:10030000FB01E80FF11D80810895FF920F931F9369
:10031000CF93DF93C82FF62E172F042F0E94A00E25
:1003200088E70E94AE0E8C2F0E94AE0ECF2DD12FEB
:100330000C0F1D2F111D89910E94AE0EC017D10701
:10034000D1F7DF91CF911F910F91FF900C94A80EE0
:10035000CF93DF930F92CDB7DEB7898341E0BE0123
:100360006F5F7F4F80E00E9485010F90DF91CF91FA
:100370000895482FE4E9F0E06181808191E0980FD1
:1003800090830C946901CF93DF9381E20E94A801CE
:1003900080E00E94A8018FE70E94A80182E20E94EB
:1003A000A80180E00E94A80187E00E94A801CFE98F
:1003B000D0E040E1BE0180E40E948501609684E0C7
:1003C000CF39D807B1F7DF91CF910895811519F092
:1003D0008FEA0C94A8018EEAFCCFCF93C82F81E856
:1003E0000E94A8018C2FCF910C94A80187FF8093C5
:1003F00094000895803410F4809395000895CF936D
:10040000C62F0E94F6018C2FCF910C94FA010E9406
:10041000940E8EEA0E94A80185ED0E94A80180EF4B
:100420000E94A80188EA0E94A8018FE30E94A80107
:1004300083ED0E94A80180E00E94A8018DE80E943F
:10044000A80184E10E94A80180E40E94A80180E242
:100450000E94A80180E00E94A80181EA0E94A801F0
:1004600088EC0E94A8018AED0E94A80182E10E9406
:10047000A80181E80E94A8018FEF0E94A80189EDE0
:100480000E94A80181EF0E94A8018BED0E94A801A3
:1004900080E20E94A80184EA0E94A80186EA0E94E4
:1004A000A8018EE20E94A8018FEA0E94A80160E0E4
:1004B00080E00E94FF01E4E9F0E086EA90E09383A7
:1004C0008283108617821682118210820895CF933C
:1004D000883088F4682F660F660F660F80E00E94F0
:1004E000FF01C0E040E0609195008C2F0E946901FF
:1004F000CF5FC038B9F7CF910895883028F4880FBE
:10050000880F880F80939500089580919400089536
:1005100080919500089580919500869586958695A1
:100520000895FF920F931F93CF93DF93162FEA0145
:100530000E94FF01F0909500009194006F2D802F94
:100540000E947701482F177081E090E0A0E0B0E0B2
:1005500004C0880F991FAA1FBB1F1A95D2F7CF3F5F
:10056000D10551F4482B6F2D802FDF91CF911F9132
:100570000F91FF900C94690180954823F4CFFF926E
:100580000F931F93CF93DF93D82FC62F142F022FD3
:10059000F32E681750F0CD2FD62F07C0402F5F2DB8
:1005A000612F8C2F0E949102CF5FDC17B8F7DF918B
:1005B000CF911F910F91FF9008954F925F926F928C
:1005C0007F928F929F92AF92BF92CF92DF92EF92E3
:1005D000FF920F931F93CF93DF93982E862E68017F
:1005E000842B87FD58C0862F822B803408F053C09F
:1005F0002F5FC22FC61B4F5FE42EE918262F2770EE
:10060000F22ED62FD87FAC2EB12C88E090E09C0142
:100610002F193109C21713060CF04EC08A199B0915
:100620000FEF10E002C0159507958A95E2F77C2E32
:100630000F2C01C0000F0A94EAF7402E6D2F892D70
:100640000E94FF0110E00095E1123CC0F818F70C81
:100650002F2D2D0F822F90E0AC01495F5F4F4A157F
:100660005B050CF449C02C17B0F4A81AB90A8FEF37
:1006700090E09C0102C0220F331FAA94E2F75901B7
:10068000A09468E06D0F892D0E94FF01C0E0FA2C54
:10069000F0941C1347C0DF91CF911F910F91FF90F1
:1006A000EF90DF90CF90BF90AF909F908F907F9012
:1006B0006F905F904F90089588E0782E7F180FEF2D
:1006C00010E0B6CF5090950060909400652D862D77
:1006D0000E947701482F3FEFC316D10459F44429F3
:1006E00081E0860D80939400652D862D0E9469011E
:1006F0001F5FAACF4023F4CFD85F6D2F892D0E94B2
:10070000FF0100E0101709F4A3CF609195008091DC
:10071000940091E0980F909394004C2D0E946901F1
:100720000F5FF0CF00919500D0919400602F8D2F36
:100730000E947701482F3FEFC316D10459F44A298C
:1007400081E08D0F80939400602F8D2F0E946901AE
:10075000CF5F9FCF4F21F4CF0F931F93982F842FFC
:100760008901691718F0262F692F922F292F482FFA
:100770000E94DD021F910F9108952F923F924F9298
:100780005F926F927F928F929F92AF92BF92CF9221
:10079000DF92EF92FF920F931F93CF93DF93CDB72A
:1007A000DEB72B970FB6F894DEBF0FBECDBF4C015E
:1007B0006B872C833D833090940060909500862F4A
:1007C000830D87FF03C020E823192B87042F10E037
:1007D000780137E0E30EF11C53E0F594E7945A9565
:1007E000E1F7262C269426942694822D8E0D8930AE
:1007F00028F048E0E40EF11CE81AF108862D877015
:10080000582E6982712CFB85EF2FF0E0FF83EE8379
:1008100088E090E09C012519310939872887C72C89
:10082000D12C7E141F0408F469C0222D30E0060D7F
:10083000111DC801019797FD079643E0959587958F
:100840004A95E1F728173907E1F189818034C8F525
:10085000682F832D0E94FF0191E0C91AD108EB8512
:10086000EC9D8001ED9D100D1124080D191DC12C6A
:1008700088E090E07C01E518F108D0909500F091B7
:100880009400F983BF2EB3942B852C1199C000914D
:100890009D0010919E0040E00115110561F06D2D45
:1008A0008F2F0E94770141E00130110509F040E0EF
:1008B000419548274095B09294006D2D89810E9402
:1008C0006901662D809194002B960FB6F894DEBFD7
:1008D0000FBECDBFDF91CF911F910F91FF90EF9091
:1008E000DF90CF90BF90AF909F908F907F906F9050
:1008F0005F904F903F902F900C94FF016981832D62
:100900000E94FF013B85379D6001112456018E81B5
:100910009F81A81AB90AC80CD91C412CF0919400E7
:10092000FA83209195002B833B85341115C080916B
:100930009D0090919E0040E0892B29F0622F8F2F1F
:100940000E947701482F6B818A810E946901498149
:10095000485F4983739463CFF6012491052C01C04D
:10096000220F0A94EAF72A87711489F0C5010196CB
:10097000F401EA0DFB1DE491F0E0088402C0F59556
:10098000E7950A94E2F7422F4E2B4A875C018C814F
:100990009D81019739F46B818A810E9477019A8544
:1009A000982B9A878A818F5F809394004A856B8108
:1009B0008A810E9469014394EFEFCE1ADE0AAECF1E
:1009C0006D2D89810E947701F8012491B0929400E5
:1009D00030E00E2C02C0359527950A94E2F7482F97
:1009E000422B6D2D89810E946901C3940F5F1F4FB7
:1009F00044CF7F928F929F92AF92BF92CF92DF921D
:100A0000EF92FF920F931F93CF93DF93F62EC42F95
:100A1000D22F982F942B97FD5DC0962F922B903458
:100A200008F058C0841313C09801482F6D2F8F2DE4
:100A3000DF91CF911F910F91FF90EF90DF90CF90BA
:100A4000BF90AF909F908F907F900C94AC036213F7
:100A500012C09801462F6C2FDF91CF911F910F91FB
:100A6000FF90EF90DF90CF90BF90AF909F908F90CE
:100A70007F900C94BF02C22ED12C262F30E0D617C7
:100A8000B8F5A9014C195D096A01AC2EB12C282FCB
:100A900030E0C81780F5A9014A195B095A014C15C5
:100AA0005D0574F19F2DF82E892F9D2FDC2FC92F06
:100AB0009F2C9D1A882E8C1AC81710F08C2E881A1D
:100AC000E92CE69477247394C81710F077247A946D
:100AD000FD1630F5DF91CF911F910F91FF90EF90B0
:100AE000DF90CF90BF90AF909F908F907F900895B0
:100AF000C21AD30ACACFA21AB30AAC14BD044CF46A
:100B0000DF15B0F29C2FC82F892F9D2FDF2DF92ED6
:100B1000CFCF9C2FCF2DF92E9D2FD82F892FC8CF27
:100B2000A8016D2F8C2FAC14BD0414F06C2F8D2FE9
:100B30000E949102E818E7FE02C0C70DE90CDF5FD2
:100B4000C7CFEF92FF920F931F93CF93DF93E82EBF
:100B5000C62FF42ED22F842B87FD22C0862F822B06
:100B60008034F0F49801462F6F2D8E2D0E94BF0225
:100B700098014D2F6F2D8E2D0E94BF0298014E2D92
:100B80006D2F8C2F0E94AC0398014F2D6D2F8C2F51
:100B9000DF91CF911F910F91FF90EF900C94AC03D8
:100BA000DF91CF911F910F91FF90EF9008955F9289
:100BB0006F927F928F929F92AF92BF92CF92DF926D
:100BC000EF92FF920F931F93CF93DF93982ED62E21
:100BD000C42E122F842B87FD73C0862F822B803466
:100BE00008F06EC0802F90E0880F991FC3E0D0E01E
:100BF000C81BD90BB42EB01AA92CA00E9701462FF2
:100C00006B2D8A2D0E94BF029701412F6B2D8A2DDB
:100C10000E94BF02101BD00E9701492D612F8D2D10
:100C20000E94AC0397014C2D612F8D2D0E94AC03C7
:100C3000C12CA7017D2C701A672D8A2C8C18882D49
:100C40000E949102A7019D2C9C18692D5A2C501AC4
:100C5000852D0E949102A701672D7B2C7C0C872D8E
:100C60000E949102A701692D9B2C900E892D0E9454
:100C70009102A701612E600E662D882D0E949102BF
:100C8000A701812E8C0C682D852D0E949102A70151
:100C9000662D872D0E949102A701682D892D0E9443
:100CA0009102EC2DF0E0D7FF1BC0EE0FFF1FEE0FFF
:100CB000FF1F3696CE0FDF1FC3940C1508F0B9CF77
:100CC000DF91CF911F910F91FF90EF90DF90CF9028
:100CD000BF90AF909F908F907F906F905F9008959E
:100CE000E01BF109EE0FFF1FEE0FFF1F3A96CE0F2C
:100CF000DF1F0150E1CFAF92BF92CF92DF92EF9210
:100D0000FF920F931F93CF93DF93D82FF62EB42E1D
:100D1000A22EC02F842F802B8D2B87FD15C0822FF4
:100D20008E29862B803480F486018D2F0E94F90451
:100D30002E2D4C2F6A2D8B2D0E94F9042F2D4D2F17
:100D40006E2D8C2F0E94F904DF91CF911F910F918E
:100D5000FF90EF90DF90CF90BF90AF9008955F929B
:100D60006F927F928F929F92AF92BF92CF92DF92BB
:100D7000EF92FF920F931F93CF93DF93F82EE62EFF
:100D8000C42FD22F132F842F90E04F0D5527551FBE
:100D9000403851050CF06DC09C01260F311D2034E8
:100DA00031050CF066C0880F991F21E030E0690121
:100DB000C81AD90A88248394912CA12CB12C00E064
:100DC0006E2C600E4D2F512F662D7F2C7C0E872DA3
:100DD0000E9491024D2F512F662D6F2C6C1A862D7B
:100DE0000E9491025E2C501A4D2F512F652D862D99
:100DF0000E9491024D2F512F652D872D0E94910247
:100E00006F2C600E4D2F512F7E2C7C0E672D862D62
:100E10000E9491025F2C501A4D2F512F672D852D66
:100E20000E9491024D2F512F7E2C7C1A672D852D0B
:100E30000E9491024D2F512F672D862D0E94910205
:100E40000F5FA80CB91C52E0850E911CC501880FDC
:100E5000991F8C0D9D1D1816190644F4C1509C0154
:100E60002A193B09590132E0C30ED11CC01708F002
:100E7000A7CFDF91CF911F910F91FF90EF90DF905F
:100E8000CF90BF90AF909F908F907F906F905F902A
:100E900008951F93CF93DF93182FD0E0C0E0412F28
:100EA0006D2F8C2F0E946901CF5FC038C1F7D85FCA
:100EB000D034A1F7DF91CF911F91089580E090E0A9
:100EC0000C9449070F931F930E94DD021F910F910D
:100ED00008954F925F926F927F928F929F92AF92FE
:100EE000BF92CF92DF92EF92FF920F931F93CF9317
:100EF000DF93A82E862EB42E922EC02F842B87FD32
:100F00004CC0862F822B803408F047C0802F90E0A1
:100F1000880F991F23E030E06901C81AD90AB01A76
:100F2000A00E8701292D4B2D8A2D0E94DD02D0E0D5
:100F30009C1A8C0E8701492C4C0E242D8A2D8D1B5A
:100F4000482F582C5C1A652D0E94F904692C6D0EEF
:100F5000262D8A2D8C1B482F782C7D1A672D0E94F8
:100F6000F904242D8B2D8D0F482F652D0E94F90437
:100F7000262D8B2D8C0F482F672D0E94F904ED2F05
:100F8000F0E0D7FE1BC0EE0FFF1FEE0FFF1F3696DF
:100F9000CE0EDF1EDF5FCD1768F6DF91CF911F9178
:100FA0000F91FF90EF90DF90CF90BF90AF909F9008
:100FB0008F907F906F905F904F900895EC1BF10998
:100FC000EE0FFF1FEE0FFF1F3A96CE0EDF1EC15031
:100FD000E1CF2F923F924F925F926F927F928F92CA
:100FE0009F92AF92BF92CF92DF92EF92FF920F93B8
:100FF0001F93CF93DF93CDB7DEB769970FB6F89401
:10100000DEBF0FBECDBF698FF42E288F602FCA863A
:10101000DB86942F902B982B97FDB9C0922F9E2999
:10102000298D922B903408F0B2C0388DE31628F049
:101030009E2DE32E988F642FF02E998DE91630F0B7
:101040009E2DE98C998F962F682F892F262E312C73
:10105000C82ED12CAE2CB12CA98D8A2E912C681BB8
:10106000770B072E000C880B990B0E941A113B017D
:101070008C01B50168197909072E000C880B990BB2
:101080000E941A119B01AC01B301C8010E947010AB
:10109000688B798B8A8B9B8B2F2D30E03A83298349
:1010A000388D032F10E0C401831B91099F838E8329
:1010B000B6016F197109072E000C880B990B0E945D
:1010C0001A11962EC72ED82EF92E2E813F81B901E6
:1010D000330F880B990B0E941A119B01AC01692DEB
:1010E0007C2D8D2D9F2D0E9470106C8B7D8B8E8B97
:1010F0009F8B69817A8162197309072E000C880B16
:10110000990B0E941A11962EC72ED82EF92EB801CF
:101110006A197B09072E000C880B990B0E941A1183
:101120009B01AC01692D7C2D8D2D9F2D0E9470108F
:10113000562E78878987492EC12CD12CC101032CCA
:10114000000CAA0BBB0B8C879D87AE87BF87AE2D8B
:10115000AC0DAD83B98DBA1798F5CE80DF8089814B
:101160009A81092E000CAA0BBB0B89839A83AB834F
:10117000BC83A88DAE19BB0B3D014101330CAA08FD
:10118000BB08F88CFC0C388D3F1508F057C06996E9
:101190000FB6F894DEBF0FBECDBFDF91CF911F9188
:1011A0000F91FF90EF90DF90CF90BF90AF909F9006
:1011B0008F907F906F905F904F903F902F90089509
:1011C000B6010D2C000C880B990B0E941A113B01E3
:1011D0004C016C857D858E859F850E941A115B016F
:1011E0008C01288939894A895B89B301C4010E942D
:1011F000CF119501A8010E94FF0F0E94E910F62E61
:10120000252D38854985542DB301C4010E94CF1185
:101210009501A8010E94FF0F0E94E910862F6F150B
:1012200010F08F2DF62E0A851B852D814F2D622FF4
:101230000E94F9049FEFC91AD90A89CFB6010D2C73
:10124000000C880B990B0E941A112C893D894E893C
:101250005F890E94CF11E62E072F182F9D83698189
:101260007A818B819C810E941A119B01AC016E2DA9
:10127000702F812F9D810E94FF0F0E94E9106D83C6
:10128000B3016C0D7D1D072E000C880B990B0E947D
:101290001A11252D38854985542D0E94CF11362EDF
:1012A000E72E8C01C501B4010E941A119B01AC010B
:1012B000632D7E2DC8010E94FF0F0E94E910862F2A
:1012C000BD816B1710F08B2F6D830A851B852F2D29
:1012D0004D816F2D0E94F9042FEFC21AD20A51CF0F
:1012E000AF92BF92CF92DF92EF92FF920F931F9334
:1012F000CF93DF93D82FF62EC42FC22EB32E842F78
:1013000090E04D0F5527551F40385105BCF4860F0E
:10131000911D8034910594F481E0D82EDC1AAC2E16
:10132000A194AA0C022F132F2C2F260F4D2F6C1BCC
:101330008D2F0E94F904E12CEC1658F0DF91CF912B
:101340001F910F91FF90EF90DF90CF90BF90AF90E3
:101350000895D7FC04C0C150A394A394DA0CE3947D
:101360008E2D880F8F5FD80E4D2F4E0D2C2D3B2DBF
:101370000F2D0C1B602F1C2F1F0D812F0E94AC0303
:101380004D2F4E192C2D3B2D602F812F0E94AC0329
:101390000F2D0E191F2D1E0D2C2D3B2D4C2F4D0FDB
:1013A000602F812F0E94AC032C2D3B2D4D2F4C1B09
:1013B000602F812F0E94AC03BFCFCF93DF93D82F34
:1013C000C62F87E20E94A80180E00E94A8018D2F0D
:1013D0000E94A80180E00E94A8018C2F0E94A80111
:1013E00080E00E94A8018FEF0E94A8018FE2DF91A8
:1013F000CF910C94A801CF93DF93D82FC62F86E20C
:101400000E94A80180E00E94A8018D2F0E94A801DF
:1014100080E00E94A8018C2F0E94A80180E00E9419
:10142000A8018FEF0E94A8018FE2DF91CF910C9469
:10143000A801CF93DF93D82FC62F83EA0E94A8017B
:1014400080E00E94A80180E40E94A8018AE20E9434
:10145000A80180E00E94A8018D2F0E94A80180E0D1
:101460000E94A8018C2F0E94A80181E00E94A8017F
:101470008FE2DF91CF910C94A801CF93DF93D82F07
:10148000C62F83EA0E94A80180E00E94A80180E4A0
:101490000E94A80189E20E94A80180E00E94A801A0
:1014A0008D2F0E94A80180E00E94A8018C2F0E942D
:1014B000A80181E00E94A8018FE2DF91CF910C94F6
:1014C000A8018EE20C94A80180919600909197005B
:1014D000873A910539F087EA809396001092970039
:1014E0000C94A80186EAF8CF7F928F929F92AF92D8
:1014F000BF92CF92DF92EF92FF920F931F93CF9301
:10150000DF93F82EE62E481B01E0040F261BD1E0E6
:10151000D20F162F1770C62FC87FCD2ED12C88E082
:1015200090E09C01211B3109D21713060CF045C035
:101530009C012C193D098FEF90E002C0959587958D
:101540002A95E2F7AD2EB82E012E01C0BB0C0A94ED
:10155000EAF76C2F8F2D0E94FF01912C901698F1C5
:101560001E191A0D2C2F210F822F90E0AC01495F1C
:101570005F4F4C155D05DCF12D1788F4C81AD90AA8
:101580008FEF01C0880FCA94EAF7C82E68E06C0F8D
:101590008F2D0E94FF01C0E0C01708F445C0DF9105
:1015A000CF911F910F91FF90EF90DF90CF90BF9060
:1015B000AF909F908F907F90089588E0A82EA11AF9
:1015C0008FEF90E0C0CF7090950080909400672DD1
:1015D000882D0E94770191E0980D909394004B2DF7
:1015E0004827672D882D0E9469019394B7CFC85F63
:1015F0006C2F8F2D0E94FF01E12CE01608F0B2CF76
:10160000A0909500B09094006A2D8B2D0E947701D8
:1016100091E09B0D90939400482F40956A2D8B2D5F
:101620000E946901E394E9CF10919500D091940054
:10163000612F8D2F0E9477014C2D482781E08D0F5F
:10164000809394004095612F8D2F0E946901CF5F98
:10165000A3CFF90167FD1EC04034E0F4223031050C
:10166000C8F4809398009093990060939A004093F7
:101670009B0050E0CA01019797FD079623E09595DE
:1016800087952A95E1F78F5F80939C00F0939E00E9
:10169000E0939D000895E4E9F0E026819085299F7C
:1016A000900111242F5F3F4F082E000C990B80975B
:1016B000289FA001299F500D389F500D11240480B0
:1016C000F581E02DE40FF51F84918F5F08950F934E
:1016D0001F93CF93DF93EC0100E010E0899181111B
:1016E00006C0C801DF91CF911F910F9108950E940C
:1016F0004B0B080F111DF2CF0F931F93CF93DF9366
:10170000EC01FC01849100E010E02196811106C0FB
:10171000C801DF91CF911F910F9108950E944B0B4B
:10172000080F111DFE018491F0CF2F923F924F922E
:101730005F926F927F928F929F92AF92BF92CF9261
:10174000DF92EF92FF920F931F93CF93DF9300D01E
:1017500000D0CDB7DEB720909400F090950040EE19
:10176000480F20919A0080919C00289F900111249D
:101770002F5F3F4F42038001439F100D112448010A
:101780002FEF821A920AE0919800F0919900E00FF1
:10179000F11F34913B836F2D6770662EEF2C1C82F6
:1017A00088E090E09C01261B31093A8329838091CF
:1017B0009C003C81381708F455C04F2D469546953E
:1017C000469550E020919B002F0D3327331FC90110
:1017D000019797FD079623E0959587952A95E1F760
:1017E0004817590711F160E4E616F8F46E2D822DC2
:1017F0000E94FF018C81080F111D198288E090E082
:101800009C0126193109390169818B81681389C0CE
:1018100080919D0090919E00892B39F440E0609169
:101820009500809194000E94690181E0820D6F2DE6
:101830009B81890F0F900F900F900F90DF91CF91A8
:101840001F910F91FF90EF90DF90CF90BF90AF90DE
:101850009F908F907F906F905F904F903F902F90D0
:101860000C94FF016E2D822D0E94FF0164013C81CA
:10187000C30ED11C560161E0A61AB108512C20916B
:101880009D0030919E008B8158120FC0232B39F49C
:1018900040E060919500809194000E94690198E079
:1018A000E90E2C812F5F2C8382CF8091980090913C
:1018B0009900FC01EC0DFD1D4491062C01C0440F64
:1018C0000A94EAF7742E6C81611581F0FC01EA0D2F
:1018D000FB1DE491F0E0098002C0F595E7950A94BC
:1018E000E2F77E2A80919C00A80EB11C30909500F2
:1018F000409094002130310529F4632D842D0E94FD
:101900007701782A81E0840D80939400472D632D20
:10191000842D0E94690180919C00C80ED11C5394B3
:10192000AECFB0909500E09094006B2D8E2D0E946C
:101930007701E0919800F0919900E00FF11FE49198
:1019400091E09E0D90939400F0E0062C02C0F59576
:10195000E7950A94E2F7482F4E2B6B2D8E2D0E94AF
:10196000690180919C00080F111D39813F5F398307
:101970004BCFCF93DF93EC018991811103C0DF91AD
:10198000CF9108952091940090919A00290F3327C8
:10199000331F203831059CF70E94950BEDCFCF9374
:1019A000DF93EC01FE018491811103C0DF91CF919F
:1019B000089521962091940090919A00290F332741
:1019C000331F2038310594F70E94950BEBCFCF924F
:1019D000DF92EF92FF92CF93DF93CDB7DEB72C97D4
:1019E0000FB6F894DEBF0FBECDBF462F572FBC01F8
:1019F000411551056105710579F480E32C960FB608
:101A0000F894DEBF0FBECDBFDF91CF91FF90EF9076
:101A1000DF90CF900C94950B41155105610520E89E
:101A2000720709F4B6C0CE0101962CE0FC011192B8
:101A30002A95E9F720E3298330E077FF08C0709505
:101A40006095509541955F4F6F4F7F4F31E020E398
:101A50004115FAEC5F07FAE96F07FBE37F07ACF08B
:101A60006A017B012AECD21A2AE9E20A2BE3F20A84
:101A7000C114EAECDE06EAE9EE06EBE3FE060CF43E
:101A800095C054596543774722E32A8320E3E1E078
:101A9000E20F4115F1EE5F07F5EF6F07F5E07F0705
:101AA0000CF088C02B8320E3E1E0E20F4038F6E938
:101AB0005F07F8E96F0771050CF081C02C8320E304
:101AC000E1E0E20F4034F2E45F07FFE06F077105E9
:101AD0000CF07BC02D8320E3E1E0E20F403AF6E812
:101AE0005F07F1E06F0771050CF075C02E8320E3EE
:101AF000E1E0E20F4031F7E25F07610571050CF0AC
:101B000070C02F8320E3E1E0E20F483EF3E05F077F
:101B1000610571050CF06BC0288720E3E1E0E20F5E
:101B200044365105610571050CF067C0298720E333
:101B3000E1E0E20F4A305105610571050CF063C028
:101B40002A87405D4B8720E0FC01E20FF11D4081B8
:101B5000403309F45EC0311531F02150FC01E20F31
:101B6000F11D3DE230834AE0421BF12C30E0DC0104
:101B7000AF0DB11DBD01620F731FFB0150815C935E
:101B8000F3944F15A0F7FC01EF0DF11D10820E9498
:101B9000B90C2C960FB6F894DEBF0FBECDBFDF9107
:101BA000CF91FF90EF90DF90CF900895B701A601FD
:101BB00021E36BCF515E654F75402E2F68CF4058A3
:101BC0005649684971092E2F6FCF405452446F40D7
:101BD00071092E2F75CF405A5648614071092E2F3A
:101BE0007BCF40515742610971092E2F81CF485E4A
:101BF0005340610971092E2F86CF4456510961095E
:101C000071092E2F8BCF4A505109610971092E2F6E
:101C10008FCF2F5F99CFCF92DF92EF92FF920F93EA
:101C20001F93CF93DF936B017C01C42F20E030E042
:101C3000A901C701B6010E946B10811111C080E398
:101C40000E94950B8EE20E94950B80E3DF91CF916D
:101C50001F910F91FF90EF90DF90CF900C94950B18
:101C600020E030E040E05FECC701B6010E94CA11FD
:101C700087FD51C020E030E040E05FE4C701B601DD
:101C80000E946B1087FF47C020E030E0A901C70128
:101C9000B6010E946B1087FF07C0F7FAF094F7F8BF
:101CA000F0948DE20E94950BC701B6010E94E210EC
:101CB0000E94E70C8EE20E94950B6C2F70E080E092
:101CC00090E00E9418119B01AC0160E070E080E29E
:101CD00091E40E943C128B01D82FC92FC701B60195
:101CE0000E94E9100E9418119B01AC01C701B601C6
:101CF0000E94FE0F98014D2F5C2F0E94CF110E9471
:101D0000E210DF91CF911F910F91FF90EF90DF9044
:101D1000CF900C94E70CDF91CF911F910F91FF9022
:101D2000EF90DF90CF900895A19AA09AA99AA89ACF
:101D300011B884E080B986BF089581B1887F089585
:101D400084EA86BF06B607FEFDCF81B1887F08957D
:101D500085ED86BF06B604FCFDCF089583B984E8FF
:101D600086BF06B607FEFDCF81B1887F089584EC5B
:101D700086BF06B607FEFDCF83B1089584E886BF0F
:101D800006B607FEFDCF83B10895FF920F931F9310
:101D9000CF93DF93D82FC62FF42E152F022F0E943A
:101DA000A00E883069F0803159F0C0E00E94A80E82
:101DB0008C2F90E0DF91CF911F910F91FF900895AC
:101DC0008D2F880F0E94AE0E883111F0803269F796
:101DD0008C2F0E94AE0E883211F0803331F7CF2D58
:101DE000D12F0C0F1D2F111DC017D10739F089916C
:101DF0000E94AE0E8832C1F38033B1F3C1E0D6CF7A
:101E0000CF92DF92EF92FF920F931F93CF93DF93C6
:101E1000C82F162F7A01D22F0E94A00E883021F0F1
:101E2000803111F0C0E03BC0CC0F8C2F0E94AE0E71
:101E3000883111F08032B1F7812F0E94AE0E8832C6
:101E400011F0803379F70E94A00E883011F08031B4
:101E500049F78C2F81600E94AE0E877F803411F786
:101E60008701E12CF12C8D2F8150990B6C01E80139
:101E7000EC14FD0464F40E94B70EF80181938F0105
:101E800081B1FFEFEF1AFF0A807F803581F30E9456
:101E9000BE0E888381B1807FC1E0803519F60E9433
:101EA000A80E8C2F90E0DF91CF911F910F91FF90A2
:101EB000EF90DF90CF900895880F82B9089500D0F9
:101EC00000D0CDB7DEB70E94070220E030E048E046
:101ED00065E084E590E00E94290B0E945E0769E1BD
:101EE00086E00E94FF0182E790E00E94B90C0E9408
:101EF000C3012FEF4EE984E2215040408040E1F7DA
:101F000000C0000082E7E82E80E0F82E95E5C92E9B
:101F100092E6D92E25E3A22EB12C34E3832E4FE393
:101F2000942E2091600030916100E2E6F0E0FC83A5
:101F3000EB832C9DC0012D9D900D3C9D900D112497
:101F40009C01275E394C832F90E0B5010E94C1139C
:101F50009191981708F048C0891B873008F086E0F7
:101F6000980FDF011197953308F046C09C93EE1649
:101F7000FF06F9F630936100209360000E945E072F
:101F800060E082E00E94FF0186E890E00E94B90CC8
:101F900085E08983998195509A83EB81FC817190CA
:101FA000FC83EB83F92DF7197F2E0FEF10E02FE361
:101FB00049816F2F892F0E9462072FE34981672D86
:101FC0008A810E94A1052981285F2983253811F77C
:101FD0000E94C3014FEF80E792E041508040904063
:101FE000E1F700C000009DCF492F481B842F4930E6
:101FF00008F088E0981BB5CF8C92B9CF5058BB271A
:10200000AA270E9416100C9490110E94821138F099
:102010000E94891120F039F49F3F19F426F40C94A2
:102020007F110EF4E095E7FB0C947911E92F0E94E3
:10203000A11158F3BA17620773078407950720F0B8
:1020400079F4A6F50C94C3110EF4E0950B2EBA2F7B
:10205000A02D0B01B90190010C01CA01A0011124AE
:10206000FF27591B99F0593F50F4503E68F11A165A
:10207000F040A22F232F342F4427585FF3CF4695EB
:1020800037952795A795F0405395C9F77EF41F160D
:10209000BA0B620B730B840BBAF09150A1F0FF0FD7
:1020A000BB1F661F771F881FC2F70EC0BA0F621FC3
:1020B000731F841F48F4879577956795B795F795B3
:1020C0009E3F08F0B0CF9395880F08F09927EE0F48
:1020D0009795879508950E94551108F481E0089519
:1020E0000E9484100C9490110E94891158F00E9453
:1020F000821140F029F45F3F29F00C9479115111BD
:102100000C94C4110C947F110E94A11168F39923BF
:10211000B1F3552391F3951B550BBB27AA276217E3
:102120007307840738F09F5F5F4F220F331F441FF0
:10213000AA1FA9F335D00E2E3AF0E0E832D0915024
:102140005040E695001CCAF72BD0FE2F29D0660F11
:10215000771F881FBB1F261737074807AB07B0E854
:1021600009F0BB0B802DBF01FF2793585F4F3AF05A
:102170009E3F510578F00C9479110C94C4115F3F87
:10218000E4F3983ED4F3869577956795B795F795E0
:102190009F5FC9F7880F911D9695879597F90895C8
:1021A000E1E0660F771F881FBB1F62177307840764
:1021B000BA0720F0621B730B840BBA0BEE1F88F773
:1021C000E09508950E94E9106894B1110C94C4112F
:1021D00008950E94A91188F09F5798F0B92F992768
:1021E000B751B0F0E1F0660F771F881F991F1AF002
:1021F000BA95C9F714C0B13091F00E94C311B1E093
:1022000008950C94C311672F782F8827B85F39F091
:10221000B93FCCF3869577956795B395D9F73EF49A
:1022200090958095709561957F4F8F4F9F4F089542
:10223000E89409C097FB3EF4909580957095619560
:102240007F4F8F4F9F4F9923A9F0F92F96E9BB2716
:102250009395F695879577956795B795F111F8CF92
:10226000FAF4BB0F11F460FF1BC06F5F7F4F8F4FFD
:102270009F4F16C0882311F096E911C0772321F0F3
:102280009EE8872F762F05C0662371F096E8862F8B
:1022900070E060E02AF09A95660F771F881FDAF7E2
:1022A000880F9695879597F90895990F0008550F0F
:1022B000AA0BE0E8FEEF16161706E807F907C0F0CC
:1022C00012161306E407F50798F0621B730B840BD4
:1022D000950B39F40A2661F0232B242B252B21F4AE
:1022E00008950A2609F4A140A6958FEF811D811D4E
:1022F000089597F99F6780E870E060E008959FEF88
:1023000080EC089500240A9416161706180609068C
:10231000089500240A94121613061406050608955B
:10232000092E0394000C11F4882352F0BB0F40F4E3
:10233000BF2B11F460FF04C06F5F7F4F8F4F9F4F23
:10234000089557FD9058440F551F59F05F3F71F0A5
:102350004795880F97FB991F61F09F3F79F087950C
:102360000895121613061406551FF2CF4695F1DF95
:1023700008C0161617061806991FF1CF8695710525
:10238000610508940895E894BB2766277727CB0159
:1023900097F908950E94551108F48FEF08950E944F
:1023A000E2110C9490110E94821138F00E94891160
:1023B00020F0952311F00C9479110C947F111124C5
:1023C0000C94C4110E94A11170F3959FC1F3950F55
:1023D00050E0551F629FF001729FBB27F00DB11DA9
:1023E000639FAA27F00DB11DAA1F649F6627B00D39
:1023F000A11D661F829F2227B00DA11D621F739F22
:10240000B00DA11D621F839FA00D611D221F749F2F
:102410003327A00D611D231F849F600D211D822F76
:10242000762F6A2F11249F5750409AF0F1F088239D
:102430004AF0EE0FFF1FBB1F661F771F881F9150CA
:102440005040A9F79E3F510580F00C9479110C94EF
:10245000C4115F3FE4F3983ED4F386957795679572
:10246000B795F795E7959F5FC1F7FE2B880F911DF4
:102470009695879597F90895FA01EE0FFF1F30960C
:1024800021053105A1F16115710561F48038BFE3C3
:102490009B0749F168949038810561F08038BFEF5F
:1024A0009B0741F099234AF5FF3FE10531052105DE
:1024B00019F1E8940894E795D901AA2329F4AB2FE0
:1024C000BE2FF85FD0F310C0FF5F70F4A695E0F761
:1024D000F73950F019F0FF3A38F49F779F930DD0F9
:1024E0000F9007FC9058089546F00C947F1160E01F
:1024F00070E080E89FE308954FE79F775F934F93E5
:102500003F932F930E9437132F913F914F915F91EB
:102510000E94CF110C94941229F416F00C947911A6
:102520000C94C3110C947F110E94A911A8F3963842
:10253000A0F707F80F92E8942BE33AEA48EB5FE73D
:102540000E94E5110F920F920F924DB75EB70F9256
:102550000E947F13EEEAF7E20E94C6124F915F914C
:10256000EF91FF91E595EE1FFF1F49F0FE57E068E0
:102570004427EE0F441FFA95E1F74195550B0E9451
:10258000F9120F9007FE0C94ED120895DF93CF938C
:102590001F930F93FF92EF92DF927B018C0168945F
:1025A00006C0DA2EEF010E94E211FE01E894A59127
:1025B0002591359145915591A6F3EF010E94161092
:1025C000FE019701A801DA9469F7DF90EF90FF9080
:1025D0000F911F91CF91DF9108959B01AC0160E0B5
:1025E00070E080E89FE30C9470100C9479110C94C7
:1025F000B3130E94A911D8F39923C9F3940F511D65
:10260000A3F39150504094F059F0882332F0660FB4
:10261000771F881F91505040C1F79E3F51052CF7FE
:10262000880F911D9695879597F908955F3FACF0B7
:10263000983E9CF0BB27869577956795B79508F4EB
:10264000B1609395C1F7BB0F58F711F460FFE8CF65
:102650006F5F7F4F8F4F9F4FE3CF0C94C41116F0E5
:102660000C94B3130C947F1168940C9479110E940C
:10267000A911A8F39923C1F3AEF3DF93CF931F936E
:102680000F93FF92C92FDD2788232AF02197660F29
:10269000771F881FDAF720E030E040E85FEB9FE328
:1026A000883920F0803E38F021968F770E94FF0F06
:1026B000E6EDF7E204C00E94FF0FE3E0F8E20E94BB
:1026C000C6128B01BE01EC01FB2E6F577109759587
:1026D000771F880B990B0E941A1128E132E741E31A
:1026E0005FE30E94E211AF2D9801AE01FF900F91C0
:1026F0001F91CF91DF910E9416100C949011FA0156
:10270000DC01AA0FBB1F9B01AC01BF5728F4222795
:1027100033274427507820C0B75190F4AB2F0024C2
:10272000469537952795011CA395D2F3002071F0AB
:10273000220F331F441FB395DAF30ED00C94FE0F13
:1027400061307105A0E88A07B94630F49B01AC01FD
:102750006627772788279078309621F02083318369
:102760004283538308959F3F31F0915020F4879521
:1027700077956795B795880F911D9695879597F9E9
:102780000895AA1BBB1B51E107C0AA1FBB1FA617B8
:10279000B70710F0A61BB70B881F991F5A95A9F70A
:1027A00080959095BC01CD010895F894FFCF076303
:1027B0004236B79BD8A71A39685618AEBAAB558CB3
:1027C0001D3CB7CC5763BD6DEDFD753EF6177231FC
:1027D000BF000000803F08000000BE922449123E66
:1027E000ABAAAA2ABECDCCCC4C3E00000080BEAB2A
:1027F000AAAAAA3E00000000BF000000803F00001F
:10280000000000084178D3BB4387D1133D190E3C2B
:10281000C3BD4282AD2B3E68EC8276BED98FE1A962
:102820003E4C80EFFFBE01C4FF7F3F000000000070
:10283000393005080C140A0F060412191E0A082361
:10284000280C537065637472756D205669737561D9
:102850006C697A657200535045435452554D20447B
:04286000454D4F0093
:00000001FF
