:100000000C944A010C94AA010C9467010C946701AA
:100010000C9467010C9467010C9467010C948701A0
:100020000C9467010C9467010C9467010C946701B0
:100030000C9467010C9467010C9467010C946701A0
:100040000C9489010C9467010C9467010C9467016E
:100050000C9467010500000000000500005F00002F
:1000600005000700070005147F147F1405242A7F6C
:100070002A120523130864620536495620500508E4
:100080000703000005001C224100050041221C005E
:100090000514083E08140508083E08080500B0705D
:1000A0000000050808080808050060600000052039
:1000B00010080402053E5149453E0500427F4000BC
:1000C000057249494946052141494D330518141225
:1000D0007F10052745454539053C4A4949310541C9
:1000E0002111090705364949493605464949291E5E
:1000F000050000140000050040340000050814222B
:1001000041000514141414140541221408000502BA
:1001100001590906053E415D594E057C1211127CBC
:10012000057F49494936053E41414122057F41410C
:10013000413E057F49494949057F09090909053EAD
:1001400041415173057F0808087F0500417F410048
:10015000052040413F01057F08142241057F4040B2
:100160004040057F020C027F057F0408107F053E9A
:100170004141413E057F09090906053E4151215E85
:10018000057F091929460526494949320501017F9C
:100190000101053F4040403F051F2040201F053F13
:1001A0004038403F056314081463050304780403D2
:1001B00005615149454305007F414100050204089E
:1001C0001020050041417F000504020102040540A2
:1001D0004040404005070B00000005205454784083
:1001E000057F2844443805384444442805384444AD
:1001F000287F0538545454180500087E0902051854
:10020000A4A49C78057F080404780500447D400080
:10021000052040403D00057F102844000500417F37
:100220004000057C04780478057C080404780538CF
:100230004444443805FC182424180518242418FCC8
:10024000057C080404080548545454240504043F5C
:100250004424053C4040207C051C2040201C053CDB
:100260004030403C054428102844054C9090907C38
:10027000054464544C4405000836410005000077ED
:1002800000000500413608000504020408040500CA
:100290007F417F0011241FBECFE5D8E0DEBFCDBF78
:1002A00010E0A0E6B0E0ECE5FBE002C005900D92A6
:1002B000A439B107D9F720E0A4E9B0E001C01D924C
:1002C000A63FB207E1F70E940F040C94AC050C9412
:1002D000000087B38C6B87BB80E58DB981E08EB958
:1002E0008A98929A85B7826085BF8BB780648BBFEE
:1002F00080E687B98EE886B98AE08EBD87EC90E00B
:100300009BBD8ABD89B7806189BF78940895369A6C
:1003100018951F921FB61F9211248F93EF93FF938E
:1003200085B1E091D500F0E08058EA52FF4F80831C
:100330008091D5008F5F8093D5008091D500803269
:1003400010F01092D500FF91EF918F911F901FBE7A
:100350001F9018958F938FB78F939F938091D400A0
:1003600091E089278093D4008091D400806687B97A
:100370009F918F918FBF8F911895CF92DF92EF92BF
:10038000FF920F931F938B019C0140E050E060E0CF
:1003900070E4041715072607370778F080E090E02F
:1003A000DC01411551056105710579F41F910F912B
:1003B000FF90EF90DF90CF900895A2E0769567953B
:1003C00057954795AA95D1F7E4CF6C017D01C40EEE
:1003D000D51EE61EF71EB695A795979587950C1521
:1003E0001D052E053F0540F00C191D092E093F097A
:1003F000840F951FA61FB71FE2E076956795579566
:100400004795EA95D1F7CDCF2F923F924F925F92C9
:100410006F927F928F929F92AF92BF92CF92DF9214
:10042000EF92FF920F931F93CF93DF93CDB7DEB779
:1004300061970FB6F894DEBF0FBECDBF1C014B0114
:100440008C01DB0120E080E090E1891708F066C0B4
:10045000890F2F5F0E5F1F4F12962F31D1F5F5E0F8
:10046000F88B01E00F871F85198B412F440F4F87B1
:10047000612F70E080E190E00E9466052B01A0E70B
:10048000AA2EA0E0BA2EB0E66B2EB0E07B2E50E094
:10049000F9895F1346C008890150088B0111E3CF29
:1004A00061960FB6F894DEBF0FBECDBFDF91CF913E
:1004B0001F910F91FF90EF90DF90CF90BF90AF9082
:1004C0009F908F907F906F905F904F903F902F9074
:1004D0000895281708F0B8CFF80160817181E82FDE
:1004E000F0E06F01CC0CDD1CA1014C0D5D1DFA018B
:1004F000E080F180F801F182E082FA01718360838B
:100500004D915C911197F601E80DF91D60817181A3
:1005100011967C936E935183408396CF891B969559
:1005200094CFD5019C91F3018081452F092F990F1C
:10053000110B18870F83E82F880FFF0BFA87E987C5
:10054000403230F05F5FA40CB51C640C751CA0CF6A
:100550008989840F90E0880F991F8101080F191F66
:100560001A830983F80100811181F401E80FF91F52
:10057000FE83ED830190F081E02D2F813885D80135
:100580000E947A056B017C0129853A85DF010E9472
:100590007A05C61AD70AE80AF90A37E0F594E7940B
:1005A000D794C7943A95D1F72F8138850E947A0560
:1005B0006B877C878D879E8729853A85D8010E9425
:1005C0007A050B851C852D853E85600F711F821F66
:1005D000931FE7E09595879577956795EA95D1F70D
:1005E000E42FF0E0DF01AA0FBB1F81010A0F1B1FE0
:1005F000F801208131812C193D09E981FA8131838B
:100600002083FD01E80DF91D20813181261B370B68
:10061000AD81BE812D933C93D8012D913C911197D2
:100620002C0D3D1D2D933C9320813181260F371FCA
:1006300031832083EF854E0F83CF8FB9779BFECF19
:100640000895C398C4980E941D03C49A0895C39A3C
:10065000C4980E941D03C49A0895C2988FE39CE930
:100660000197F1F700C00000C29A9FEF2BED85E0E3
:10067000915020408040E1F700C0000081E10E94DD
:1006800021039FEF2BED85E0915020408040E1F762
:1006900000C0000089E20E94210386E30E9421033A
:1006A00088E40C9427038F929F92AF92BF92CF92CF
:1006B000DF92EF92FF920F931F93CF93DF935C0132
:1006C0006B017A01E9018AE20E9421038B2D0E94CD
:1006D00027038A2D0E9427038F2D0E9427038E2D2A
:1006E0000E9427038BE20E9421038D2D0E94270385
:1006F0008C2D0E9427038D2F0E9427038C2F0E9490
:1007000027038CE20E942103C39AC4988FEFE81A52
:10071000F80AEA18FB082196CC19DD09EC9E600165
:10072000ED9ED00CFC9ED00C1124E12CF12C812CE0
:10073000912C54018C149D04AE04BF0470F0C49A33
:10074000DF91CF911F910F91FF90EF90DF90CF90AD
:10075000BF90AF909F908F900895812F0E941D03AE
:10076000802F0E941D038FEF881A980AA80AB80AE2
:10077000E1CF0F931F938C012FEE30E04FE351E058
:1007800060E070E080E090E00E9453031F910F91C1
:1007900008958F929F92AF92BF92CF92DF92EF9285
:1007A000FF920F931F93CF93DF934C017B01D42FC4
:1007B000C52F69019B010E94530396014D2F5C2FA9
:1007C000B601C4010E9453039601A401B701C401FC
:1007D0000E94530396014D2F5C2FB7018D2F9C2F44
:1007E0000E945303DF91CF911F910F91FF90EF90E3
:1007F000DF90CF90BF90AF909F908F9008950F9310
:100800001F936217730719F49B010E9453031F91F2
:100810000F910895FA0181918111FDCF0895CDB70F
:10082000DEB7C858D1090FB6F894DEBF0FBECDBFF2
:100830000E9469010E942D0380E090E00E94B903AC
:100840009E012F573F4FCF57DF4F39832883C15821
:10085000D0409FEE492E512CF8942091D5008E0166
:100860000F5B1F4FAE014F5F5F4F4A017A01F801E6
:10087000C801BA01422F50E04A525F4FDA014C9151
:10088000042E000C550B41935193D7011D921D92DC
:100890007D012F5F203208F020E0CF57DF4F4881E5
:1008A0005981C158D040E417F50721F778940E9488
:1008B000040284EC90E0CD57DF4F99838883C358BE
:1008C000D040F4EAAF2EF0E0BF2EA4E9CA2EA0E09B
:1008D000DA2E180190E2290E311CB4EBEB2EB0E0B9
:1008E000FB2E84EC682E80E0782EF801A191B19166
:1008F0008F01F401419151914F019D010E947A05B0
:10090000CB57DF4F688379838A839B83C558D04058
:100910009A01DA010E947A05CB57DF4F288139818D
:100920004A815B81C558D040620F731F841F951F99
:100930000E94BD019C01369527958A3C914010F09C
:1009400024EE30E0D3018D913D01482F50E0821715
:100950001306C8F0CA01880F991F840F951F820FD4
:10096000931F9695879596958795F3018293F70146
:1009700090812917310548F02083E3E0D501EC93FD
:10098000D6011C9209C0C901F0CFF5018081811503
:1009900009F483C081508083BFEFEB1AFB0AEFEFAD
:1009A000AE1ABE0AFFEFCF1ADF0A0215130509F0CF
:1009B0009CCF80E090E00E94B9038091D400EE24A7
:1009C000E39400E010E02FEF3FEF40E850E08115A6
:1009D00011F049E850E060E070E082E090E00E94B1
:1009E0000A0484EB682E80E0782EE12CF12C47017C
:1009F0002BE0820E911CCD57DF4FA881B981C358DF
:100A0000D0406D91CD57DF4FB983A883C358D040F4
:100A1000611599F0F201E61BF109BF01862D24EB67
:100A200030E0821B883008F048C000EE17E02FEE5F
:100A300030E0A401C7010E945303D301CD903D01D2
:100A4000C114C9F0AC2CB12CF201EC19F1096F0101
:100A500000E018EF9F01A401BF01C7010E94FF033E
:100A6000CD2849F06EEE70E06A197B099B01A40164
:100A7000C7010E94FF03FFE0EF0EF11C20EFE2161A
:100A8000F10409F0B4CF3FEF46E751E03150404068
:100A90005040E1F700C00000DFCED6018C918F5F9F
:100AA0008C938695811101C081E0891720F4981BF1
:100AB000F701908371CFD70164CF0FEF17E02FEECE
:100AC00030E0A401C7010E94C903B7CF97FB072EEE
:100AD00016F4009407D077FD09D00E94980507FC12
:100AE00005D03EF4909581959F4F0895709561953E
:100AF0007F4F08950E948205332312F48A1B9B0BBB
:100B00000C949305A29FB001B39FC001A39F700DE9
:100B1000811D1124911DB29F700D811D1124911D05
:100B200008950E948205B7FF0895821B930B0895D4
:100B3000AA1BBB1B51E107C0AA1FBB1FA617B70703
:100B400010F0A61BB70B881F991F5A95A9F780951F
:0C0B50009095BC01CD010895F894FFCFF2
:100B5C0000E8D0BAA7978B8481848B97A7BAD0E88A
:100B6C007F7C75695946301800E8D0BAA7978B84FA
:100B7C004D49433A20504130004A41434B3A2050B2
:040B8C0041310000F3
:00000001FF
