:100000000C942A000C943F000C943F000C943F0089
:100010000C943F000C943F000C943F000C943F0064
:100020000C943F000C943F000C943F000C943F0054
:100030000C943F000C943F000C943F000C943F0044
:100040000C943F000C943F000C943F000C943F0034
:100050000C943F0011241FBECFE5D8E0DEBFCDBF1A
:1000600010E0A0E6B0E0EEE9F3E002C005900D92EA
:10007000A43AB107D9F70E943D010C94CD010C942C
:10008000000082E08BB910BC8CE089B988E08AB9A5
:1000900086E880BD08955D9BFECF8CB90895CF930F
:1000A000DF93EC018991811103C0DF91CF91089515
:1000B0000E944B00F7CF1F93CF93DF9300D000D067
:1000C000CDB7DEB7282F10E03AE0FE013196E10F00
:1000D000F11D1F5F822F632F0E949901905D908315
:1000E000922F282F9A3088F7111108C00F900F9087
:1000F0000F900F90DF91CF911F9108951150FE0145
:100100003196E10FF11D80810E944B00EDCF80E61A
:1001100087B984E886B90895369A3699FECF85B1B5
:10012000805808952F923F924F925F926F927F92E4
:100130008F929F92AF92BF92CF92DF92EF92FF92F7
:100140000F931F93CF93DF939C011B01FC0180E071
:1001500040E090E2891788F5890F4F5F31964F3361
:1001600011F506E010E0E1E0AE2EEE0FE12CF12CEF
:10017000F0E08A2C912CFA1123C001501040A1F715
:10018000DF91CF911F910F91FF90EF90DF90CF9073
:10019000BF90AF909F908F907F906F905F904F90A7
:1001A0003F902F9008954817A0F6D901A80FB11DD0
:1001B0009C9150815C939083CCCF891B9695CACF3C
:1001C000C701B4010E94A501DB015096AF73BB27A4
:1001D000A05ABF4F6C90DB01AF73BB27A05ABF4F33
:1001E0008C91782E7194BF2E9B2D9A0D6901C90EAA
:1001F000D11CD6014C90B101690F711DEB015880E3
:10020000D901AB0DB11DD62D842DD802A00111242A
:10021000972DC52D9C02401951091124440F452FDB
:10022000441F550B9C91941BE60198836101CB0CF4
:10023000D11CD72D8D02C0011124C62DD52DCD0284
:10024000800D911D1124880F892F881F990BE601BD
:100250009881981BEB0198839C91940F9C93D601F5
:100260009C91890F8C93BE0EB0E4BB1608F4BCCFF2
:10027000FF5FC0E2EC0EF11C7ECFCDB7DEB7C058F9
:10028000D1090FB6F894DEBF0FBECDBF0E9441006A
:100290000E9487005E0181E8A80EB11C91E4C92E7E
:1002A000D12CCC0EDD1E90E2C90ED11C8E010F5F49
:1002B0001F4FFE01EF5BFF4F7F0148010E948C0042
:1002C000F70181937F01F80111928F01F1E2FA9514
:1002D000F1F70000EA14FB0489F7B401CE018F5B4B
:1002E0009F4F0E94920081E4E82EF12CEC0EFD1E3F
:1002F0008FEFE81AF80A8E010E5F1F4FF7019191F8
:100300007F01F801208127FD2195892F87FD8195A7
:10031000820F0E945B00EC14FD0429F480EA90E057
:100320000E944F00C3CF0F5F1F4F8CE20E944B0013
:10033000E5CF992778E0880F991F961708F0961B4C
:10034000881F7A95C9F78095089597FB072E16F4B4
:10035000009407D077FD09D00E94B90107FC05D0B1
:100360003EF4909581959F4F0895709561957F4FCC
:100370000895AA1BBB1B51E107C0AA1FBB1FA617EC
:10038000B70710F0A61BB70B881F991F5A95A9F73E
:0E03900080959095BC01CD010895F894FFCFA3
:10039E00000C1925313C47515A626A70757A7D7E80
:1003AE007F7E7D7A75706A625A51473C3125190CF1
:1003BE0000F4E7DBCFC4B9AFA69E96908B868382FE
:1003CE00818283868B90969EA6AFB9C4CFDBE7F46D
:0403DE000D0A000004
:00000001FF
